{
  "contractName": "LuggageCrowdsurance",
  "abi": [
    {
      "constant": true,
      "inputs": [],
      "name": "getCurrentVotingStatus",
      "outputs": [
        {
          "name": "status",
          "type": "uint8"
        }
      ],
      "payable": false,
      "stateMutability": "view",
      "type": "function"
    },
    {
      "constant": true,
      "inputs": [
        {
          "name": "",
          "type": "address"
        }
      ],
      "name": "connectors",
      "outputs": [
        {
          "name": "",
          "type": "address"
        }
      ],
      "payable": false,
      "stateMutability": "view",
      "type": "function"
    },
    {
      "constant": true,
      "inputs": [],
      "name": "pool",
      "outputs": [
        {
          "name": "",
          "type": "address"
        }
      ],
      "payable": false,
      "stateMutability": "view",
      "type": "function"
    },
    {
      "constant": false,
      "inputs": [],
      "name": "paymentCurrent",
      "outputs": [],
      "payable": false,
      "stateMutability": "nonpayable",
      "type": "function"
    },
    {
      "constant": true,
      "inputs": [],
      "name": "getAppID",
      "outputs": [
        {
          "name": "appId",
          "type": "uint256"
        }
      ],
      "payable": false,
      "stateMutability": "view",
      "type": "function"
    },
    {
      "constant": true,
      "inputs": [],
      "name": "RST",
      "outputs": [
        {
          "name": "",
          "type": "address"
        }
      ],
      "payable": false,
      "stateMutability": "view",
      "type": "function"
    },
    {
      "constant": false,
      "inputs": [],
      "name": "castNegativeSelected",
      "outputs": [],
      "payable": false,
      "stateMutability": "nonpayable",
      "type": "function"
    },
    {
      "constant": true,
      "inputs": [
        {
          "name": "",
          "type": "address"
        }
      ],
      "name": "addressToAmount",
      "outputs": [
        {
          "name": "",
          "type": "uint256"
        }
      ],
      "payable": false,
      "stateMutability": "view",
      "type": "function"
    },
    {
      "constant": false,
      "inputs": [],
      "name": "castPositiveSelected",
      "outputs": [],
      "payable": false,
      "stateMutability": "nonpayable",
      "type": "function"
    },
    {
      "constant": true,
      "inputs": [],
      "name": "paybackRatio",
      "outputs": [
        {
          "name": "",
          "type": "uint8"
        }
      ],
      "payable": false,
      "stateMutability": "view",
      "type": "function"
    },
    {
      "constant": true,
      "inputs": [],
      "name": "getApplication",
      "outputs": [
        {
          "name": "member",
          "type": "address"
        },
        {
          "name": "appId",
          "type": "uint256"
        }
      ],
      "payable": false,
      "stateMutability": "view",
      "type": "function"
    },
    {
      "constant": true,
      "inputs": [],
      "name": "ETHOnly",
      "outputs": [
        {
          "name": "",
          "type": "bool"
        }
      ],
      "payable": false,
      "stateMutability": "view",
      "type": "function"
    },
    {
      "constant": true,
      "inputs": [],
      "name": "getCurrentTokenId",
      "outputs": [
        {
          "name": "currentId",
          "type": "uint256"
        }
      ],
      "payable": false,
      "stateMutability": "view",
      "type": "function"
    },
    {
      "constant": false,
      "inputs": [],
      "name": "claimCurrent",
      "outputs": [
        {
          "name": "",
          "type": "bool"
        }
      ],
      "payable": false,
      "stateMutability": "nonpayable",
      "type": "function"
    },
    {
      "constant": false,
      "inputs": [
        {
          "name": "_receiver",
          "type": "address"
        }
      ],
      "name": "setReceiver",
      "outputs": [],
      "payable": false,
      "stateMutability": "nonpayable",
      "type": "function"
    },
    {
      "constant": false,
      "inputs": [],
      "name": "acceptOwnership",
      "outputs": [],
      "payable": false,
      "stateMutability": "nonpayable",
      "type": "function"
    },
    {
      "constant": true,
      "inputs": [
        {
          "name": "",
          "type": "uint256"
        }
      ],
      "name": "requests",
      "outputs": [
        {
          "name": "amount",
          "type": "uint256"
        },
        {
          "name": "timeStamp",
          "type": "uint256"
        },
        {
          "name": "duration",
          "type": "uint256"
        },
        {
          "name": "positive",
          "type": "uint8"
        },
        {
          "name": "negative",
          "type": "uint8"
        },
        {
          "name": "number",
          "type": "uint8"
        }
      ],
      "payable": false,
      "stateMutability": "view",
      "type": "function"
    },
    {
      "constant": true,
      "inputs": [],
      "name": "parameters",
      "outputs": [
        {
          "name": "joinAmount",
          "type": "uint256"
        },
        {
          "name": "coverageDuration",
          "type": "uint256"
        },
        {
          "name": "maxClaimAmount",
          "type": "uint256"
        },
        {
          "name": "maxClaimNumber",
          "type": "uint8"
        },
        {
          "name": "paymentRatio",
          "type": "uint8"
        },
        {
          "name": "maxPaymentAmount",
          "type": "uint256"
        },
        {
          "name": "minJuriesNumber",
          "type": "uint8"
        },
        {
          "name": "votingDuration",
          "type": "uint256"
        },
        {
          "name": "juriesNumber",
          "type": "uint8"
        },
        {
          "name": "maxApplications",
          "type": "uint256"
        },
        {
          "name": "averageScore",
          "type": "uint256"
        },
        {
          "name": "defaultClaimAmount",
          "type": "uint256"
        }
      ],
      "payable": false,
      "stateMutability": "view",
      "type": "function"
    },
    {
      "constant": false,
      "inputs": [
        {
          "name": "_id",
          "type": "uint256"
        }
      ],
      "name": "payment",
      "outputs": [],
      "payable": false,
      "stateMutability": "nonpayable",
      "type": "function"
    },
    {
      "constant": true,
      "inputs": [],
      "name": "owner",
      "outputs": [
        {
          "name": "",
          "type": "address"
        }
      ],
      "payable": false,
      "stateMutability": "view",
      "type": "function"
    },
    {
      "constant": true,
      "inputs": [],
      "name": "maxHold",
      "outputs": [
        {
          "name": "",
          "type": "uint8"
        }
      ],
      "payable": false,
      "stateMutability": "view",
      "type": "function"
    },
    {
      "constant": true,
      "inputs": [],
      "name": "getJoinAmount",
      "outputs": [
        {
          "name": "amount",
          "type": "uint256"
        }
      ],
      "payable": false,
      "stateMutability": "view",
      "type": "function"
    },
    {
      "constant": false,
      "inputs": [],
      "name": "fssf",
      "outputs": [],
      "payable": false,
      "stateMutability": "nonpayable",
      "type": "function"
    },
    {
      "constant": true,
      "inputs": [
        {
          "name": "",
          "type": "address"
        }
      ],
      "name": "voters",
      "outputs": [
        {
          "name": "",
          "type": "uint256"
        }
      ],
      "payable": false,
      "stateMutability": "view",
      "type": "function"
    },
    {
      "constant": true,
      "inputs": [
        {
          "name": "",
          "type": "uint256"
        }
      ],
      "name": "payback",
      "outputs": [
        {
          "name": "",
          "type": "uint256"
        }
      ],
      "payable": false,
      "stateMutability": "view",
      "type": "function"
    },
    {
      "constant": true,
      "inputs": [
        {
          "name": "",
          "type": "uint256"
        }
      ],
      "name": "claims",
      "outputs": [
        {
          "name": "",
          "type": "uint256"
        }
      ],
      "payable": false,
      "stateMutability": "view",
      "type": "function"
    },
    {
      "constant": true,
      "inputs": [],
      "name": "rstETHRate",
      "outputs": [
        {
          "name": "",
          "type": "uint256"
        }
      ],
      "payable": false,
      "stateMutability": "view",
      "type": "function"
    },
    {
      "constant": true,
      "inputs": [
        {
          "name": "",
          "type": "address"
        }
      ],
      "name": "addressToApplication",
      "outputs": [
        {
          "name": "",
          "type": "uint256"
        }
      ],
      "payable": false,
      "stateMutability": "view",
      "type": "function"
    },
    {
      "constant": true,
      "inputs": [
        {
          "name": "_member",
          "type": "address"
        },
        {
          "name": "_status",
          "type": "uint8"
        }
      ],
      "name": "statusCount",
      "outputs": [
        {
          "name": "count",
          "type": "uint256"
        }
      ],
      "payable": false,
      "stateMutability": "view",
      "type": "function"
    },
    {
      "constant": false,
      "inputs": [
        {
          "name": "_id",
          "type": "uint256"
        },
        {
          "name": "_claim",
          "type": "uint256"
        }
      ],
      "name": "claim",
      "outputs": [
        {
          "name": "",
          "type": "bool"
        }
      ],
      "payable": false,
      "stateMutability": "nonpayable",
      "type": "function"
    },
    {
      "constant": true,
      "inputs": [
        {
          "name": "",
          "type": "address"
        }
      ],
      "name": "addressToScore",
      "outputs": [
        {
          "name": "",
          "type": "uint256"
        }
      ],
      "payable": false,
      "stateMutability": "view",
      "type": "function"
    },
    {
      "constant": false,
      "inputs": [
        {
          "name": "_id",
          "type": "uint256"
        },
        {
          "name": "_positive",
          "type": "bool"
        }
      ],
      "name": "vote",
      "outputs": [],
      "payable": false,
      "stateMutability": "nonpayable",
      "type": "function"
    },
    {
      "constant": false,
      "inputs": [
        {
          "name": "_sender",
          "type": "address"
        }
      ],
      "name": "setSender",
      "outputs": [],
      "payable": false,
      "stateMutability": "nonpayable",
      "type": "function"
    },
    {
      "constant": false,
      "inputs": [
        {
          "name": "_member",
          "type": "address"
        },
        {
          "name": "_score",
          "type": "uint256"
        },
        {
          "name": "_amount",
          "type": "uint256"
        }
      ],
      "name": "scoring",
      "outputs": [],
      "payable": false,
      "stateMutability": "nonpayable",
      "type": "function"
    },
    {
      "constant": true,
      "inputs": [],
      "name": "joinAmountRST",
      "outputs": [
        {
          "name": "",
          "type": "uint256"
        }
      ],
      "payable": false,
      "stateMutability": "view",
      "type": "function"
    },
    {
      "constant": true,
      "inputs": [],
      "name": "getHash",
      "outputs": [
        {
          "name": "",
          "type": "string"
        }
      ],
      "payable": false,
      "stateMutability": "view",
      "type": "function"
    },
    {
      "constant": true,
      "inputs": [],
      "name": "newOwner",
      "outputs": [
        {
          "name": "",
          "type": "address"
        }
      ],
      "payable": false,
      "stateMutability": "view",
      "type": "function"
    },
    {
      "constant": false,
      "inputs": [],
      "name": "apply",
      "outputs": [
        {
          "name": "addId",
          "type": "uint256"
        }
      ],
      "payable": false,
      "stateMutability": "nonpayable",
      "type": "function"
    },
    {
      "constant": true,
      "inputs": [
        {
          "name": "",
          "type": "uint256"
        }
      ],
      "name": "extensions",
      "outputs": [
        {
          "name": "timeStamp",
          "type": "uint256"
        },
        {
          "name": "activated",
          "type": "uint256"
        },
        {
          "name": "duration",
          "type": "uint256"
        },
        {
          "name": "amount",
          "type": "uint256"
        },
        {
          "name": "paid",
          "type": "uint256"
        },
        {
          "name": "score",
          "type": "uint256"
        },
        {
          "name": "claimNumber",
          "type": "uint8"
        },
        {
          "name": "status",
          "type": "uint8"
        }
      ],
      "payable": false,
      "stateMutability": "view",
      "type": "function"
    },
    {
      "constant": true,
      "inputs": [],
      "name": "getNumberOfClaims",
      "outputs": [
        {
          "name": "",
          "type": "uint256"
        }
      ],
      "payable": false,
      "stateMutability": "view",
      "type": "function"
    },
    {
      "constant": true,
      "inputs": [],
      "name": "appNumber",
      "outputs": [
        {
          "name": "",
          "type": "uint256"
        }
      ],
      "payable": false,
      "stateMutability": "view",
      "type": "function"
    },
    {
      "constant": true,
      "inputs": [
        {
          "name": "",
          "type": "uint256"
        }
      ],
      "name": "applications",
      "outputs": [
        {
          "name": "timeStamp",
          "type": "uint256"
        },
        {
          "name": "member",
          "type": "address"
        },
        {
          "name": "tokensToBuy",
          "type": "uint8"
        },
        {
          "name": "paymetMethod",
          "type": "uint8"
        },
        {
          "name": "processed",
          "type": "bool"
        }
      ],
      "payable": false,
      "stateMutability": "view",
      "type": "function"
    },
    {
      "constant": false,
      "inputs": [
        {
          "name": "_newOwner",
          "type": "address"
        }
      ],
      "name": "transferOwnership",
      "outputs": [],
      "payable": false,
      "stateMutability": "nonpayable",
      "type": "function"
    },
    {
      "constant": false,
      "inputs": [
        {
          "name": "_jury",
          "type": "address"
        }
      ],
      "name": "addVoter",
      "outputs": [],
      "payable": false,
      "stateMutability": "nonpayable",
      "type": "function"
    },
    {
      "inputs": [
        {
          "name": "_rst",
          "type": "address"
        },
        {
          "name": "_pool",
          "type": "address"
        },
        {
          "name": "_amount",
          "type": "uint256"
        },
        {
          "name": "_only",
          "type": "bool"
        },
        {
          "name": "_max",
          "type": "uint8"
        }
      ],
      "payable": false,
      "stateMutability": "nonpayable",
      "type": "constructor"
    },
    {
      "payable": true,
      "stateMutability": "payable",
      "type": "fallback"
    },
    {
      "anonymous": false,
      "inputs": [
        {
          "indexed": false,
          "name": "member",
          "type": "address"
        },
        {
          "indexed": false,
          "name": "appId",
          "type": "uint256"
        }
      ],
      "name": "Apply",
      "type": "event"
    },
    {
      "anonymous": false,
      "inputs": [
        {
          "indexed": false,
          "name": "member",
          "type": "address"
        },
        {
          "indexed": false,
          "name": "id",
          "type": "uint256"
        },
        {
          "indexed": false,
          "name": "amount",
          "type": "uint256"
        }
      ],
      "name": "Join",
      "type": "event"
    },
    {
      "anonymous": false,
      "inputs": [
        {
          "indexed": false,
          "name": "member",
          "type": "address"
        },
        {
          "indexed": false,
          "name": "score",
          "type": "uint256"
        },
        {
          "indexed": false,
          "name": "amount",
          "type": "uint256"
        }
      ],
      "name": "Scoring",
      "type": "event"
    },
    {
      "anonymous": false,
      "inputs": [
        {
          "indexed": false,
          "name": "id",
          "type": "uint256"
        },
        {
          "indexed": false,
          "name": "amount",
          "type": "uint256"
        },
        {
          "indexed": false,
          "name": "score",
          "type": "uint256"
        }
      ],
      "name": "Activate",
      "type": "event"
    },
    {
      "anonymous": false,
      "inputs": [
        {
          "indexed": false,
          "name": "id",
          "type": "uint256"
        },
        {
          "indexed": false,
          "name": "claim",
          "type": "uint256"
        },
        {
          "indexed": false,
          "name": "number",
          "type": "uint8"
        }
      ],
      "name": "Claim",
      "type": "event"
    },
    {
      "anonymous": false,
      "inputs": [
        {
          "indexed": false,
          "name": "jury",
          "type": "address"
        },
        {
          "indexed": false,
          "name": "id",
          "type": "uint256"
        },
        {
          "indexed": false,
          "name": "positive",
          "type": "bool"
        }
      ],
      "name": "Vote",
      "type": "event"
    },
    {
      "anonymous": false,
      "inputs": [
        {
          "indexed": false,
          "name": "reciever",
          "type": "address"
        },
        {
          "indexed": false,
          "name": "id",
          "type": "uint256"
        },
        {
          "indexed": false,
          "name": "amount",
          "type": "uint256"
        },
        {
          "indexed": false,
          "name": "status",
          "type": "uint8"
        }
      ],
      "name": "Payment",
      "type": "event"
    },
    {
      "anonymous": false,
      "inputs": [
        {
          "indexed": false,
          "name": "member",
          "type": "address"
        },
        {
          "indexed": false,
          "name": "appId",
          "type": "uint256"
        }
      ],
      "name": "FSSF",
      "type": "event"
    },
    {
      "anonymous": false,
      "inputs": [
        {
          "indexed": true,
          "name": "_prevOwner",
          "type": "address"
        },
        {
          "indexed": true,
          "name": "_newOwner",
          "type": "address"
        }
      ],
      "name": "OwnerUpdate",
      "type": "event"
    },
    {
      "anonymous": false,
      "inputs": [
        {
          "indexed": false,
          "name": "_sender",
          "type": "address"
        },
        {
          "indexed": false,
          "name": "_receiver",
          "type": "address"
        }
      ],
      "name": "ReceiverUpdate",
      "type": "event"
    },
    {
      "anonymous": false,
      "inputs": [
        {
          "indexed": false,
          "name": "_sender",
          "type": "address"
        },
        {
          "indexed": false,
          "name": "_receiver",
          "type": "address"
        }
      ],
      "name": "SenderUpdate",
      "type": "event"
    },
    {
      "constant": false,
      "inputs": [],
      "name": "join",
      "outputs": [
        {
          "name": "cowdsuranceId",
          "type": "uint256"
        }
      ],
      "payable": true,
      "stateMutability": "payable",
      "type": "function"
    },
    {
      "constant": false,
      "inputs": [
        {
          "name": "_id",
          "type": "uint256"
        },
        {
          "name": "_amount",
          "type": "uint256"
        }
      ],
      "name": "setPayback",
      "outputs": [
        {
          "name": "",
          "type": "bool"
        }
      ],
      "payable": false,
      "stateMutability": "nonpayable",
      "type": "function"
    },
    {
      "constant": false,
      "inputs": [
        {
          "name": "_id",
          "type": "uint256"
        }
      ],
      "name": "getPayback",
      "outputs": [],
      "payable": false,
      "stateMutability": "nonpayable",
      "type": "function"
    },
    {
      "constant": false,
      "inputs": [
        {
          "name": "_id",
          "type": "uint256"
        },
        {
          "name": "_hash",
          "type": "string"
        }
      ],
      "name": "activate",
      "outputs": [],
      "payable": false,
      "stateMutability": "nonpayable",
      "type": "function"
    },
    {
      "constant": false,
      "inputs": [
        {
          "name": "_hash",
          "type": "string"
        }
      ],
      "name": "activateCurrent",
      "outputs": [],
      "payable": false,
      "stateMutability": "nonpayable",
      "type": "function"
    },
    {
      "constant": true,
      "inputs": [],
      "name": "getAllowance",
      "outputs": [
        {
          "name": "allowance",
          "type": "uint256"
        }
      ],
      "payable": false,
      "stateMutability": "view",
      "type": "function"
    },
    {
      "constant": false,
      "inputs": [],
      "name": "transferCommission",
      "outputs": [],
      "payable": false,
      "stateMutability": "nonpayable",
      "type": "function"
    },
    {
      "constant": true,
      "inputs": [],
      "name": "getBizProcessId",
      "outputs": [
        {
          "name": "contractOwner",
          "type": "address"
        },
        {
          "name": "bizProcessId",
          "type": "uint8"
        }
      ],
      "payable": false,
      "stateMutability": "view",
      "type": "function"
    }
  ],
  "bytecode": "0x60806040523480156200001157600080fd5b5060405160a08062005d7e833981018060405281019080805190602001909291908051906020019092919080519060200190929190805190602001909291908051906020019092919050505083336000806101000a81548173ffffffffffffffffffffffffffffffffffffffff021916908373ffffffffffffffffffffffffffffffffffffffff160217905550668700cc7577000060036000018190555062ed4e00600360010181905550673782dace9d90000060036002018190555060038060030160006101000a81548160ff021916908360ff16021790555060646003800160016101000a81548160ff021916908360ff160217905550678ac7230489e8000060036004018190555060038060050160006101000a81548160ff021916908360ff1602179055506202a3006003600601819055506005600360070160006101000a81548160ff021916908360ff160217905550600a6003600801819055506064600360090181905550673782dace9d9000006003600a01819055506000601581905550600060178190555080601860006101000a81548173ffffffffffffffffffffffffffffffffffffffff021916908373ffffffffffffffffffffffffffffffffffffffff1602179055505084601960006101000a81548173ffffffffffffffffffffffffffffffffffffffff021916908373ffffffffffffffffffffffffffffffffffffffff160217905550668700cc75770000600360000181905550673782dace9d900000600360020181905550600083141562000260576401c4fecc00601a8190555062000268565b82601a819055505b600060ff168160ff1614156200029a576005601b60016101000a81548160ff021916908360ff160217905550620002b6565b80601b60016101000a81548160ff021916908360ff1602179055505b81601b60006101000a81548160ff02191690831515021790555066b1a2bc2ec50000601c819055506064601d60006101000a81548160ff021916908360ff1602179055505050505050615a6f806200030f6000396000f300608060405260043610610271576000357c0100000000000000000000000000000000000000000000000000000000900463ffffffff1680620f987f146102735780630dbf0021146102a45780630e53aae91461030857806316f0115b1461038b57806319aa7625146103e25780631aff0596146103f95780631de565d6146104245780632b47f5ce1461047b5780632dcfcd5f146104e45780633c7e7d28146104fb5780633c8deaca146105525780634dc621fa146105695780634fe89efe1461059a57806352372777146105f857806356189236146106275780635690d0d914610652578063604919ea146106c5578063718da7ee146106f457806379ba50971461073757806381d12c581461074e57806389035730146107c457806389d0cd06146108545780638b3c99e31461086b5780638da5cb5b14610898578063930f34fd146108ef578063973e9b8b1461091c5780639a6c614e146109475780639d26d1ca14610978578063a01177cd146109a3578063a3ec138d146109ba578063a846c2fd14610a11578063a888c2cd14610a52578063b129273f14610a93578063b688a36314610ae2578063bc89b1cf14610b00578063be1d68ad14610b2b578063c0521d7614610b82578063c349026314610be6578063c52380e914610c35578063c9d27afe14610c8c578063ced32b0c14610cc5578063cf7c436714610d08578063d0d8074a14610d5f578063d13319c414610d8a578063d4ee1d9014610e1a578063db595b3b14610e71578063db85d59c14610e9c578063dd52c33814610f1a578063deb8386a14610f45578063dfefadff14610f70578063f2fde38b14611009578063f4ab9adf1461104c575b005b34801561027f57600080fd5b5061028861108f565b604051808260ff1660ff16815260200191505060405180910390f35b3480156102b057600080fd5b506102b96113aa565b604051808373ffffffffffffffffffffffffffffffffffffffff1673ffffffffffffffffffffffffffffffffffffffff1681526020018260ff1660ff1681526020019250505060405180910390f35b34801561031457600080fd5b50610349600480360381019080803573ffffffffffffffffffffffffffffffffffffffff1690602001909291905050506116da565b604051808273ffffffffffffffffffffffffffffffffffffffff1673ffffffffffffffffffffffffffffffffffffffff16815260200191505060405180910390f35b34801561039757600080fd5b506103a061170d565b604051808273ffffffffffffffffffffffffffffffffffffffff1673ffffffffffffffffffffffffffffffffffffffff16815260200191505060405180910390f35b3480156103ee57600080fd5b506103f7611733565b005b34801561040557600080fd5b5061040e611745565b6040518082815260200191505060405180910390f35b34801561043057600080fd5b5061043961178c565b604051808273ffffffffffffffffffffffffffffffffffffffff1673ffffffffffffffffffffffffffffffffffffffff16815260200191505060405180910390f35b34801561048757600080fd5b506104e2600480360381019080803590602001908201803590602001908080601f01602080910402602001604051908101604052809392919081815260200183838082843782019150505050505091929192905050506117b2565b005b3480156104f057600080fd5b506104f96117c6565b005b34801561050757600080fd5b5061053c600480360381019080803573ffffffffffffffffffffffffffffffffffffffff169060200190929190505050611812565b6040518082815260200191505060405180910390f35b34801561055e57600080fd5b5061056761182a565b005b34801561057557600080fd5b5061057e611876565b604051808260ff1660ff16815260200191505060405180910390f35b3480156105a657600080fd5b506105af611889565b604051808373ffffffffffffffffffffffffffffffffffffffff1673ffffffffffffffffffffffffffffffffffffffff1681526020018281526020019250505060405180910390f35b34801561060457600080fd5b5061060d611949565b604051808215151515815260200191505060405180910390f35b34801561063357600080fd5b5061063c61195c565b6040518082815260200191505060405180910390f35b34801561065e57600080fd5b506106c360048036038101908080359060200190929190803590602001908201803590602001908080601f0160208091040260200160405190810160405280939291908181526020018383808284378201915050505050509192919290505050611b42565b005b3480156106d157600080fd5b506106da611b8b565b604051808215151515815260200191505060405180910390f35b34801561070057600080fd5b50610735600480360381019080803573ffffffffffffffffffffffffffffffffffffffff169060200190929190505050611ba8565b005b34801561074357600080fd5b5061074c611d18565b005b34801561075a57600080fd5b5061077960048036038101908080359060200190929190505050611eb7565b604051808781526020018681526020018581526020018460ff1660ff1681526020018360ff1660ff1681526020018260ff1660ff168152602001965050505050505060405180910390f35b3480156107d057600080fd5b506107d9611f1a565b604051808d81526020018c81526020018b81526020018a60ff1660ff1681526020018960ff1660ff1681526020018881526020018760ff1660ff1681526020018681526020018560ff1660ff1681526020018481526020018381526020018281526020019c5050505050505050505050505060405180910390f35b34801561086057600080fd5b50610869611f9c565b005b34801561087757600080fd5b50610896600480360381019080803590602001909291905050506121d1565b005b3480156108a457600080fd5b506108ad612ce4565b604051808273ffffffffffffffffffffffffffffffffffffffff1673ffffffffffffffffffffffffffffffffffffffff16815260200191505060405180910390f35b3480156108fb57600080fd5b5061091a60048036038101908080359060200190929190505050612d09565b005b34801561092857600080fd5b50610931612ed7565b6040518082815260200191505060405180910390f35b34801561095357600080fd5b5061095c61300a565b604051808260ff1660ff16815260200191505060405180910390f35b34801561098457600080fd5b5061098d61301d565b6040518082815260200191505060405180910390f35b3480156109af57600080fd5b506109b8613064565b005b3480156109c657600080fd5b506109fb600480360381019080803573ffffffffffffffffffffffffffffffffffffffff169060200190929190505050613197565b6040518082815260200191505060405180910390f35b348015610a1d57600080fd5b50610a3c600480360381019080803590602001909291905050506131af565b6040518082815260200191505060405180910390f35b348015610a5e57600080fd5b50610a7d600480360381019080803590602001909291905050506131c7565b6040518082815260200191505060405180910390f35b348015610a9f57600080fd5b50610ac860048036038101908080359060200190929190803590602001909291905050506131ea565b604051808215151515815260200191505060405180910390f35b610aea613320565b6040518082815260200191505060405180910390f35b348015610b0c57600080fd5b50610b15613897565b6040518082815260200191505060405180910390f35b348015610b3757600080fd5b50610b6c600480360381019080803573ffffffffffffffffffffffffffffffffffffffff16906020019092919050505061389d565b6040518082815260200191505060405180910390f35b348015610b8e57600080fd5b50610bd0600480360381019080803573ffffffffffffffffffffffffffffffffffffffff169060200190929190803560ff1690602001909291905050506138b5565b6040518082815260200191505060405180910390f35b348015610bf257600080fd5b50610c1b6004803603810190808035906020019092919080359060200190929190505050613a83565b604051808215151515815260200191505060405180910390f35b348015610c4157600080fd5b50610c76600480360381019080803573ffffffffffffffffffffffffffffffffffffffff169060200190929190505050613ff0565b6040518082815260200191505060405180910390f35b348015610c9857600080fd5b50610cc360048036038101908080359060200190929190803515159060200190929190505050614008565b005b348015610cd157600080fd5b50610d06600480360381019080803573ffffffffffffffffffffffffffffffffffffffff169060200190929190505050614210565b005b348015610d1457600080fd5b50610d5d600480360381019080803573ffffffffffffffffffffffffffffffffffffffff1690602001909291908035906020019092919080359060200190929190505050614380565b005b348015610d6b57600080fd5b50610d7461464e565b6040518082815260200191505060405180910390f35b348015610d9657600080fd5b50610d9f614654565b6040518080602001828103825283818151815260200191508051906020019080838360005b83811015610ddf578082015181840152602081019050610dc4565b50505050905090810190601f168015610e0c5780820380516001836020036101000a031916815260200191505b509250505060405180910390f35b348015610e2657600080fd5b50610e2f6147bc565b604051808273ffffffffffffffffffffffffffffffffffffffff1673ffffffffffffffffffffffffffffffffffffffff16815260200191505060405180910390f35b348015610e7d57600080fd5b50610e866147e2565b6040518082815260200191505060405180910390f35b348015610ea857600080fd5b50610ec760048036038101908080359060200190929190505050614b48565b604051808981526020018881526020018781526020018681526020018581526020018481526020018360ff1660ff1681526020018260ff1660ff1681526020019850505050505050505060405180910390f35b348015610f2657600080fd5b50610f2f614baa565b6040518082815260200191505060405180910390f35b348015610f5157600080fd5b50610f5a614bbb565b6040518082815260200191505060405180910390f35b348015610f7c57600080fd5b50610f9b60048036038101908080359060200190929190505050614bc1565b604051808681526020018573ffffffffffffffffffffffffffffffffffffffff1673ffffffffffffffffffffffffffffffffffffffff1681526020018460ff1660ff1681526020018360ff1660ff168152602001821515151581526020019550505050505060405180910390f35b34801561101557600080fd5b5061104a600480360381019080803573ffffffffffffffffffffffffffffffffffffffff169060200190929190505050614c4d565b005b34801561105857600080fd5b5061108d600480360381019080803573ffffffffffffffffffffffffffffffffffffffff169060200190929190505050614d45565b005b60008060008060008060008060008060006110a861195c565b995060008a141515156110ba57600080fd5b601860009054906101000a900473ffffffffffffffffffffffffffffffffffffffff1673ffffffffffffffffffffffffffffffffffffffff1663cc933f9d338c6040518363ffffffff167c0100000000000000000000000000000000000000000000000000000000028152600401808373ffffffffffffffffffffffffffffffffffffffff1673ffffffffffffffffffffffffffffffffffffffff16815260200182815260200192505050602060405180830381600087803b15801561117f57600080fd5b505af1158015611193573d6000803e3d6000fd5b505050506040513d60208110156111a957600080fd5b810190808051906020019092919050505015156111c557600080fd5b600260058111156111d257fe5b601060008c815260200190815260200160002060060160019054906101000a900460ff1660ff1614151561120557600080fd5b601260008b81526020019081526020016000209850601060008b81526020019081526020016000206003015497508860030160009054906101000a900460ff1696508860030160019054906101000a900460ff1695506000945060646003800160019054906101000a900460ff1660ff168a600001540281151561128557fe5b0493503073ffffffffffffffffffffffffffffffffffffffff163192504289600201548a6001015401109150600360070160009054906101000a900460ff1660ff168960030160019054906101000a900460ff168a60030160009054906101000a900460ff160160ff161490508115611301576002945061130d565b801561130c57600194505b5b60009a5060028081111561131d57fe5b85600281111561132957fe5b148061134b57506001600281111561133d57fe5b85600281111561134957fe5b145b1561139d578560ff168760ff161180156113655750828411155b156113735760019a5061139c565b8560ff168760ff161480156113885750828811155b156113965760029a5061139b565b60039a505b5b5b5050505050505050505090565b6000806000806000806000809054906101000a900473ffffffffffffffffffffffffffffffffffffffff169550600094506000601860009054906101000a900473ffffffffffffffffffffffffffffffffffffffff1673ffffffffffffffffffffffffffffffffffffffff166323845e4b6040518163ffffffff167c0100000000000000000000000000000000000000000000000000000000028152600401602060405180830381600087803b15801561146357600080fd5b505af1158015611477573d6000803e3d6000fd5b505050506040513d602081101561148d57600080fd5b810190808051906020019092919050505014156114ad57606494506116d2565b6000601160003373ffffffffffffffffffffffffffffffffffffffff1673ffffffffffffffffffffffffffffffffffffffff168152602001908152602001600020541415156114ff57600594506116d2565b61150761195c565b935060008414156116005761151a611745565b9250600e60003373ffffffffffffffffffffffffffffffffffffffff1673ffffffffffffffffffffffffffffffffffffffff168152602001908152602001600020549150611566612ed7565b90506000831480156115785750600082145b1561158657600194506115fb565b600083141580156115975750600082145b156115a557600294506115fa565b6000831480156115b6575060008214155b80156115c25750600081145b156115d057600394506115f9565b6000831480156115e1575060008214155b80156115ee575060008114155b156115f857600494505b5b5b5b6116d1565b6000600581111561160d57fe5b6010600086815260200190815260200160002060060160019054906101000a900460ff1660ff16141561164357600a94506116d0565b6001600581111561165057fe5b6010600086815260200190815260200160002060060160019054906101000a900460ff1660ff16141561168657600b94506116cf565b6002600581111561169357fe5b6010600086815260200190815260200160002060060160019054906101000a900460ff1660ff1614156116ce576116c861108f565b60140194505b5b5b5b5b505050509091565b60026020528060005260406000206000915054906101000a900473ffffffffffffffffffffffffffffffffffffffff1681565b601860009054906101000a900473ffffffffffffffffffffffffffffffffffffffff1681565b61174361173e61195c565b6121d1565b565b6000601360003373ffffffffffffffffffffffffffffffffffffffff1673ffffffffffffffffffffffffffffffffffffffff16815260200190815260200160002054905090565b601960009054906101000a900473ffffffffffffffffffffffffffffffffffffffff1681565b6117c36117bd61195c565b82611b42565b50565b611810601160003373ffffffffffffffffffffffffffffffffffffffff1673ffffffffffffffffffffffffffffffffffffffff168152602001908152602001600020546000614008565b565b600e6020528060005260406000206000915090505481565b611874601160003373ffffffffffffffffffffffffffffffffffffffff1673ffffffffffffffffffffffffffffffffffffffff168152602001908152602001600020546001614008565b565b601d60009054906101000a900460ff1681565b600080600080925060009150600060155414156118a557611944565b600190505b601480549050811015611943576014818154811015156118c657fe5b906000526020600020906002020160010160169054906101000a900460ff161515611936576014818154811015156118fa57fe5b906000526020600020906002020160010160009054906101000a900473ffffffffffffffffffffffffffffffffffffffff169250809150611944565b80806001019150506118aa565b5b509091565b601b60009054906101000a900460ff1681565b600060606000809054906101000a900473ffffffffffffffffffffffffffffffffffffffff1673ffffffffffffffffffffffffffffffffffffffff163373ffffffffffffffffffffffffffffffffffffffff1614156119be5760009150611b3e565b601860009054906101000a900473ffffffffffffffffffffffffffffffffffffffff1673ffffffffffffffffffffffffffffffffffffffff1663a780b22e336040518263ffffffff167c0100000000000000000000000000000000000000000000000000000000028152600401808273ffffffffffffffffffffffffffffffffffffffff1673ffffffffffffffffffffffffffffffffffffffff168152602001915050600060405180830381600087803b158015611a7b57600080fd5b505af1158015611a8f573d6000803e3d6000fd5b505050506040513d6000823e3d601f19601f820116820180604052506020811015611ab957600080fd5b810190808051640100000000811115611ad157600080fd5b82810190506020810184811115611ae757600080fd5b8151856020820283011164010000000082111715611b0457600080fd5b505092919050505090506000815111611b1e576000611b3b565b806001825103815181101515611b3057fe5b906020019060200201515b91505b5090565b6000339050601b60019054906101000a900460ff1660ff16611b708260016005811115611b6b57fe5b6138b5565b101515611b7c57600080fd5b611b868383615020565b505050565b6000611ba3611b9861195c565b6003600a0154613a83565b905090565b6000809054906101000a900473ffffffffffffffffffffffffffffffffffffffff1673ffffffffffffffffffffffffffffffffffffffff163373ffffffffffffffffffffffffffffffffffffffff16141515611c0057fe5b80600260003073ffffffffffffffffffffffffffffffffffffffff1673ffffffffffffffffffffffffffffffffffffffff16815260200190815260200160002060006101000a81548173ffffffffffffffffffffffffffffffffffffffff021916908373ffffffffffffffffffffffffffffffffffffffff1602179055507f88477ef2e6ee708c15e490fc6b373fe9ca955c32fc8679cd5b820323f20e2b9f3082604051808373ffffffffffffffffffffffffffffffffffffffff1673ffffffffffffffffffffffffffffffffffffffff1681526020018273ffffffffffffffffffffffffffffffffffffffff1673ffffffffffffffffffffffffffffffffffffffff1681526020019250505060405180910390a150565b600160009054906101000a900473ffffffffffffffffffffffffffffffffffffffff1673ffffffffffffffffffffffffffffffffffffffff163373ffffffffffffffffffffffffffffffffffffffff16141515611d7457600080fd5b600160009054906101000a900473ffffffffffffffffffffffffffffffffffffffff1673ffffffffffffffffffffffffffffffffffffffff166000809054906101000a900473ffffffffffffffffffffffffffffffffffffffff1673ffffffffffffffffffffffffffffffffffffffff167f343765429aea5a34b3ff6a3785a98a5abb2597aca87bfbb58632c173d585373a60405160405180910390a3600160009054906101000a900473ffffffffffffffffffffffffffffffffffffffff166000806101000a81548173ffffffffffffffffffffffffffffffffffffffff021916908373ffffffffffffffffffffffffffffffffffffffff1602179055506000600160006101000a81548173ffffffffffffffffffffffffffffffffffffffff021916908373ffffffffffffffffffffffffffffffffffffffff160217905550565b60126020528060005260406000206000915090508060000154908060010154908060020154908060030160009054906101000a900460ff16908060030160019054906101000a900460ff16908060030160029054906101000a900460ff16905086565b60038060000154908060010154908060020154908060030160009054906101000a900460ff16908060030160019054906101000a900460ff16908060040154908060050160009054906101000a900460ff16908060060154908060070160009054906101000a900460ff169080600801549080600901549080600a015490508c565b60008060009054906101000a900473ffffffffffffffffffffffffffffffffffffffff1673ffffffffffffffffffffffffffffffffffffffff163373ffffffffffffffffffffffffffffffffffffffff16141515611ff657fe5b601860009054906101000a900473ffffffffffffffffffffffffffffffffffffffff1673ffffffffffffffffffffffffffffffffffffffff16630ff4c91660006040518263ffffffff167c010000000000000000000000000000000000000000000000000000000002815260040180828152602001915050602060405180830381600087803b15801561208857600080fd5b505af115801561209c573d6000803e3d6000fd5b505050506040513d60208110156120b257600080fd5b81019080805190602001909291905050509050600081141515156120d557600080fd5b601860009054906101000a900473ffffffffffffffffffffffffffffffffffffffff1673ffffffffffffffffffffffffffffffffffffffff16637b8d56e36000806040518363ffffffff167c01000000000000000000000000000000000000000000000000000000000281526004018083815260200182815260200192505050600060405180830381600087803b15801561216f57600080fd5b505af1158015612183573d6000803e3d6000fd5b505050503373ffffffffffffffffffffffffffffffffffffffff166108fc829081150290604051600060405180830381858888f193505050501580156121cd573d6000803e3d6000fd5b5050565b6000806000806121df6157f0565b60008087141515156121f057600080fd5b601860009054906101000a900473ffffffffffffffffffffffffffffffffffffffff1673ffffffffffffffffffffffffffffffffffffffff1663cc933f9d33896040518363ffffffff167c0100000000000000000000000000000000000000000000000000000000028152600401808373ffffffffffffffffffffffffffffffffffffffff1673ffffffffffffffffffffffffffffffffffffffff16815260200182815260200192505050602060405180830381600087803b1580156122b557600080fd5b505af11580156122c9573d6000803e3d6000fd5b505050506040513d60208110156122df57600080fd5b810190808051906020019092919050505015156122fb57600080fd5b6002600581111561230857fe5b6010600089815260200190815260200160002060060160019054906101000a900460ff1660ff1614151561233b57600080fd5b601260008881526020019081526020016000209550428660020154876001015401109450600360070160009054906101000a900460ff1660ff168660030160019054906101000a900460ff168760030160009054906101000a900460ff160160ff1614935084806123a95750835b15156123b457600080fd5b60646003800160019054906101000a900460ff1660ff168760000154028115156123da57fe5b0492508560030160019054906101000a900460ff1660ff168660030160009054906101000a900460ff1660ff161180156124e45750601860009054906101000a900473ffffffffffffffffffffffffffffffffffffffff1673ffffffffffffffffffffffffffffffffffffffff166329a40d6388856040518363ffffffff167c01000000000000000000000000000000000000000000000000000000000281526004018083815260200182815260200192505050602060405180830381600087803b1580156124a857600080fd5b505af11580156124bc573d6000803e3d6000fd5b505050506040513d60208110156124d257600080fd5b81019080805190602001909291905050505b1561270c573373ffffffffffffffffffffffffffffffffffffffff166108fc849081150290604051600060405180830381858888f1935050505015801561252f573d6000803e3d6000fd5b506003600581111561253d57fe5b6010600089815260200190815260200160002060060160016101000a81548160ff021916908360ff160217905550826010600089815260200190815260200160002060040154016010600089815260200190815260200160002060040181905550601860009054906101000a900473ffffffffffffffffffffffffffffffffffffffff1673ffffffffffffffffffffffffffffffffffffffff1663c17e19af88856040518363ffffffff167c01000000000000000000000000000000000000000000000000000000000281526004018083815260200182815260200192505050608060405180830381600087803b15801561263757600080fd5b505af115801561264b573d6000803e3d6000fd5b505050506040513d601f19601f82011682018060405250608081101561267057600080fd5b810190809190505091507f261826fbdc11ee0da48a5356542bcb46786deaed4c215b871d3df7a03652262d338885600360058111156126ab57fe5b604051808573ffffffffffffffffffffffffffffffffffffffff1673ffffffffffffffffffffffffffffffffffffffff1681526020018481526020018381526020018260ff1660ff16815260200194505050505060405180910390a1612bb8565b8560030160019054906101000a900460ff1660ff168660030160009054906101000a900460ff1660ff16148061277d5750600360050160009054906101000a900460ff1660ff168660030160019054906101000a900460ff168760030160009054906101000a900460ff160160ff16105b801561286f5750601860009054906101000a900473ffffffffffffffffffffffffffffffffffffffff1673ffffffffffffffffffffffffffffffffffffffff166329a40d6388601060008b8152602001908152602001600020600301546040518363ffffffff167c01000000000000000000000000000000000000000000000000000000000281526004018083815260200182815260200192505050602060405180830381600087803b15801561283357600080fd5b505af1158015612847573d6000803e3d6000fd5b505050506040513d602081101561285d57600080fd5b81019080805190602001909291905050505b15612aed573373ffffffffffffffffffffffffffffffffffffffff166108fc601060008a8152602001908152602001600020600301549081150290604051600060405180830381858888f193505050501580156128d0573d6000803e3d6000fd5b506005808111156128dd57fe5b6010600089815260200190815260200160002060060160016101000a81548160ff021916908360ff16021790555060106000888152602001908152602001600020600301546010600089815260200190815260200160002060040154016010600089815260200190815260200160002060040181905550601860009054906101000a900473ffffffffffffffffffffffffffffffffffffffff1673ffffffffffffffffffffffffffffffffffffffff1663c17e19af88601060008b8152602001908152602001600020600301546040518363ffffffff167c01000000000000000000000000000000000000000000000000000000000281526004018083815260200182815260200192505050608060405180830381600087803b158015612a0357600080fd5b505af1158015612a17573d6000803e3d6000fd5b505050506040513d601f19601f820116820180604052506080811015612a3c57600080fd5b810190809190505091507f261826fbdc11ee0da48a5356542bcb46786deaed4c215b871d3df7a03652262d3388601060008b815260200190815260200160002060030154600580811115612a8c57fe5b604051808573ffffffffffffffffffffffffffffffffffffffff1673ffffffffffffffffffffffffffffffffffffffff1681526020018481526020018381526020018260ff1660ff16815260200194505050505060405180910390a1612bb7565b60046005811115612afa57fe5b6010600089815260200190815260200160002060060160016101000a81548160ff021916908360ff1602179055507f261826fbdc11ee0da48a5356542bcb46786deaed4c215b871d3df7a03652262d3388600060046005811115612b5a57fe5b604051808573ffffffffffffffffffffffffffffffffffffffff1673ffffffffffffffffffffffffffffffffffffffff1681526020018481526020018381526020018260ff1660ff16815260200194505050505060405180910390a15b5b5b8560030160029054906101000a900460ff1660ff16811015612c5757601160008760040183600581101515612bea57fe5b0160009054906101000a900473ffffffffffffffffffffffffffffffffffffffff1673ffffffffffffffffffffffffffffffffffffffff1673ffffffffffffffffffffffffffffffffffffffff168152602001908152602001600020600090558080600101915050612bb9565b60126000888152602001908152602001600020600080820160009055600182016000905560028201600090556003820160006101000a81549060ff02191690556003820160016101000a81549060ff02191690556003820160026101000a81549060ff0219169055600482016000612ccf9190615813565b5050612cd96157f0565b915050505050505050565b6000809054906101000a900473ffffffffffffffffffffffffffffffffffffffff1681565b6000601860009054906101000a900473ffffffffffffffffffffffffffffffffffffffff1673ffffffffffffffffffffffffffffffffffffffff1663cc933f9d33846040518363ffffffff167c0100000000000000000000000000000000000000000000000000000000028152600401808373ffffffffffffffffffffffffffffffffffffffff1673ffffffffffffffffffffffffffffffffffffffff16815260200182815260200192505050602060405180830381600087803b158015612dd057600080fd5b505af1158015612de4573d6000803e3d6000fd5b505050506040513d6020811015612dfa57600080fd5b81019080805190602001909291905050501515612e1657600080fd5b60008214151515612e2657600080fd5b601e600083815260200190815260200160002054905060008114151515612e4c57600080fd5b60006010600084815260200190815260200160002060040154141515612e7157600080fd5b8060106000848152602001908152602001600020600401819055503373ffffffffffffffffffffffffffffffffffffffff166108fc829081150290604051600060405180830381858888f19350505050158015612ed2573d6000803e3d6000fd5b505050565b6000601960009054906101000a900473ffffffffffffffffffffffffffffffffffffffff1673ffffffffffffffffffffffffffffffffffffffff1663dd62ed3e33306040518363ffffffff167c0100000000000000000000000000000000000000000000000000000000028152600401808373ffffffffffffffffffffffffffffffffffffffff1673ffffffffffffffffffffffffffffffffffffffff1681526020018273ffffffffffffffffffffffffffffffffffffffff1673ffffffffffffffffffffffffffffffffffffffff16815260200192505050602060405180830381600087803b158015612fca57600080fd5b505af1158015612fde573d6000803e3d6000fd5b505050506040513d6020811015612ff457600080fd5b8101908080519060200190929190505050905090565b601b60019054906101000a900460ff1681565b6000600e60003373ffffffffffffffffffffffffffffffffffffffff1673ffffffffffffffffffffffffffffffffffffffff16815260200190815260200160002054905090565b6000806000809054906101000a900473ffffffffffffffffffffffffffffffffffffffff1673ffffffffffffffffffffffffffffffffffffffff163373ffffffffffffffffffffffffffffffffffffffff161415156130bf57fe5b6130c7611889565b8092508193505050600073ffffffffffffffffffffffffffffffffffffffff168273ffffffffffffffffffffffffffffffffffffffff161415801561310d575060008114155b156131935761312782600360090154600360000154614380565b7fa2b47dc564bd9b8719fa8435590eb01665bade49e1fa4890022587a074d9e4268282604051808373ffffffffffffffffffffffffffffffffffffffff1673ffffffffffffffffffffffffffffffffffffffff1681526020018281526020019250505060405180910390a15b5050565b60116020528060005260406000206000915090505481565b601e6020528060005260406000206000915090505481565b6016818154811015156131d657fe5b906000526020600020016000915090505481565b6000806000809054906101000a900473ffffffffffffffffffffffffffffffffffffffff1673ffffffffffffffffffffffffffffffffffffffff163373ffffffffffffffffffffffffffffffffffffffff1614151561324557fe5b6000841415151561325557600080fd5b6000831415151561326557600080fd5b6064601d60009054906101000a900460ff1660ff166003600001540281151561328a57fe5b04831115151561329957600080fd5b600060106000868152602001908152602001600020600401541415156132be57600080fd5b6010600085815260200190815260200160002060020154601060008681526020019081526020016000206001015401905042811015156132fd57600080fd5b82601e600086815260200190815260200160002081905550600191505092915050565b6000806000806000806000349550339450600f60008673ffffffffffffffffffffffffffffffffffffffff1673ffffffffffffffffffffffffffffffffffffffff1681526020019081526020016000205493506000841415151561338357600080fd5b601b60009054906101000a900460ff161580156133a05750600034145b1561381257600073ffffffffffffffffffffffffffffffffffffffff16601960009054906101000a900473ffffffffffffffffffffffffffffffffffffffff1673ffffffffffffffffffffffffffffffffffffffff161415151561340357600080fd5b6000601a541415151561341557600080fd5b601960009054906101000a900473ffffffffffffffffffffffffffffffffffffffff1673ffffffffffffffffffffffffffffffffffffffff1663dd62ed3e86306040518363ffffffff167c0100000000000000000000000000000000000000000000000000000000028152600401808373ffffffffffffffffffffffffffffffffffffffff1673ffffffffffffffffffffffffffffffffffffffff1681526020018273ffffffffffffffffffffffffffffffffffffffff1673ffffffffffffffffffffffffffffffffffffffff16815260200192505050602060405180830381600087803b15801561350657600080fd5b505af115801561351a573d6000803e3d6000fd5b505050506040513d602081101561353057600080fd5b81019080805190602001909291905050509250601960009054906101000a900473ffffffffffffffffffffffffffffffffffffffff1673ffffffffffffffffffffffffffffffffffffffff1663313ce5676040518163ffffffff167c0100000000000000000000000000000000000000000000000000000000028152600401602060405180830381600087803b1580156135c957600080fd5b505af11580156135dd573d6000803e3d6000fd5b505050506040513d60208110156135f357600080fd5b810190808051906020019092919050505060ff169150601a54831015151561361a57600080fd5b600e60008673ffffffffffffffffffffffffffffffffffffffff1673ffffffffffffffffffffffffffffffffffffffff168152602001908152602001600020549550601c5483029050600160ff168210151561368b5781806001900392505081600a0a8181151561368757fe5b0490505b8581101580156136a057506003600001548610155b15156136ab57600080fd5b601960009054906101000a900473ffffffffffffffffffffffffffffffffffffffff1673ffffffffffffffffffffffffffffffffffffffff166323b872dd866000809054906101000a900473ffffffffffffffffffffffffffffffffffffffff16601a546040518463ffffffff167c0100000000000000000000000000000000000000000000000000000000028152600401808473ffffffffffffffffffffffffffffffffffffffff1673ffffffffffffffffffffffffffffffffffffffff1681526020018373ffffffffffffffffffffffffffffffffffffffff1673ffffffffffffffffffffffffffffffffffffffff1681526020018281526020019350505050602060405180830381600087803b1580156137c757600080fd5b505af11580156137db573d6000803e3d6000fd5b505050506040513d60208110156137f157600080fd5b8101908080519060200190929190505050151561380d57600080fd5b613881565b6000861415801561382857506003600001548610155b151561383357600080fd5b600e60008673ffffffffffffffffffffffffffffffffffffffff1673ffffffffffffffffffffffffffffffffffffffff168152602001908152602001600020548614151561388057600080fd5b5b61388c858588615431565b965050505050505090565b601c5481565b60136020528060005260406000206000915090505481565b600060606000601860009054906101000a900473ffffffffffffffffffffffffffffffffffffffff1673ffffffffffffffffffffffffffffffffffffffff1663a780b22e866040518263ffffffff167c0100000000000000000000000000000000000000000000000000000000028152600401808273ffffffffffffffffffffffffffffffffffffffff1673ffffffffffffffffffffffffffffffffffffffff168152602001915050600060405180830381600087803b15801561397857600080fd5b505af115801561398c573d6000803e3d6000fd5b505050506040513d6000823e3d601f19601f8201168201806040525060208110156139b657600080fd5b8101908080516401000000008111156139ce57600080fd5b828101905060208101848111156139e457600080fd5b8151856020820283011164010000000082111715613a0157600080fd5b5050929190505050915060009250600090505b8151811015613a7b578360ff16601060008484815181101515613a3357fe5b90602001906020020151815260200190815260200160002060060160019054906101000a900460ff1660ff161415613a6e5782806001019350505b8080600101915050613a14565b505092915050565b6000806000808514151515613a9757600080fd5b601860009054906101000a900473ffffffffffffffffffffffffffffffffffffffff1673ffffffffffffffffffffffffffffffffffffffff1663cc933f9d33876040518363ffffffff167c0100000000000000000000000000000000000000000000000000000000028152600401808373ffffffffffffffffffffffffffffffffffffffff1673ffffffffffffffffffffffffffffffffffffffff16815260200182815260200192505050602060405180830381600087803b158015613b5c57600080fd5b505af1158015613b70573d6000803e3d6000fd5b505050506040513d6020811015613b8657600080fd5b81019080805190602001909291905050501515613ba257600080fd5b60008414151515613bb257600080fd5b60016005811115613bbf57fe5b6010600087815260200190815260200160002060060160019054906101000a900460ff1660ff16141515613bf257600080fd5b6003800160009054906101000a900460ff1660ff166010600087815260200190815260200160002060060160009054906101000a900460ff1660ff16101515613c3a57600080fd5b60646003800160019054906101000a900460ff1660ff168502811515613c5c57fe5b0491506003600401548260106000888152602001908152602001600020600401540111151515613c8b57600080fd5b60106000868152602001908152602001600020600201546010600087815260200190815260200160002060010154019050428110151515613ccb57600080fd5b60e0604051908101604052808581526020014281526020016003600601548152602001600060ff168152602001600060ff168152602001600060ff16815260200160a060405190810160405280600073ffffffffffffffffffffffffffffffffffffffff1673ffffffffffffffffffffffffffffffffffffffff168152602001600073ffffffffffffffffffffffffffffffffffffffff1673ffffffffffffffffffffffffffffffffffffffff168152602001600073ffffffffffffffffffffffffffffffffffffffff1673ffffffffffffffffffffffffffffffffffffffff168152602001600073ffffffffffffffffffffffffffffffffffffffff1673ffffffffffffffffffffffffffffffffffffffff168152602001600073ffffffffffffffffffffffffffffffffffffffff1673ffffffffffffffffffffffffffffffffffffffff168152508152506012600087815260200190815260200160002060008201518160000155602082015181600101556040820151816002015560608201518160030160006101000a81548160ff021916908360ff16021790555060808201518160030160016101000a81548160ff021916908360ff16021790555060a08201518160030160026101000a81548160ff021916908360ff16021790555060c082015181600401906005613ec3929190615836565b5090505060106000868152602001908152602001600020600601600081819054906101000a900460ff168092919060010191906101000a81548160ff021916908360ff1602179055505060026005811115613f1a57fe5b6010600087815260200190815260200160002060060160016101000a81548160ff021916908360ff16021790555060168590806001815401808255809150509060018203906000526020600020016000909192909190915055507fb3ef0c14cd9ed6533151b9a921ddb33f8716dd3593254ffc741ae770313e3bea85856010600089815260200190815260200160002060060160009054906101000a900460ff16604051808481526020018381526020018260ff1660ff168152602001935050505060405180910390a160019250505092915050565b600f6020528060005260406000206000915090505481565b6000806000841415151561401b57600080fd5b601160003373ffffffffffffffffffffffffffffffffffffffff1673ffffffffffffffffffffffffffffffffffffffff168152602001908152602001600020548414151561406857600080fd5b6002600581111561407557fe5b60ff166010600086815260200190815260200160002060060160019054906101000a900460ff1660ff161415156140ab57600080fd5b601260008581526020019081526020016000209150816002015482600101540190504281101515156140dc57600080fd5b821561411b5781600301600081819054906101000a900460ff168092919060010191906101000a81548160ff021916908360ff16021790555050614150565b81600301600181819054906101000a900460ff168092919060010191906101000a81548160ff021916908360ff160217905550505b601160003373ffffffffffffffffffffffffffffffffffffffff1673ffffffffffffffffffffffffffffffffffffffff168152602001908152602001600020600090557f8d85a70fd2c5d140a4a01143492d27ff82cfad4cead313e66c53f39b0feb5e0f338585604051808473ffffffffffffffffffffffffffffffffffffffff1673ffffffffffffffffffffffffffffffffffffffff16815260200183815260200182151515158152602001935050505060405180910390a150505050565b6000809054906101000a900473ffffffffffffffffffffffffffffffffffffffff1673ffffffffffffffffffffffffffffffffffffffff163373ffffffffffffffffffffffffffffffffffffffff1614151561426857fe5b30600260008373ffffffffffffffffffffffffffffffffffffffff1673ffffffffffffffffffffffffffffffffffffffff16815260200190815260200160002060006101000a81548173ffffffffffffffffffffffffffffffffffffffff021916908373ffffffffffffffffffffffffffffffffffffffff1602179055507f25245aeb6dcc1afb9053581af7e6b984f2191e80b27c263b11c45d821a566a538130604051808373ffffffffffffffffffffffffffffffffffffffff1673ffffffffffffffffffffffffffffffffffffffff1681526020018273ffffffffffffffffffffffffffffffffffffffff1673ffffffffffffffffffffffffffffffffffffffff1681526020019250505060405180910390a150565b60008060009054906101000a900473ffffffffffffffffffffffffffffffffffffffff1673ffffffffffffffffffffffffffffffffffffffff163373ffffffffffffffffffffffffffffffffffffffff161415156143da57fe5b600073ffffffffffffffffffffffffffffffffffffffff168473ffffffffffffffffffffffffffffffffffffffff161415151561441657600080fd5b6000831415151561442657600080fd5b6000821415801561443c57506003600001548210155b151561444757600080fd5b81600e60008673ffffffffffffffffffffffffffffffffffffffff1673ffffffffffffffffffffffffffffffffffffffff1681526020019081526020016000208190555082600f60008673ffffffffffffffffffffffffffffffffffffffff1673ffffffffffffffffffffffffffffffffffffffff16815260200190815260200160002081905550601360008573ffffffffffffffffffffffffffffffffffffffff1673ffffffffffffffffffffffffffffffffffffffff16815260200190815260200160002054905060008114158015614526575060148054905081105b156145d557600160148281548110151561453c57fe5b906000526020600020906002020160010160166101000a81548160ff021916908315150217905550601360008573ffffffffffffffffffffffffffffffffffffffff1673ffffffffffffffffffffffffffffffffffffffff1681526020019081526020016000206000905560156000815480929190600190039190505550600060155414156145d457601460006145d391906158b3565b5b5b7f21619a95128e7e5c5367774b6479b6edbc059210239e39bbd50dbae00cfe0972848484604051808473ffffffffffffffffffffffffffffffffffffffff1673ffffffffffffffffffffffffffffffffffffffff168152602001838152602001828152602001935050505060405180910390a150505050565b601a5481565b6060601860009054906101000a900473ffffffffffffffffffffffffffffffffffffffff1673ffffffffffffffffffffffffffffffffffffffff1663c97dcba9601160003373ffffffffffffffffffffffffffffffffffffffff1673ffffffffffffffffffffffffffffffffffffffff168152602001908152602001600020546040518263ffffffff167c010000000000000000000000000000000000000000000000000000000002815260040180828152602001915050600060405180830381600087803b15801561472657600080fd5b505af115801561473a573d6000803e3d6000fd5b505050506040513d6000823e3d601f19601f82011682018060405250602081101561476457600080fd5b81019080805164010000000081111561477c57600080fd5b8281019050602081018481111561479257600080fd5b81518560018202830111640100000000821117156147af57600080fd5b5050929190505050905090565b600160009054906101000a900473ffffffffffffffffffffffffffffffffffffffff1681565b60006147ec6158d7565b601360003373ffffffffffffffffffffffffffffffffffffffff1673ffffffffffffffffffffffffffffffffffffffff1681526020019081526020016000205491506000821480156148445750600360080154601554105b15614b445760a0604051908101604052804281526020013373ffffffffffffffffffffffffffffffffffffffff168152602001600160ff168152602001600060ff1681526020016000151581525090506001601482908060018154018082558091505090600182039060005260206000209060020201600090919290919091506000820151816000015560208201518160010160006101000a81548173ffffffffffffffffffffffffffffffffffffffff021916908373ffffffffffffffffffffffffffffffffffffffff16021790555060408201518160010160146101000a81548160ff021916908360ff16021790555060608201518160010160156101000a81548160ff021916908360ff16021790555060808201518160010160166101000a81548160ff02191690831515021790555050500391506000821415614a6e576001601482908060018154018082558091505090600182039060005260206000209060020201600090919290919091506000820151816000015560208201518160010160006101000a81548173ffffffffffffffffffffffffffffffffffffffff021916908373ffffffffffffffffffffffffffffffffffffffff16021790555060408201518160010160146101000a81548160ff021916908360ff16021790555060608201518160010160156101000a81548160ff021916908360ff16021790555060808201518160010160166101000a81548160ff02191690831515021790555050500391505b8163ffffffff1682141515614a8257600080fd5b81601360003373ffffffffffffffffffffffffffffffffffffffff1673ffffffffffffffffffffffffffffffffffffffff168152602001908152602001600020819055506015600081548092919060010191905055507f59470163a7d3423114f115af31707633dd4930abac0f3662fc3c4ef323f39a863383604051808373ffffffffffffffffffffffffffffffffffffffff1673ffffffffffffffffffffffffffffffffffffffff1681526020018281526020019250505060405180910390a15b5090565b60106020528060005260406000206000915090508060000154908060010154908060020154908060030154908060040154908060050154908060060160009054906101000a900460ff16908060060160019054906101000a900460ff16905088565b600060175460168054905003905090565b60155481565b601481815481101515614bd057fe5b90600052602060002090600202016000915090508060000154908060010160009054906101000a900473ffffffffffffffffffffffffffffffffffffffff16908060010160149054906101000a900460ff16908060010160159054906101000a900460ff16908060010160169054906101000a900460ff16905085565b6000809054906101000a900473ffffffffffffffffffffffffffffffffffffffff1673ffffffffffffffffffffffffffffffffffffffff163373ffffffffffffffffffffffffffffffffffffffff16141515614ca557fe5b6000809054906101000a900473ffffffffffffffffffffffffffffffffffffffff1673ffffffffffffffffffffffffffffffffffffffff168173ffffffffffffffffffffffffffffffffffffffff1614151515614d0157600080fd5b80600160006101000a81548173ffffffffffffffffffffffffffffffffffffffff021916908373ffffffffffffffffffffffffffffffffffffffff16021790555050565b6000806000806000809054906101000a900473ffffffffffffffffffffffffffffffffffffffff1673ffffffffffffffffffffffffffffffffffffffff163373ffffffffffffffffffffffffffffffffffffffff16141515614da357fe5b601680549050601754101515614db857600080fd5b6016601754815481101515614dc957fe5b90600052602060002001549350600073ffffffffffffffffffffffffffffffffffffffff168573ffffffffffffffffffffffffffffffffffffffff1614151515614e1257600080fd5b60008414151515614e2257600080fd5b60026005811115614e2f57fe5b6010600086815260200190815260200160002060060160019054906101000a900460ff1660ff16141515614e6257600080fd5b6012600085815260200190815260200160002092506000836000015414151515614e8b57600080fd5b82600201548360010154019150428210151515614ea757600080fd5b8260030160029054906101000a900460ff169050600360070160009054906101000a900460ff1660ff168160ff16101515614ee157600080fd5b84836004018260ff16600581101515614ef657fe5b0160006101000a81548173ffffffffffffffffffffffffffffffffffffffff021916908373ffffffffffffffffffffffffffffffffffffffff16021790555082600301600281819054906101000a900460ff168092919060010191906101000a81548160ff021916908360ff1602179055505083601160008773ffffffffffffffffffffffffffffffffffffffff1673ffffffffffffffffffffffffffffffffffffffff16815260200190815260200160002081905550600360070160009054906101000a900460ff1660ff168360030160029054906101000a900460ff1660ff16141561501957601760008154809291906001019190505550601680549050601754141561501857600060178190555060006016816150169190615925565b505b5b5050505050565b6000821415151561503057600080fd5b601860009054906101000a900473ffffffffffffffffffffffffffffffffffffffff1673ffffffffffffffffffffffffffffffffffffffff1663cc933f9d33846040518363ffffffff167c0100000000000000000000000000000000000000000000000000000000028152600401808373ffffffffffffffffffffffffffffffffffffffff1673ffffffffffffffffffffffffffffffffffffffff16815260200182815260200192505050602060405180830381600087803b1580156150f557600080fd5b505af1158015615109573d6000803e3d6000fd5b505050506040513d602081101561511f57600080fd5b8101908080519060200190929190505050151561513b57600080fd5b600060106000848152602001908152602001600020600301541415151561516157600080fd5b6001600581111561516e57fe5b60ff166010600084815260200190815260200160002060060160019054906101000a900460ff1660ff16141515156151a557600080fd5b601860009054906101000a900473ffffffffffffffffffffffffffffffffffffffff1673ffffffffffffffffffffffffffffffffffffffff1663dda0d1db836040518263ffffffff167c010000000000000000000000000000000000000000000000000000000002815260040180828152602001915050600060405180830381600087803b15801561523657600080fd5b505af115801561524a573d6000803e3d6000fd5b505050506001600581111561525b57fe5b6010600084815260200190815260200160002060060160016101000a81548160ff021916908360ff160217905550426010600084815260200190815260200160002060010181905550601860009054906101000a900473ffffffffffffffffffffffffffffffffffffffff1673ffffffffffffffffffffffffffffffffffffffff16634908a55483836040518363ffffffff167c01000000000000000000000000000000000000000000000000000000000281526004018083815260200180602001828103825283818151815260200191508051906020019080838360005b8381101561535557808201518184015260208101905061533a565b50505050905090810190601f1680156153825780820380516001836020036101000a031916815260200191505b509350505050600060405180830381600087803b1580156153a257600080fd5b505af11580156153b6573d6000803e3d6000fd5b505050507ff5d2d36fd2c60192fd8f874c962737f1858ff797bf9865d071ade33eeee00701826010600085815260200190815260200160002060030154601060008681526020019081526020016000206005015460405180848152602001838152602001828152602001935050505060405180910390a15050565b600080601860009054906101000a900473ffffffffffffffffffffffffffffffffffffffff1673ffffffffffffffffffffffffffffffffffffffff1663ea81d62084876040518363ffffffff167c0100000000000000000000000000000000000000000000000000000000028152600401808381526020018273ffffffffffffffffffffffffffffffffffffffff1673ffffffffffffffffffffffffffffffffffffffff16815260200192505050602060405180830381600087803b1580156154f957600080fd5b505af115801561550d573d6000803e3d6000fd5b505050506040513d602081101561552357600080fd5b810190808051906020019092919050505090506101006040519081016040528042815260200160008152602001600360010154815260200184815260200160008152602001858152602001600060ff1681526020016000600581111561558557fe5b60ff1681525060106000838152602001908152602001600020600082015181600001556020820151816001015560408201518160020155606082015181600301556080820151816004015560a0820151816005015560c08201518160060160006101000a81548160ff021916908360ff16021790555060e08201518160060160016101000a81548160ff021916908360ff160217905550905050601860009054906101000a900473ffffffffffffffffffffffffffffffffffffffff1673ffffffffffffffffffffffffffffffffffffffff1663daa8d4f0826040518263ffffffff167c010000000000000000000000000000000000000000000000000000000002815260040180828152602001915050602060405180830381600087803b1580156156b057600080fd5b505af11580156156c4573d6000803e3d6000fd5b505050506040513d60208110156156da57600080fd5b8101908080519060200190929190505050507fbca387acb0ba7d06e329c4372885bb664f19a98153ccf3e74e56c136bf0e88c4858285604051808473ffffffffffffffffffffffffffffffffffffffff1673ffffffffffffffffffffffffffffffffffffffff168152602001838152602001828152602001935050505060405180910390a1600e60008673ffffffffffffffffffffffffffffffffffffffff1673ffffffffffffffffffffffffffffffffffffffff16815260200190815260200160002060009055600f60008673ffffffffffffffffffffffffffffffffffffffff1673ffffffffffffffffffffffffffffffffffffffff16815260200190815260200160002060009055809150509392505050565b608060405190810160405280600490602082028038833980820191505090505090565b506000815560010160008155600101600081556001016000815560010160009055565b82600581019282156158a2579160200282015b828111156158a15782518260006101000a81548173ffffffffffffffffffffffffffffffffffffffff021916908373ffffffffffffffffffffffffffffffffffffffff16021790555091602001919060010190615849565b5b5090506158af9190615951565b5090565b50805460008255600202906000526020600020908101906158d49190615994565b50565b60a06040519081016040528060008152602001600073ffffffffffffffffffffffffffffffffffffffff168152602001600060ff168152602001600060ff1681526020016000151581525090565b81548183558181111561594c5781836000526020600020918201910161594b9190615a1e565b5b505050565b61599191905b8082111561598d57600081816101000a81549073ffffffffffffffffffffffffffffffffffffffff021916905550600101615957565b5090565b90565b615a1b91905b80821115615a17576000808201600090556001820160006101000a81549073ffffffffffffffffffffffffffffffffffffffff02191690556001820160146101000a81549060ff02191690556001820160156101000a81549060ff02191690556001820160166101000a81549060ff02191690555060020161599a565b5090565b90565b615a4091905b80821115615a3c576000816000905550600101615a24565b5090565b905600a165627a7a72305820bf1420f8c0b0ac2637dc4d503a3f318d26e1a37382c047af8f73b381bde3d1940029",
  "source": "// \n// MIT License\n// \n// Copyright (c) 2018 REGA Risk Sharing\n//   \n// Permission is hereby granted, free of charge, to any person obtaining a copy\n// of this software and associated documentation files (the \"Software\"), to deal\n// in the Software without restriction, including without limitation the rights\n// to use, copy, modify, merge, publish, distribute, sublicense, and/or sell\n// copies of the Software, and to permit persons to whom the Software is\n// furnished to do so, subject to the following conditions:\n// \n// The above copyright notice and this permission notice shall be included in all\n// copies or substantial portions of the Software.\n// \n// THE SOFTWARE IS PROVIDED \"AS IS\", WITHOUT WARRANTY OF ANY KIND, EXPRESS OR\n// IMPLIED, INCLUDING BUT NOT LIMITED TO THE WARRANTIES OF MERCHANTABILITY,\n// FITNESS FOR A PARTICULAR PURPOSE AND NONINFRINGEMENT. IN NO EVENT SHALL THE\n// AUTHORS OR COPYRIGHT HOLDERS BE LIABLE FOR ANY CLAIM, DAMAGES OR OTHER\n// LIABILITY, WHETHER IN AN ACTION OF CONTRACT, TORT OR OTHERWISE, ARISING FROM,\n// OUT OF OR IN CONNECTION WITH THE SOFTWARE OR THE USE OR OTHER DEALINGS IN THE\n// SOFTWARE.\n// \n// Author: Sergei Sevriugin\n// Version: 0.0.1\n//  \n\npragma solidity ^0.4.17;\n\nimport \"./TokenCrowdsurance.sol\";\nimport \"./interfaces/IERC20Token.sol\";\n\n/// Luggage crowdsurance protection product based on TokenCrowdsurance NFT token \ncontract LuggageCrowdsurance is TokenCrowdsurance {\n    /// REGA Risk Sharing Token smart contract address\n    IERC20Token public  RST;                // RST smart contract address\n    uint256     public  joinAmountRST;      // Join amount in RST\n    bool        public  ETHOnly;            // Join only for RST tokens\n    uint8       public  maxHold;            // Maximum number of toikens for one address\n    uint256     public  rstETHRate;         // RST/ETH rate\n    uint8       public  paybackRatio;       // Payback ratio\n\n    mapping (uint256 => uint256) public payback;    // payback mapping\n    /// join function\n    /// @return cowdsuranceId NFT token ID for created crowdsurance\n    function join() public payable returns(uint256 cowdsuranceId) {\n        uint256 amount = msg.value;\n        address member = msg.sender;\n        uint256 score = addressToScore[member];\n        require(score != uint256(0));\n\n        if (!ETHOnly && msg.value == uint256(0)) {\n            // now need to check that the member has approved the transfer joinAmountRST to join\n            require(RST != address(0));                             // check that we have valid contract address\n            require(joinAmountRST != uint256(0));                   // join RST amount must be > 0\n            uint256 rstAmt = RST.allowance(member, this);           // check if the member has gave permision to spend some amount\n            uint256 rstDecimals = uint256(RST.decimals());          // need RST decimals to convert RST to ETH based on the convertion rate\n            require(rstAmt >= joinAmountRST);                       // ... and check if allowance is more then joinAmount\n            amount = addressToAmount[member];                       // get join amount and check...\n            uint256 rstAmtInETH = rstAmt * rstETHRate;              // ... and now calculate join amount from RST to ETH\n            if (rstDecimals >= uint8(1)) {                          // ... check if RST decimals is not 0\n                rstDecimals--;\n                rstAmtInETH = rstAmtInETH / (10 ** rstDecimals);    // ... and use decimals to convert RST to ETH\n            }\n            require(rstAmtInETH >= amount && amount >= parameters.joinAmount);\n            // transfer join RST amount to the owner account\n            require(RST.transferFrom(member, owner, joinAmountRST));\n        }\n        else {\n            require(amount != uint256(0) && amount >= parameters.joinAmount);\n            require(amount == addressToAmount[member]);\n        }\n        // call internal _join after all checkups \n        cowdsuranceId = _join(member, score, amount);\n    }\n    /// set payback amount function\n    /// @param _id crowdsurance token ID\n    /// @param _amount payback amount to set\n    /// @return true if successful \n    function setPayback(uint256 _id, uint256 _amount) ownerOnly public returns (bool) {\n        require(_id != uint256(0));\n        require(_amount != uint256(0));\n        require(_amount <= parameters.joinAmount * paybackRatio / 100);\n        require(extensions[_id].paid == uint256(0));\n        uint coverageEnd = extensions[_id].activated + extensions[_id].duration;\n        require(coverageEnd < now);\n        payback[_id] = _amount;\n        return true;\n    }\n    /// get payback function\n    /// @param _id luggage protection token to get payback\n    function getPayback(uint256 _id) public {\n        require(pool.connector_owns(msg.sender, _id));\n        require(_id != uint256(0));\n        uint256 _amount = payback[_id];\n        require(_amount != uint256(0));\n        require(extensions[_id].paid == uint256(0));\n        extensions[_id].paid = _amount;\n        msg.sender.transfer(_amount);\n    }\n    /// activate function \n    /// @param _id NFT token ID to activate\n    /// @param _hash activation hash\n    function activate(uint256 _id, string _hash) public {\n        address member = msg.sender;\n        // check if number of tokens is not more then maxHold\n        require(statusCount(member, uint8(Status.Active)) < maxHold);   \n        super.activate(_id, _hash);\n    }\n    function activateCurrent(string _hash) public {\n        activate(getCurrentTokenId(),_hash);\n    }\n    function getAllowance() public view returns (uint256 allowance) {\n        allowance = RST.allowance(msg.sender,address(this));\n    }\n    /// get commission function\n    function transferCommission() ownerOnly public {\n        uint256 commission = pool.getValue(uint256(0));\n        require(commission != uint256(0)); \n        pool.setValue(uint256(0), uint256(0));\n        msg.sender.transfer(commission);\n    }\n    function getBizProcessId() view public returns(address contractOwner, uint8 bizProcessId) {\n        contractOwner = owner;\n        bizProcessId = 0;\n        if (pool.getPoolSize() == 0) {\n            bizProcessId = 100; // wait fot init\n            return;\n        }\n        // check voting first\n        if (voters[msg.sender] != uint256(0)) {\n            // voter\n            bizProcessId = 5;\n            return;\n        }\n        // check if sender has Crowdsurance token\n        uint256 id = getCurrentTokenId();\n        if(id == uint256(0)) {\n            // sender don't have any token check application \n            uint256 appId = getAppID();\n            uint256 amount = addressToAmount[msg.sender];\n            uint256 allowance = getAllowance();\n            if(appId == uint256(0) && amount == uint256(0)) {\n                // the first step - need to make application\n                bizProcessId = 1;\n            }\n            else if(appId != uint256(0) && amount == uint256(0)) {\n                // waiting for scoring\n                bizProcessId = 2; \n            }\n            else if (appId == uint256(0) && amount != uint256(0) && allowance == uint256(0)) {\n                // need to approve token transfer\n                bizProcessId = 3;\n            }\n            else if (appId == uint256(0) && amount != uint256(0) && allowance != uint256(0)) {\n                // join \n                bizProcessId = 4;\n            }\n        }\n        else {\n            // we have current token id\n            if (extensions[id].status == uint(Status.Init)) {\n                bizProcessId = 10;  // activate\n            }\n            else if (extensions[id].status == uint(Status.Active)) {\n                bizProcessId = 11;  // claim\n            }\n            else if (extensions[id].status == uint(Status.Claim)) {\n                bizProcessId = 20 + getCurrentVotingStatus();\n\n            }\n        }\n    }\n    constructor(address _rst, address _pool, uint256 _amount, bool _only, uint8 _max) TokenCrowdsurance(_pool) public {\n        // setting up contract parameters \n        RST = IERC20Token(_rst);\n        parameters.joinAmount = 0.038 ether;\n        parameters.maxClaimAmount = 4 ether; \n        if (_amount == uint256(0)) {\n            joinAmountRST = 7600000000; \n        }\n        else {\n            joinAmountRST = _amount; \n        }\n        if (_max == uint8(0)) {\n            maxHold = 5;\n        }\n        else {\n            maxHold = _max;\n        }\n        ETHOnly = _only;\n        rstETHRate = 0.05 ether;\n        paybackRatio = 100;\n    }\n}",
  "sourcePath": "/Users/sergei/SimpleExchange/contracts/LuggageCrowdsurance.sol",
  "compiler": {
    "name": "solc",
    "version": "0.4.24+commit.e67f0147.Emscripten.clang"
  },
  "schemaVersion": "2.0.1",
  "updatedAt": "2018-09-10T17:01:15.147Z"
}