{
  "contractName": "RSTExchange",
  "abi": [
    {
      "constant": true,
      "inputs": [
        {
          "name": "_interfaceID",
          "type": "bytes4"
        }
      ],
      "name": "supportsInterface",
      "outputs": [
        {
          "name": "",
          "type": "bool"
        }
      ],
      "payable": false,
      "stateMutability": "view",
      "type": "function"
    },
    {
      "constant": true,
      "inputs": [],
      "name": "name",
      "outputs": [
        {
          "name": "",
          "type": "string"
        }
      ],
      "payable": false,
      "stateMutability": "view",
      "type": "function"
    },
    {
      "constant": true,
      "inputs": [
        {
          "name": "_id",
          "type": "uint256"
        }
      ],
      "name": "getNFTLevel",
      "outputs": [
        {
          "name": "",
          "type": "uint256"
        }
      ],
      "payable": false,
      "stateMutability": "view",
      "type": "function"
    },
    {
      "constant": false,
      "inputs": [
        {
          "name": "_to",
          "type": "address"
        },
        {
          "name": "_tokenId",
          "type": "uint256"
        }
      ],
      "name": "approve",
      "outputs": [],
      "payable": false,
      "stateMutability": "nonpayable",
      "type": "function"
    },
    {
      "constant": true,
      "inputs": [
        {
          "name": "",
          "type": "address"
        }
      ],
      "name": "connectors",
      "outputs": [
        {
          "name": "",
          "type": "address"
        }
      ],
      "payable": false,
      "stateMutability": "view",
      "type": "function"
    },
    {
      "constant": true,
      "inputs": [],
      "name": "totalSupply",
      "outputs": [
        {
          "name": "",
          "type": "uint256"
        }
      ],
      "payable": false,
      "stateMutability": "view",
      "type": "function"
    },
    {
      "constant": false,
      "inputs": [
        {
          "name": "_value",
          "type": "uint256"
        },
        {
          "name": "_metadata",
          "type": "string"
        },
        {
          "name": "_kind",
          "type": "uint256"
        },
        {
          "name": "_owner",
          "type": "address"
        }
      ],
      "name": "createNFT",
      "outputs": [
        {
          "name": "",
          "type": "uint256"
        }
      ],
      "payable": false,
      "stateMutability": "nonpayable",
      "type": "function"
    },
    {
      "constant": true,
      "inputs": [
        {
          "name": "",
          "type": "uint256"
        }
      ],
      "name": "tokenIndexToOwner",
      "outputs": [
        {
          "name": "",
          "type": "address"
        }
      ],
      "payable": false,
      "stateMutability": "view",
      "type": "function"
    },
    {
      "constant": true,
      "inputs": [],
      "name": "RST",
      "outputs": [
        {
          "name": "",
          "type": "address"
        }
      ],
      "payable": false,
      "stateMutability": "view",
      "type": "function"
    },
    {
      "constant": true,
      "inputs": [
        {
          "name": "_id",
          "type": "uint256"
        }
      ],
      "name": "getNFTState",
      "outputs": [
        {
          "name": "",
          "type": "uint256"
        }
      ],
      "payable": false,
      "stateMutability": "view",
      "type": "function"
    },
    {
      "constant": false,
      "inputs": [
        {
          "name": "_id",
          "type": "uint256"
        },
        {
          "name": "metadata",
          "type": "string"
        }
      ],
      "name": "setNFTMetadata",
      "outputs": [],
      "payable": false,
      "stateMutability": "nonpayable",
      "type": "function"
    },
    {
      "constant": false,
      "inputs": [
        {
          "name": "_from",
          "type": "address"
        },
        {
          "name": "_to",
          "type": "address"
        },
        {
          "name": "_tokenId",
          "type": "uint256"
        }
      ],
      "name": "transferFrom",
      "outputs": [],
      "payable": false,
      "stateMutability": "nonpayable",
      "type": "function"
    },
    {
      "constant": false,
      "inputs": [
        {
          "name": "_to",
          "type": "address"
        },
        {
          "name": "_toId",
          "type": "uint256"
        },
        {
          "name": "_level",
          "type": "uint256"
        }
      ],
      "name": "setLevel",
      "outputs": [],
      "payable": false,
      "stateMutability": "nonpayable",
      "type": "function"
    },
    {
      "constant": true,
      "inputs": [],
      "name": "rate",
      "outputs": [
        {
          "name": "",
          "type": "uint256"
        }
      ],
      "payable": false,
      "stateMutability": "view",
      "type": "function"
    },
    {
      "constant": false,
      "inputs": [
        {
          "name": "_spender",
          "type": "address"
        },
        {
          "name": "_value",
          "type": "uint256"
        }
      ],
      "name": "cApprove",
      "outputs": [
        {
          "name": "success",
          "type": "bool"
        }
      ],
      "payable": false,
      "stateMutability": "nonpayable",
      "type": "function"
    },
    {
      "constant": false,
      "inputs": [
        {
          "name": "_to",
          "type": "address"
        },
        {
          "name": "_toId",
          "type": "uint256"
        }
      ],
      "name": "increaseLevel",
      "outputs": [],
      "payable": false,
      "stateMutability": "nonpayable",
      "type": "function"
    },
    {
      "constant": false,
      "inputs": [
        {
          "name": "_from",
          "type": "address"
        },
        {
          "name": "_fromId",
          "type": "uint256"
        },
        {
          "name": "_amount",
          "type": "uint256"
        }
      ],
      "name": "cDestroy",
      "outputs": [],
      "payable": false,
      "stateMutability": "nonpayable",
      "type": "function"
    },
    {
      "constant": false,
      "inputs": [
        {
          "name": "_to",
          "type": "address"
        },
        {
          "name": "_toId",
          "type": "uint256"
        },
        {
          "name": "_amount",
          "type": "uint256"
        }
      ],
      "name": "cIssue",
      "outputs": [],
      "payable": false,
      "stateMutability": "nonpayable",
      "type": "function"
    },
    {
      "constant": true,
      "inputs": [
        {
          "name": "_id",
          "type": "uint256"
        }
      ],
      "name": "getNFT",
      "outputs": [
        {
          "name": "value",
          "type": "uint256"
        },
        {
          "name": "metadata",
          "type": "string"
        },
        {
          "name": "kind",
          "type": "uint256"
        },
        {
          "name": "level",
          "type": "uint256"
        },
        {
          "name": "state",
          "type": "uint256"
        }
      ],
      "payable": false,
      "stateMutability": "view",
      "type": "function"
    },
    {
      "constant": true,
      "inputs": [
        {
          "name": "_tokenId",
          "type": "uint256"
        }
      ],
      "name": "ownerOf",
      "outputs": [
        {
          "name": "",
          "type": "address"
        }
      ],
      "payable": false,
      "stateMutability": "view",
      "type": "function"
    },
    {
      "constant": false,
      "inputs": [
        {
          "name": "_to",
          "type": "address"
        },
        {
          "name": "_value",
          "type": "uint256"
        }
      ],
      "name": "cTransfer",
      "outputs": [
        {
          "name": "success",
          "type": "bool"
        }
      ],
      "payable": false,
      "stateMutability": "nonpayable",
      "type": "function"
    },
    {
      "constant": true,
      "inputs": [
        {
          "name": "_tokenId",
          "type": "uint256"
        }
      ],
      "name": "tokenMetadata",
      "outputs": [
        {
          "name": "infoUrl",
          "type": "string"
        }
      ],
      "payable": false,
      "stateMutability": "view",
      "type": "function"
    },
    {
      "constant": true,
      "inputs": [
        {
          "name": "_id",
          "type": "uint256"
        }
      ],
      "name": "getNFTMetadata",
      "outputs": [
        {
          "name": "",
          "type": "string"
        }
      ],
      "payable": false,
      "stateMutability": "view",
      "type": "function"
    },
    {
      "constant": true,
      "inputs": [
        {
          "name": "_owner",
          "type": "address"
        }
      ],
      "name": "balanceOf",
      "outputs": [
        {
          "name": "count",
          "type": "uint256"
        }
      ],
      "payable": false,
      "stateMutability": "view",
      "type": "function"
    },
    {
      "constant": false,
      "inputs": [
        {
          "name": "_receiver",
          "type": "address"
        }
      ],
      "name": "setReceiver",
      "outputs": [],
      "payable": false,
      "stateMutability": "nonpayable",
      "type": "function"
    },
    {
      "constant": false,
      "inputs": [],
      "name": "acceptOwnership",
      "outputs": [],
      "payable": false,
      "stateMutability": "nonpayable",
      "type": "function"
    },
    {
      "constant": false,
      "inputs": [
        {
          "name": "_id",
          "type": "uint256"
        },
        {
          "name": "value",
          "type": "uint256"
        },
        {
          "name": "metadata",
          "type": "string"
        },
        {
          "name": "kind",
          "type": "uint256"
        },
        {
          "name": "level",
          "type": "uint256"
        },
        {
          "name": "state",
          "type": "uint256"
        }
      ],
      "name": "setNFT",
      "outputs": [],
      "payable": false,
      "stateMutability": "nonpayable",
      "type": "function"
    },
    {
      "constant": true,
      "inputs": [
        {
          "name": "_claimant",
          "type": "address"
        },
        {
          "name": "_tokenId",
          "type": "uint256"
        }
      ],
      "name": "owns",
      "outputs": [
        {
          "name": "",
          "type": "bool"
        }
      ],
      "payable": false,
      "stateMutability": "view",
      "type": "function"
    },
    {
      "constant": true,
      "inputs": [
        {
          "name": "_owner",
          "type": "address"
        }
      ],
      "name": "tokensOfOwner",
      "outputs": [
        {
          "name": "ownerTokens",
          "type": "uint256[]"
        }
      ],
      "payable": false,
      "stateMutability": "view",
      "type": "function"
    },
    {
      "constant": true,
      "inputs": [],
      "name": "owner",
      "outputs": [
        {
          "name": "",
          "type": "address"
        }
      ],
      "payable": false,
      "stateMutability": "view",
      "type": "function"
    },
    {
      "constant": false,
      "inputs": [
        {
          "name": "_id",
          "type": "uint256"
        },
        {
          "name": "state",
          "type": "uint256"
        }
      ],
      "name": "setNFTState",
      "outputs": [],
      "payable": false,
      "stateMutability": "nonpayable",
      "type": "function"
    },
    {
      "constant": false,
      "inputs": [
        {
          "name": "_id",
          "type": "uint256"
        },
        {
          "name": "level",
          "type": "uint256"
        }
      ],
      "name": "setNFTLevel",
      "outputs": [],
      "payable": false,
      "stateMutability": "nonpayable",
      "type": "function"
    },
    {
      "constant": true,
      "inputs": [],
      "name": "cTotalSupply",
      "outputs": [
        {
          "name": "",
          "type": "uint256"
        }
      ],
      "payable": false,
      "stateMutability": "view",
      "type": "function"
    },
    {
      "constant": true,
      "inputs": [],
      "name": "symbol",
      "outputs": [
        {
          "name": "",
          "type": "string"
        }
      ],
      "payable": false,
      "stateMutability": "view",
      "type": "function"
    },
    {
      "constant": false,
      "inputs": [
        {
          "name": "_fromId",
          "type": "uint256"
        },
        {
          "name": "_spender",
          "type": "address"
        },
        {
          "name": "_toId",
          "type": "uint256"
        },
        {
          "name": "_value",
          "type": "uint256"
        }
      ],
      "name": "cApproveFrom",
      "outputs": [
        {
          "name": "success",
          "type": "bool"
        }
      ],
      "payable": false,
      "stateMutability": "nonpayable",
      "type": "function"
    },
    {
      "constant": true,
      "inputs": [
        {
          "name": "",
          "type": "uint256"
        }
      ],
      "name": "tokenIndexToApproved",
      "outputs": [
        {
          "name": "",
          "type": "address"
        }
      ],
      "payable": false,
      "stateMutability": "view",
      "type": "function"
    },
    {
      "constant": false,
      "inputs": [
        {
          "name": "_to",
          "type": "address"
        },
        {
          "name": "_tokenId",
          "type": "uint256"
        }
      ],
      "name": "transfer",
      "outputs": [],
      "payable": false,
      "stateMutability": "nonpayable",
      "type": "function"
    },
    {
      "constant": true,
      "inputs": [],
      "name": "amount",
      "outputs": [
        {
          "name": "",
          "type": "uint256"
        }
      ],
      "payable": false,
      "stateMutability": "view",
      "type": "function"
    },
    {
      "constant": true,
      "inputs": [
        {
          "name": "_to",
          "type": "address"
        },
        {
          "name": "_toId",
          "type": "uint256"
        }
      ],
      "name": "getLevel",
      "outputs": [
        {
          "name": "",
          "type": "uint256"
        }
      ],
      "payable": false,
      "stateMutability": "view",
      "type": "function"
    },
    {
      "constant": true,
      "inputs": [
        {
          "name": "_owner",
          "type": "address"
        }
      ],
      "name": "cBalanceOf",
      "outputs": [
        {
          "name": "",
          "type": "uint256"
        }
      ],
      "payable": false,
      "stateMutability": "view",
      "type": "function"
    },
    {
      "constant": false,
      "inputs": [
        {
          "name": "_from",
          "type": "address"
        },
        {
          "name": "_to",
          "type": "address"
        },
        {
          "name": "_value",
          "type": "uint256"
        }
      ],
      "name": "cTransferFrom",
      "outputs": [
        {
          "name": "success",
          "type": "bool"
        }
      ],
      "payable": false,
      "stateMutability": "nonpayable",
      "type": "function"
    },
    {
      "constant": true,
      "inputs": [
        {
          "name": "",
          "type": "address"
        },
        {
          "name": "",
          "type": "address"
        }
      ],
      "name": "allowanceAmt",
      "outputs": [
        {
          "name": "",
          "type": "uint256"
        }
      ],
      "payable": false,
      "stateMutability": "view",
      "type": "function"
    },
    {
      "constant": false,
      "inputs": [
        {
          "name": "_sender",
          "type": "address"
        }
      ],
      "name": "setSender",
      "outputs": [],
      "payable": false,
      "stateMutability": "nonpayable",
      "type": "function"
    },
    {
      "constant": false,
      "inputs": [
        {
          "name": "_id",
          "type": "uint256"
        },
        {
          "name": "value",
          "type": "uint256"
        }
      ],
      "name": "setNFTValue",
      "outputs": [],
      "payable": false,
      "stateMutability": "nonpayable",
      "type": "function"
    },
    {
      "constant": false,
      "inputs": [
        {
          "name": "_id",
          "type": "uint256"
        },
        {
          "name": "kind",
          "type": "uint256"
        }
      ],
      "name": "setNFTKind",
      "outputs": [],
      "payable": false,
      "stateMutability": "nonpayable",
      "type": "function"
    },
    {
      "constant": true,
      "inputs": [],
      "name": "newOwner",
      "outputs": [
        {
          "name": "",
          "type": "address"
        }
      ],
      "payable": false,
      "stateMutability": "view",
      "type": "function"
    },
    {
      "constant": true,
      "inputs": [
        {
          "name": "",
          "type": "address"
        },
        {
          "name": "",
          "type": "address"
        }
      ],
      "name": "allowance",
      "outputs": [
        {
          "name": "",
          "type": "uint256"
        }
      ],
      "payable": false,
      "stateMutability": "view",
      "type": "function"
    },
    {
      "constant": true,
      "inputs": [
        {
          "name": "",
          "type": "address"
        },
        {
          "name": "",
          "type": "address"
        }
      ],
      "name": "allowanceIds",
      "outputs": [
        {
          "name": "",
          "type": "uint256"
        }
      ],
      "payable": false,
      "stateMutability": "view",
      "type": "function"
    },
    {
      "constant": false,
      "inputs": [
        {
          "name": "_newOwner",
          "type": "address"
        }
      ],
      "name": "transferOwnership",
      "outputs": [],
      "payable": false,
      "stateMutability": "nonpayable",
      "type": "function"
    },
    {
      "constant": true,
      "inputs": [
        {
          "name": "_id",
          "type": "uint256"
        }
      ],
      "name": "getNFTValue",
      "outputs": [
        {
          "name": "",
          "type": "uint256"
        }
      ],
      "payable": false,
      "stateMutability": "view",
      "type": "function"
    },
    {
      "constant": true,
      "inputs": [
        {
          "name": "_owner",
          "type": "address"
        },
        {
          "name": "_spender",
          "type": "address"
        }
      ],
      "name": "cAllowance",
      "outputs": [
        {
          "name": "",
          "type": "uint256"
        }
      ],
      "payable": false,
      "stateMutability": "view",
      "type": "function"
    },
    {
      "constant": true,
      "inputs": [
        {
          "name": "_id",
          "type": "uint256"
        }
      ],
      "name": "getNFTKind",
      "outputs": [
        {
          "name": "",
          "type": "uint256"
        }
      ],
      "payable": false,
      "stateMutability": "view",
      "type": "function"
    },
    {
      "constant": true,
      "inputs": [],
      "name": "open",
      "outputs": [
        {
          "name": "",
          "type": "bool"
        }
      ],
      "payable": false,
      "stateMutability": "view",
      "type": "function"
    },
    {
      "inputs": [
        {
          "name": "_name",
          "type": "string"
        },
        {
          "name": "_symbol",
          "type": "string"
        },
        {
          "name": "_rst",
          "type": "address"
        }
      ],
      "payable": false,
      "stateMutability": "nonpayable",
      "type": "constructor"
    },
    {
      "anonymous": false,
      "inputs": [
        {
          "indexed": false,
          "name": "id",
          "type": "uint256"
        },
        {
          "indexed": false,
          "name": "rate",
          "type": "uint256"
        },
        {
          "indexed": false,
          "name": "value",
          "type": "uint256"
        },
        {
          "indexed": false,
          "name": "allowance",
          "type": "uint256"
        }
      ],
      "name": "Place",
      "type": "event"
    },
    {
      "anonymous": false,
      "inputs": [
        {
          "indexed": false,
          "name": "id",
          "type": "uint256"
        },
        {
          "indexed": false,
          "name": "owner",
          "type": "address"
        }
      ],
      "name": "Cancel",
      "type": "event"
    },
    {
      "anonymous": false,
      "inputs": [
        {
          "indexed": false,
          "name": "id",
          "type": "uint256"
        },
        {
          "indexed": false,
          "name": "value",
          "type": "uint256"
        },
        {
          "indexed": false,
          "name": "amount",
          "type": "uint256"
        }
      ],
      "name": "Buy",
      "type": "event"
    },
    {
      "anonymous": false,
      "inputs": [
        {
          "indexed": false,
          "name": "id",
          "type": "uint256"
        },
        {
          "indexed": false,
          "name": "amount",
          "type": "uint256"
        },
        {
          "indexed": false,
          "name": "owner",
          "type": "address"
        }
      ],
      "name": "Payment",
      "type": "event"
    },
    {
      "anonymous": false,
      "inputs": [
        {
          "indexed": false,
          "name": "amount",
          "type": "uint256"
        },
        {
          "indexed": false,
          "name": "old",
          "type": "uint256"
        }
      ],
      "name": "SetAmount",
      "type": "event"
    },
    {
      "anonymous": false,
      "inputs": [
        {
          "indexed": false,
          "name": "rate",
          "type": "uint256"
        },
        {
          "indexed": false,
          "name": "old",
          "type": "uint256"
        }
      ],
      "name": "SetRate",
      "type": "event"
    },
    {
      "anonymous": false,
      "inputs": [
        {
          "indexed": false,
          "name": "open",
          "type": "bool"
        },
        {
          "indexed": false,
          "name": "old",
          "type": "bool"
        }
      ],
      "name": "SetOpen",
      "type": "event"
    },
    {
      "anonymous": false,
      "inputs": [
        {
          "indexed": false,
          "name": "from",
          "type": "address"
        },
        {
          "indexed": false,
          "name": "fromId",
          "type": "uint256"
        },
        {
          "indexed": false,
          "name": "to",
          "type": "address"
        },
        {
          "indexed": false,
          "name": "toId",
          "type": "uint256"
        },
        {
          "indexed": false,
          "name": "value",
          "type": "uint256"
        }
      ],
      "name": "Transfer",
      "type": "event"
    },
    {
      "anonymous": false,
      "inputs": [
        {
          "indexed": false,
          "name": "to",
          "type": "address"
        },
        {
          "indexed": false,
          "name": "toId",
          "type": "uint256"
        },
        {
          "indexed": false,
          "name": "value",
          "type": "uint256"
        }
      ],
      "name": "AddValue",
      "type": "event"
    },
    {
      "anonymous": false,
      "inputs": [
        {
          "indexed": false,
          "name": "from",
          "type": "address"
        },
        {
          "indexed": false,
          "name": "fromId",
          "type": "uint256"
        },
        {
          "indexed": false,
          "name": "value",
          "type": "uint256"
        }
      ],
      "name": "RemoveValue",
      "type": "event"
    },
    {
      "anonymous": false,
      "inputs": [
        {
          "indexed": false,
          "name": "to",
          "type": "address"
        },
        {
          "indexed": false,
          "name": "toId",
          "type": "uint256"
        },
        {
          "indexed": false,
          "name": "level",
          "type": "uint256"
        }
      ],
      "name": "SetLevel",
      "type": "event"
    },
    {
      "anonymous": false,
      "inputs": [
        {
          "indexed": false,
          "name": "to",
          "type": "address"
        },
        {
          "indexed": false,
          "name": "toId",
          "type": "uint256"
        }
      ],
      "name": "IncreaseLevel",
      "type": "event"
    },
    {
      "anonymous": false,
      "inputs": [
        {
          "indexed": true,
          "name": "_prevOwner",
          "type": "address"
        },
        {
          "indexed": true,
          "name": "_newOwner",
          "type": "address"
        }
      ],
      "name": "OwnerUpdate",
      "type": "event"
    },
    {
      "anonymous": false,
      "inputs": [
        {
          "indexed": false,
          "name": "_sender",
          "type": "address"
        },
        {
          "indexed": false,
          "name": "_receiver",
          "type": "address"
        }
      ],
      "name": "ReceiverUpdate",
      "type": "event"
    },
    {
      "anonymous": false,
      "inputs": [
        {
          "indexed": false,
          "name": "_sender",
          "type": "address"
        },
        {
          "indexed": false,
          "name": "_receiver",
          "type": "address"
        }
      ],
      "name": "SenderUpdate",
      "type": "event"
    },
    {
      "anonymous": false,
      "inputs": [
        {
          "indexed": false,
          "name": "fromId",
          "type": "uint256"
        },
        {
          "indexed": false,
          "name": "spender",
          "type": "address"
        },
        {
          "indexed": false,
          "name": "toId",
          "type": "uint256"
        },
        {
          "indexed": false,
          "name": "value",
          "type": "uint256"
        }
      ],
      "name": "CApproveFrom",
      "type": "event"
    },
    {
      "anonymous": false,
      "inputs": [
        {
          "indexed": false,
          "name": "spender",
          "type": "address"
        },
        {
          "indexed": false,
          "name": "value",
          "type": "uint256"
        }
      ],
      "name": "CApprove",
      "type": "event"
    },
    {
      "anonymous": false,
      "inputs": [
        {
          "indexed": false,
          "name": "from",
          "type": "address"
        },
        {
          "indexed": false,
          "name": "fromId",
          "type": "uint256"
        },
        {
          "indexed": false,
          "name": "to",
          "type": "address"
        },
        {
          "indexed": false,
          "name": "toId",
          "type": "uint256"
        },
        {
          "indexed": false,
          "name": "value",
          "type": "uint256"
        },
        {
          "indexed": false,
          "name": "allowance",
          "type": "uint256"
        }
      ],
      "name": "CTransferFrom",
      "type": "event"
    },
    {
      "anonymous": false,
      "inputs": [
        {
          "indexed": false,
          "name": "to",
          "type": "address"
        },
        {
          "indexed": false,
          "name": "toId",
          "type": "uint256"
        },
        {
          "indexed": false,
          "name": "amount",
          "type": "uint256"
        }
      ],
      "name": "CIssue",
      "type": "event"
    },
    {
      "anonymous": false,
      "inputs": [
        {
          "indexed": false,
          "name": "from",
          "type": "address"
        },
        {
          "indexed": false,
          "name": "fromId",
          "type": "uint256"
        },
        {
          "indexed": false,
          "name": "amount",
          "type": "uint256"
        }
      ],
      "name": "CDestroy",
      "type": "event"
    },
    {
      "anonymous": false,
      "inputs": [
        {
          "indexed": false,
          "name": "from",
          "type": "address"
        },
        {
          "indexed": false,
          "name": "to",
          "type": "address"
        },
        {
          "indexed": false,
          "name": "tokenId",
          "type": "uint256"
        }
      ],
      "name": "Transfer",
      "type": "event"
    },
    {
      "anonymous": false,
      "inputs": [
        {
          "indexed": false,
          "name": "owner",
          "type": "address"
        },
        {
          "indexed": false,
          "name": "approved",
          "type": "address"
        },
        {
          "indexed": false,
          "name": "tokenId",
          "type": "uint256"
        }
      ],
      "name": "Approval",
      "type": "event"
    },
    {
      "anonymous": false,
      "inputs": [
        {
          "indexed": false,
          "name": "value",
          "type": "uint256"
        },
        {
          "indexed": false,
          "name": "metadata",
          "type": "string"
        },
        {
          "indexed": false,
          "name": "kind",
          "type": "uint256"
        },
        {
          "indexed": false,
          "name": "owner",
          "type": "address"
        }
      ],
      "name": "Birth",
      "type": "event"
    },
    {
      "constant": false,
      "inputs": [
        {
          "name": "_rate",
          "type": "uint256"
        }
      ],
      "name": "placeOrder",
      "outputs": [],
      "payable": false,
      "stateMutability": "nonpayable",
      "type": "function"
    },
    {
      "constant": false,
      "inputs": [
        {
          "name": "_id",
          "type": "uint256"
        }
      ],
      "name": "cancelOrder",
      "outputs": [],
      "payable": false,
      "stateMutability": "nonpayable",
      "type": "function"
    },
    {
      "constant": true,
      "inputs": [],
      "name": "findDeal",
      "outputs": [
        {
          "name": "min",
          "type": "uint256"
        },
        {
          "name": "max",
          "type": "uint256"
        },
        {
          "name": "average",
          "type": "uint256"
        },
        {
          "name": "active",
          "type": "uint256"
        },
        {
          "name": "total",
          "type": "uint256"
        },
        {
          "name": "id",
          "type": "uint256"
        }
      ],
      "payable": false,
      "stateMutability": "view",
      "type": "function"
    },
    {
      "constant": false,
      "inputs": [
        {
          "name": "_id",
          "type": "uint256"
        }
      ],
      "name": "buyOrder",
      "outputs": [],
      "payable": true,
      "stateMutability": "payable",
      "type": "function"
    },
    {
      "constant": false,
      "inputs": [
        {
          "name": "_id",
          "type": "uint256"
        }
      ],
      "name": "payment",
      "outputs": [],
      "payable": false,
      "stateMutability": "nonpayable",
      "type": "function"
    },
    {
      "constant": false,
      "inputs": [
        {
          "name": "_amount",
          "type": "uint256"
        }
      ],
      "name": "setAmount",
      "outputs": [],
      "payable": false,
      "stateMutability": "nonpayable",
      "type": "function"
    },
    {
      "constant": false,
      "inputs": [
        {
          "name": "_rate",
          "type": "uint256"
        }
      ],
      "name": "setRate",
      "outputs": [],
      "payable": false,
      "stateMutability": "nonpayable",
      "type": "function"
    },
    {
      "constant": false,
      "inputs": [
        {
          "name": "_open",
          "type": "bool"
        }
      ],
      "name": "setOpen",
      "outputs": [],
      "payable": false,
      "stateMutability": "nonpayable",
      "type": "function"
    },
    {
      "constant": true,
      "inputs": [
        {
          "name": "_tokenId",
          "type": "uint256"
        }
      ],
      "name": "valueOf",
      "outputs": [
        {
          "name": "value",
          "type": "uint256"
        }
      ],
      "payable": false,
      "stateMutability": "view",
      "type": "function"
    },
    {
      "constant": true,
      "inputs": [],
      "name": "getCurrentToken",
      "outputs": [
        {
          "name": "id",
          "type": "uint256"
        },
        {
          "name": "value",
          "type": "uint256"
        }
      ],
      "payable": false,
      "stateMutability": "view",
      "type": "function"
    },
    {
      "constant": true,
      "inputs": [
        {
          "name": "index",
          "type": "uint256"
        }
      ],
      "name": "getToken",
      "outputs": [
        {
          "name": "id",
          "type": "uint256"
        },
        {
          "name": "value",
          "type": "uint256"
        }
      ],
      "payable": false,
      "stateMutability": "view",
      "type": "function"
    },
    {
      "constant": true,
      "inputs": [],
      "name": "getBizProcessId",
      "outputs": [
        {
          "name": "contractOwner",
          "type": "address"
        },
        {
          "name": "bizProcessId",
          "type": "uint8"
        }
      ],
      "payable": false,
      "stateMutability": "view",
      "type": "function"
    }
  ],
  "bytecode": "0x60806040523480156200001157600080fd5b5060405162007aba38038062007aba8339810180604052810190808051820192919060200180518201929190602001805190602001909291905050508282818133600260006101000a81548173ffffffffffffffffffffffffffffffffffffffff021916908373ffffffffffffffffffffffffffffffffffffffff1602179055508160009080519060200190620000aa92919062000188565b508060019080519060200190620000c392919062000188565b50505033600a60006101000a81548173ffffffffffffffffffffffffffffffffffffffff021916908373ffffffffffffffffffffffffffffffffffffffff16021790555050506401c4fecc00600d8190555066b1a2bc2ec50000600e8190555080600f60016101000a81548173ffffffffffffffffffffffffffffffffffffffff021916908373ffffffffffffffffffffffffffffffffffffffff1602179055506001600f60006101000a81548160ff02191690831515021790555050505062000237565b828054600181600116156101000203166002900490600052602060002090601f016020900481019282601f10620001cb57805160ff1916838001178555620001fc565b82800160010185558215620001fc579182015b82811115620001fb578251825591602001919060010190620001de565b5b5090506200020b91906200020f565b5090565b6200023491905b808211156200023057600081600090555060010162000216565b5090565b90565b61787380620002476000396000f300608060405260043610610301576000357c0100000000000000000000000000000000000000000000000000000000900463ffffffff16806301ffc9a71461030657806306fdde031461036a578063080e035d146103fa578063095ea7b31461043b5780630dbf0021146104885780630e53aae9146104ec57806318160ddd1461056f578063192cc2d51461059a5780631d36e06c1461064b5780631de565d6146106b85780631ece83b01461070f57806322f85eaa14610750578063237c49191461077057806323b872dd146107e3578063271f88b414610850578063296250051461087d5780632c4e722e146108d457806332c4ee83146108ff57806334fcf4371461096457806339e6cdb1146109915780634cabcfac146109de578063514fcac714610a35578063545c3d5514610a62578063576f7ea714610ab95780636352211e14610b7b57806366d80ba514610be85780636914db6014610c4d5780636be9a6f114610cf35780636fdca5e014610d9957806370a0823114610dc8578063718da7ee14610e1f57806379ba509714610e625780637e37dcb414610e79578063818d4b5d14610f145780638462151c14610f795780638b3c99e3146110115780638da5cb5b1461103e5780638dc63d19146110955780638f080741146110cc5780638f1fc77c1461110357806395d89b411461112e57806398dc5c95146111be578063a8bd9c3214611237578063a9059cbb146112a4578063aa8c217c146112f1578063b121f2ac1461131c578063b13570791461137d578063ba2255f4146113d4578063bf62266514611401578063cadf338f14611486578063cbbc9f89146114c7578063ced32b0c1461153e578063cedf5f4a14611581578063d14a2178146115b8578063d4ee1d90146115ef578063d68af5f414611646578063dd62ed3e14611694578063e4b50cb81461170b578063e527cc9d14611753578063ef2d1746146117ca578063f2fde38b146117fc578063f5962e2d1461183f578063f81fd7ea14611880578063f884cd25146118f7578063fcfff16f14611938575b600080fd5b34801561031257600080fd5b5061035060048036038101908080357bffffffffffffffffffffffffffffffffffffffffffffffffffffffff19169060200190929190505050611967565b604051808215151515815260200191505060405180910390f35b34801561037657600080fd5b5061037f611c78565b6040518080602001828103825283818151815260200191508051906020019080838360005b838110156103bf5780820151818401526020810190506103a4565b50505050905090810190601f1680156103ec5780820380516001836020036101000a031916815260200191505b509250505060405180910390f35b34801561040657600080fd5b5061042560048036038101908080359060200190929190505050611d1a565b6040518082815260200191505060405180910390f35b34801561044757600080fd5b50610486600480360381019080803573ffffffffffffffffffffffffffffffffffffffff16906020019092919080359060200190929190505050611e32565b005b34801561049457600080fd5b5061049d611ef4565b604051808373ffffffffffffffffffffffffffffffffffffffff1673ffffffffffffffffffffffffffffffffffffffff1681526020018260ff1660ff1681526020019250505060405180910390f35b3480156104f857600080fd5b5061052d600480360381019080803573ffffffffffffffffffffffffffffffffffffffff169060200190929190505050612182565b604051808273ffffffffffffffffffffffffffffffffffffffff1673ffffffffffffffffffffffffffffffffffffffff16815260200191505060405180910390f35b34801561057b57600080fd5b506105846121b5565b6040518082815260200191505060405180910390f35b3480156105a657600080fd5b5061063560048036038101908080359060200190929190803590602001908201803590602001908080601f016020809104026020016040519081016040528093929190818152602001838380828437820191505050505050919291929080359060200190929190803573ffffffffffffffffffffffffffffffffffffffff1690602001909291905050506121d7565b6040518082815260200191505060405180910390f35b34801561065757600080fd5b50610676600480360381019080803590602001909291905050506122dd565b604051808273ffffffffffffffffffffffffffffffffffffffff1673ffffffffffffffffffffffffffffffffffffffff16815260200191505060405180910390f35b3480156106c457600080fd5b506106cd612310565b604051808273ffffffffffffffffffffffffffffffffffffffff1673ffffffffffffffffffffffffffffffffffffffff16815260200191505060405180910390f35b34801561071b57600080fd5b5061073a60048036038101908080359060200190929190505050612336565b6040518082815260200191505060405180910390f35b61076e6004803603810190808035906020019092919050505061244e565b005b34801561077c57600080fd5b506107e160048036038101908080359060200190929190803590602001908201803590602001908080601f0160208091040260200160405190810160405280939291908181526020018383808284378201915050505050509192919290505050612cde565b005b3480156107ef57600080fd5b5061084e600480360381019080803573ffffffffffffffffffffffffffffffffffffffff169060200190929190803573ffffffffffffffffffffffffffffffffffffffff16906020019092919080359060200190929190505050612e05565b005b34801561085c57600080fd5b5061087b60048036038101908080359060200190929190505050612eb6565b005b34801561088957600080fd5b506108d2600480360381019080803573ffffffffffffffffffffffffffffffffffffffff1690602001909291908035906020019092919080359060200190929190505050612fd9565b005b3480156108e057600080fd5b506108e96130e4565b6040518082815260200191505060405180910390f35b34801561090b57600080fd5b5061094a600480360381019080803573ffffffffffffffffffffffffffffffffffffffff169060200190929190803590602001909291905050506130ea565b604051808215151515815260200191505060405180910390f35b34801561097057600080fd5b5061098f6004803603810190808035906020019092919050505061337f565b005b34801561099d57600080fd5b506109dc600480360381019080803573ffffffffffffffffffffffffffffffffffffffff169060200190929190803590602001909291905050506134a2565b005b3480156109ea57600080fd5b50610a33600480360381019080803573ffffffffffffffffffffffffffffffffffffffff16906020019092919080359060200190929190803590602001909291905050506135c7565b005b348015610a4157600080fd5b50610a60600480360381019080803590602001909291905050506136c0565b005b348015610a6e57600080fd5b50610ab7600480360381019080803573ffffffffffffffffffffffffffffffffffffffff16906020019092919080359060200190929190803590602001909291905050506138ff565b005b348015610ac557600080fd5b50610ae4600480360381019080803590602001909291905050506139f8565b6040518086815260200180602001858152602001848152602001838152602001828103825286818151815260200191508051906020019080838360005b83811015610b3c578082015181840152602081019050610b21565b50505050905090810190601f168015610b695780820380516001836020036101000a031916815260200191505b50965050505050505060405180910390f35b348015610b8757600080fd5b50610ba660048036038101908080359060200190929190505050613c3f565b604051808273ffffffffffffffffffffffffffffffffffffffff1673ffffffffffffffffffffffffffffffffffffffff16815260200191505060405180910390f35b348015610bf457600080fd5b50610c33600480360381019080803573ffffffffffffffffffffffffffffffffffffffff16906020019092919080359060200190929190505050613cbd565b604051808215151515815260200191505060405180910390f35b348015610c5957600080fd5b50610c7860048036038101908080359060200190929190505050613d23565b6040518080602001828103825283818151815260200191508051906020019080838360005b83811015610cb8578082015181840152602081019050610c9d565b50505050905090810190601f168015610ce55780820380516001836020036101000a031916815260200191505b509250505060405180910390f35b348015610cff57600080fd5b50610d1e60048036038101908080359060200190929190505050613de5565b6040518080602001828103825283818151815260200191508051906020019080838360005b83811015610d5e578082015181840152602081019050610d43565b50505050905090810190601f168015610d8b5780820380516001836020036101000a031916815260200191505b509250505060405180910390f35b348015610da557600080fd5b50610dc6600480360381019080803515159060200190929190505050613f95565b005b348015610dd457600080fd5b50610e09600480360381019080803573ffffffffffffffffffffffffffffffffffffffff169060200190929190505050614067565b6040518082815260200191505060405180910390f35b348015610e2b57600080fd5b50610e60600480360381019080803573ffffffffffffffffffffffffffffffffffffffff1690602001909291905050506140b0565b005b348015610e6e57600080fd5b50610e77614221565b005b348015610e8557600080fd5b50610f126004803603810190808035906020019092919080359060200190929190803590602001908201803590602001908080601f01602080910402602001604051908101604052809392919081815260200183838082843782019150505050505091929192908035906020019092919080359060200190929190803590602001909291905050506143c2565b005b348015610f2057600080fd5b50610f5f600480360381019080803573ffffffffffffffffffffffffffffffffffffffff16906020019092919080359060200190929190505050614581565b604051808215151515815260200191505060405180910390f35b348015610f8557600080fd5b50610fba600480360381019080803573ffffffffffffffffffffffffffffffffffffffff169060200190929190505050614683565b6040518080602001828103825283818151815260200191508051906020019060200280838360005b83811015610ffd578082015181840152602081019050610fe2565b505050509050019250505060405180910390f35b34801561101d57600080fd5b5061103c60048036038101908080359060200190929190505050614695565b005b34801561104a57600080fd5b50611053614ae2565b604051808273ffffffffffffffffffffffffffffffffffffffff1673ffffffffffffffffffffffffffffffffffffffff16815260200191505060405180910390f35b3480156110a157600080fd5b506110ca6004803603810190808035906020019092919080359060200190929190505050614b08565b005b3480156110d857600080fd5b506111016004803603810190808035906020019092919080359060200190929190505050614c1f565b005b34801561110f57600080fd5b50611118614d36565b6040518082815260200191505060405180910390f35b34801561113a57600080fd5b50611143614d90565b6040518080602001828103825283818151815260200191508051906020019080838360005b83811015611183578082015181840152602081019050611168565b50505050905090810190601f1680156111b05780820380516001836020036101000a031916815260200191505b509250505060405180910390f35b3480156111ca57600080fd5b5061121d60048036038101908080359060200190929190803573ffffffffffffffffffffffffffffffffffffffff1690602001909291908035906020019092919080359060200190929190505050614e32565b604051808215151515815260200191505060405180910390f35b34801561124357600080fd5b50611262600480360381019080803590602001909291905050506150be565b604051808273ffffffffffffffffffffffffffffffffffffffff1673ffffffffffffffffffffffffffffffffffffffff16815260200191505060405180910390f35b3480156112b057600080fd5b506112ef600480360381019080803573ffffffffffffffffffffffffffffffffffffffff169060200190929190803590602001909291905050506150f1565b005b3480156112fd57600080fd5b5061130661518c565b6040518082815260200191505060405180910390f35b34801561132857600080fd5b50611367600480360381019080803573ffffffffffffffffffffffffffffffffffffffff16906020019092919080359060200190929190505050615192565b6040518082815260200191505060405180910390f35b34801561138957600080fd5b506113be600480360381019080803573ffffffffffffffffffffffffffffffffffffffff1690602001909291905050506151d2565b6040518082815260200191505060405180910390f35b3480156113e057600080fd5b506113ff60048036038101908080359060200190929190505050615250565b005b34801561140d57600080fd5b5061146c600480360381019080803573ffffffffffffffffffffffffffffffffffffffff169060200190929190803573ffffffffffffffffffffffffffffffffffffffff169060200190929190803590602001909291905050506158a1565b604051808215151515815260200191505060405180910390f35b34801561149257600080fd5b506114b160048036038101908080359060200190929190505050615f16565b6040518082815260200191505060405180910390f35b3480156114d357600080fd5b50611528600480360381019080803573ffffffffffffffffffffffffffffffffffffffff169060200190929190803573ffffffffffffffffffffffffffffffffffffffff169060200190929190505050615f40565b6040518082815260200191505060405180910390f35b34801561154a57600080fd5b5061157f600480360381019080803573ffffffffffffffffffffffffffffffffffffffff169060200190929190505050615f65565b005b34801561158d57600080fd5b506115b660048036038101908080359060200190929190803590602001909291905050506160d6565b005b3480156115c457600080fd5b506115ed60048036038101908080359060200190929190803590602001909291905050506161ed565b005b3480156115fb57600080fd5b50611604616304565b604051808273ffffffffffffffffffffffffffffffffffffffff1673ffffffffffffffffffffffffffffffffffffffff16815260200191505060405180910390f35b34801561165257600080fd5b5061165b61632a565b60405180878152602001868152602001858152602001848152602001838152602001828152602001965050505050505060405180910390f35b3480156116a057600080fd5b506116f5600480360381019080803573ffffffffffffffffffffffffffffffffffffffff169060200190929190803573ffffffffffffffffffffffffffffffffffffffff1690602001909291905050506164bb565b6040518082815260200191505060405180910390f35b34801561171757600080fd5b50611736600480360381019080803590602001909291905050506164e0565b604051808381526020018281526020019250505060405180910390f35b34801561175f57600080fd5b506117b4600480360381019080803573ffffffffffffffffffffffffffffffffffffffff169060200190929190803573ffffffffffffffffffffffffffffffffffffffff1690602001909291905050506165f8565b6040518082815260200191505060405180910390f35b3480156117d657600080fd5b506117df61661d565b604051808381526020018281526020019250505060405180910390f35b34801561180857600080fd5b5061183d600480360381019080803573ffffffffffffffffffffffffffffffffffffffff169060200190929190505050616729565b005b34801561184b57600080fd5b5061186a60048036038101908080359060200190929190505050616823565b6040518082815260200191505060405180910390f35b34801561188c57600080fd5b506118e1600480360381019080803573ffffffffffffffffffffffffffffffffffffffff169060200190929190803573ffffffffffffffffffffffffffffffffffffffff16906020019092919050505061693b565b6040518082815260200191505060405180910390f35b34801561190357600080fd5b5061192260048036038101908080359060200190929190505050616a39565b6040518082815260200191505060405180910390f35b34801561194457600080fd5b5061194d616b51565b604051808215151515815260200191505060405180910390f35b600060405180807f737570706f727473496e74657266616365286279746573342900000000000000815250601901905060405180910390207bffffffffffffffffffffffffffffffffffffffffffffffffffffffff1916827bffffffffffffffffffffffffffffffffffffffffffffffffffffffff19161480611c71575060405180807f746f6b656e4d657461646174612875696e743235362c737472696e6729000000815250601d019050604051809103902060405180807f746f6b656e734f664f776e6572286164647265737329000000000000000000008152506016019050604051809103902060405180807f7472616e7366657246726f6d28616464726573732c616464726573732c75696e81526020017f74323536290000000000000000000000000000000000000000000000000000008152506025019050604051809103902060405180807f7472616e7366657228616464726573732c75696e7432353629000000000000008152506019019050604051809103902060405180807f617070726f766528616464726573732c75696e743235362900000000000000008152506018019050604051809103902060405180807f6f776e65724f662875696e7432353629000000000000000000000000000000008152506010019050604051809103902060405180807f62616c616e63654f6628616464726573732900000000000000000000000000008152506012019050604051809103902060405180807f746f74616c537570706c79282900000000000000000000000000000000000000815250600d019050604051809103902060405180807f73796d626f6c28290000000000000000000000000000000000000000000000008152506008019050604051809103902060405180807f6e616d6528290000000000000000000000000000000000000000000000000000815250600601905060405180910390201818181818181818187bffffffffffffffffffffffffffffffffffffffffffffffffffffffff1916827bffffffffffffffffffffffffffffffffffffffffffffffffffffffff1916145b9050919050565b606060008054600181600116156101000203166002900480601f016020809104026020016040519081016040528092919081815260200182805460018160011615610100020316600290048015611d105780601f10611ce557610100808354040283529160200191611d10565b820191906000526020600020905b815481529060010190602001808311611cf357829003601f168201915b5050505050905090565b6000600c60003373ffffffffffffffffffffffffffffffffffffffff1673ffffffffffffffffffffffffffffffffffffffff16815260200190815260200160002060009054906101000a900473ffffffffffffffffffffffffffffffffffffffff1673ffffffffffffffffffffffffffffffffffffffff163073ffffffffffffffffffffffffffffffffffffffff161480611e025750600a60009054906101000a900473ffffffffffffffffffffffffffffffffffffffff1673ffffffffffffffffffffffffffffffffffffffff163373ffffffffffffffffffffffffffffffffffffffff16145b1515611e0a57fe5b600382815481101515611e1957fe5b9060005260206000209060050201600301549050919050565b611e3c3382616b64565b1515611e4757600080fd5b611e518183616bd0565b7f8c5be1e5ebec7d5bd14f71427d1e84f3dd0314c0f7b2291e5b200ac8c7c3b925338383604051808473ffffffffffffffffffffffffffffffffffffffff1673ffffffffffffffffffffffffffffffffffffffff1681526020018373ffffffffffffffffffffffffffffffffffffffff1673ffffffffffffffffffffffffffffffffffffffff168152602001828152602001935050505060405180910390a15050565b6000806000806000600a60009054906101000a900473ffffffffffffffffffffffffffffffffffffffff16945060009350611f2d61661d565b8093508194505050600083141561208857600f60019054906101000a900473ffffffffffffffffffffffffffffffffffffffff1673ffffffffffffffffffffffffffffffffffffffff1663dd62ed3e33306040518363ffffffff167c0100000000000000000000000000000000000000000000000000000000028152600401808373ffffffffffffffffffffffffffffffffffffffff1673ffffffffffffffffffffffffffffffffffffffff1681526020018273ffffffffffffffffffffffffffffffffffffffff1673ffffffffffffffffffffffffffffffffffffffff16815260200192505050602060405180830381600087803b15801561202f57600080fd5b505af1158015612043573d6000803e3d6000fd5b505050506040513d602081101561205957600080fd5b81019080805190602001909291905050509050600081141561207e5760019350612083565b600293505b61217b565b6002600481111561209557fe5b6003848154811015156120a457fe5b90600052602060002090600502016004015414156120c557600a935061217a565b600360048111156120d257fe5b6003848154811015156120e157fe5b906000526020600020906005020160040154141561210257600b9350612179565b6001600481111561210f57fe5b60038481548110151561211e57fe5b906000526020600020906005020160040154141561213f57600c9350612178565b60048081111561214b57fe5b60038481548110151561215a57fe5b906000526020600020906005020160040154141561217757600d93505b5b5b5b5b5050509091565b600c6020528060005260406000206000915054906101000a900473ffffffffffffffffffffffffffffffffffffffff1681565b600080600380549050905060008111156121d0576001810390505b8091505090565b6000600c60003373ffffffffffffffffffffffffffffffffffffffff1673ffffffffffffffffffffffffffffffffffffffff16815260200190815260200160002060009054906101000a900473ffffffffffffffffffffffffffffffffffffffff1673ffffffffffffffffffffffffffffffffffffffff163073ffffffffffffffffffffffffffffffffffffffff1614806122bf5750600a60009054906101000a900473ffffffffffffffffffffffffffffffffffffffff1673ffffffffffffffffffffffffffffffffffffffff163373ffffffffffffffffffffffffffffffffffffffff16145b15156122c757fe5b6122d385858585616c26565b9050949350505050565b60046020528060005260406000206000915054906101000a900473ffffffffffffffffffffffffffffffffffffffff1681565b600f60019054906101000a900473ffffffffffffffffffffffffffffffffffffffff1681565b6000600c60003373ffffffffffffffffffffffffffffffffffffffff1673ffffffffffffffffffffffffffffffffffffffff16815260200190815260200160002060009054906101000a900473ffffffffffffffffffffffffffffffffffffffff1673ffffffffffffffffffffffffffffffffffffffff163073ffffffffffffffffffffffffffffffffffffffff16148061241e5750600a60009054906101000a900473ffffffffffffffffffffffffffffffffffffffff1673ffffffffffffffffffffffffffffffffffffffff163373ffffffffffffffffffffffffffffffffffffffff16145b151561242657fe5b60038281548110151561243557fe5b9060005260206000209060050201600401549050919050565b600080600f60009054906101000a900460ff1615156124d5576040517f08c379a00000000000000000000000000000000000000000000000000000000081526004018080602001828103825260128152602001807f45786368616e676520697320636c6f736564000000000000000000000000000081525060200191505060405180910390fd5b6000831415151561254e576040517f08c379a00000000000000000000000000000000000000000000000000000000081526004018080602001828103825260128152602001807f4552524f523a204e46542069642069732030000000000000000000000000000081525060200191505060405180910390fd5b6002600481111561255b57fe5b60038481548110151561256a57fe5b9060005260206000209060050201600401541415156125f1576040517f08c379a000000000000000000000000000000000000000000000000000000000815260040180806020018281038252601a8152602001807f4552524f523a204f72646572206973206e6f742061637469766500000000000081525060200191505060405180910390fd5b600073ffffffffffffffffffffffffffffffffffffffff16600f60019054906101000a900473ffffffffffffffffffffffffffffffffffffffff1673ffffffffffffffffffffffffffffffffffffffff16141515156126b8576040517f08c379a00000000000000000000000000000000000000000000000000000000081526004018080602001828103825260178152602001807f4552524f523a205253542061646472657373206973203000000000000000000081525060200191505060405180910390fd5b6004600084815260200190815260200160002060009054906101000a900473ffffffffffffffffffffffffffffffffffffffff169150600073ffffffffffffffffffffffffffffffffffffffff168273ffffffffffffffffffffffffffffffffffffffff1614151515612793576040517f08c379a000000000000000000000000000000000000000000000000000000000815260040180806020018281038252601f8152602001807f4552524f523a204f72646572206f776e6572206164647265737320697320300081525060200191505060405180910390fd5b600f60019054906101000a900473ffffffffffffffffffffffffffffffffffffffff1673ffffffffffffffffffffffffffffffffffffffff1663dd62ed3e83306040518363ffffffff167c0100000000000000000000000000000000000000000000000000000000028152600401808373ffffffffffffffffffffffffffffffffffffffff1673ffffffffffffffffffffffffffffffffffffffff1681526020018273ffffffffffffffffffffffffffffffffffffffff1673ffffffffffffffffffffffffffffffffffffffff16815260200192505050602060405180830381600087803b15801561288457600080fd5b505af1158015612898573d6000803e3d6000fd5b505050506040513d60208110156128ae57600080fd5b81019080805190602001909291905050509050600d548114151515612961576040517f08c379a000000000000000000000000000000000000000000000000000000000815260040180806020018281038252602e8152602001807f4552524f523a20416c6c6f77616e636520666f722052535420746f6b656e206981526020017f73206e6f742070726f766964656400000000000000000000000000000000000081525060400191505060405180910390fd5b600060038481548110151561297257fe5b906000526020600020906005020160000154141515156129fa576040517f08c379a00000000000000000000000000000000000000000000000000000000081526004018080602001828103825260178152602001807f4552524f523a204f726465722076616c7565206973203000000000000000000081525060200191505060405180910390fd5b34600384815481101515612a0a57fe5b906000526020600020906005020160000154141515612ab7576040517f08c379a00000000000000000000000000000000000000000000000000000000081526004018080602001828103825260308152602001807f4552524f523a204f726465722076616c7565206973206e6f7420657175616c2081526020017f746f206d6573736167652076616c75650000000000000000000000000000000081525060400191505060405180910390fd5b600f60019054906101000a900473ffffffffffffffffffffffffffffffffffffffff1673ffffffffffffffffffffffffffffffffffffffff166323b872dd8333600d546040518463ffffffff167c0100000000000000000000000000000000000000000000000000000000028152600401808473ffffffffffffffffffffffffffffffffffffffff1673ffffffffffffffffffffffffffffffffffffffff1681526020018373ffffffffffffffffffffffffffffffffffffffff1673ffffffffffffffffffffffffffffffffffffffff1681526020018281526020019350505050602060405180830381600087803b158015612bb257600080fd5b505af1158015612bc6573d6000803e3d6000fd5b505050506040513d6020811015612bdc57600080fd5b81019080805190602001909291905050501515612c61576040517f08c379a00000000000000000000000000000000000000000000000000000000081526004018080602001828103825260138152602001807f4552524f523a20525354207472616e736665720000000000000000000000000081525060200191505060405180910390fd5b60036004811115612c6e57fe5b600384815481101515612c7d57fe5b9060005260206000209060050201600401819055507fb05532e21b444e9778dc1661bc462d41ba18ec113dc5e87d9d7a3849ff02d1e883823460405180848152602001838152602001828152602001935050505060405180910390a1505050565b600c60003373ffffffffffffffffffffffffffffffffffffffff1673ffffffffffffffffffffffffffffffffffffffff16815260200190815260200160002060009054906101000a900473ffffffffffffffffffffffffffffffffffffffff1673ffffffffffffffffffffffffffffffffffffffff163073ffffffffffffffffffffffffffffffffffffffff161480612dc45750600a60009054906101000a900473ffffffffffffffffffffffffffffffffffffffff1673ffffffffffffffffffffffffffffffffffffffff163373ffffffffffffffffffffffffffffffffffffffff16145b1515612dcc57fe5b80600383815481101515612ddc57fe5b90600052602060002090600502016001019080519060200190612e009291906176f2565b505050565b600073ffffffffffffffffffffffffffffffffffffffff168273ffffffffffffffffffffffffffffffffffffffff1614151515612e4157600080fd5b3073ffffffffffffffffffffffffffffffffffffffff168273ffffffffffffffffffffffffffffffffffffffff1614151515612e7c57600080fd5b612e863382616e6f565b1515612e9157600080fd5b612e9b8382616b64565b1515612ea657600080fd5b612eb1838383616edb565b505050565b6000600a60009054906101000a900473ffffffffffffffffffffffffffffffffffffffff1673ffffffffffffffffffffffffffffffffffffffff163373ffffffffffffffffffffffffffffffffffffffff16141515612f1157fe5b60008214151515612f8a576040517f08c379a00000000000000000000000000000000000000000000000000000000081526004018080602001828103825260128152602001807f4552524f523a20616d6f756e742069732030000000000000000000000000000081525060200191505060405180910390fd5b600d54905081600d819055507f6a1a1ff90ae3fd5b978159d028ceb33c54751ea49f6a1d7e64ddfc954aa9785e8282604051808381526020018281526020019250505060405180910390a15050565b600a60009054906101000a900473ffffffffffffffffffffffffffffffffffffffff1673ffffffffffffffffffffffffffffffffffffffff163373ffffffffffffffffffffffffffffffffffffffff1614151561303257fe5b61303c8383616b64565b151561304757600080fd5b8060038381548110151561305757fe5b9060005260206000209060050201600301819055507f48ed1b5769aee6cf16cda3da1db2a0acf83c194c9d2a98ebeff4904567af58f6838383604051808473ffffffffffffffffffffffffffffffffffffffff1673ffffffffffffffffffffffffffffffffffffffff168152602001838152602001828152602001935050505060405180910390a1505050565b600e5481565b600080600080600073ffffffffffffffffffffffffffffffffffffffff168673ffffffffffffffffffffffffffffffffffffffff161415151561312c57600080fd5b6000851415151561313c57600080fd5b3392506131488361710b565b91506131538661710b565b905080821415151561316457600080fd5b6000821415151561317457600080fd5b6000811415151561318457600080fd5b80600860008573ffffffffffffffffffffffffffffffffffffffff1673ffffffffffffffffffffffffffffffffffffffff16815260200190815260200160002060008873ffffffffffffffffffffffffffffffffffffffff1673ffffffffffffffffffffffffffffffffffffffff1681526020019081526020016000208190555081600860008573ffffffffffffffffffffffffffffffffffffffff1673ffffffffffffffffffffffffffffffffffffffff16815260200190815260200160002060008573ffffffffffffffffffffffffffffffffffffffff1673ffffffffffffffffffffffffffffffffffffffff1681526020019081526020016000208190555084600960008573ffffffffffffffffffffffffffffffffffffffff1673ffffffffffffffffffffffffffffffffffffffff16815260200190815260200160002060008873ffffffffffffffffffffffffffffffffffffffff1673ffffffffffffffffffffffffffffffffffffffff168152602001908152602001600020819055507fe051949e9a44e2e9c21ee7d1c7b03ef0bf501aa3b7c4616a8543f229c0bede7a8686604051808373ffffffffffffffffffffffffffffffffffffffff1673ffffffffffffffffffffffffffffffffffffffff1681526020018281526020019250505060405180910390a16001935050505092915050565b6000600a60009054906101000a900473ffffffffffffffffffffffffffffffffffffffff1673ffffffffffffffffffffffffffffffffffffffff163373ffffffffffffffffffffffffffffffffffffffff161415156133da57fe5b60008214151515613453576040517f08c379a00000000000000000000000000000000000000000000000000000000081526004018080602001828103825260108152602001807f4552524f523a207261746520697320300000000000000000000000000000000081525060200191505060405180910390fd5b600e54905081600e819055507f3a8f7e78fe36c54b4f888a309efa91eba128acb04cc1c2ffa0e5c4db7b4a87858282604051808381526020018281526020019250505060405180910390a15050565b600a60009054906101000a900473ffffffffffffffffffffffffffffffffffffffff1673ffffffffffffffffffffffffffffffffffffffff163373ffffffffffffffffffffffffffffffffffffffff161415156134fb57fe5b6135058282616b64565b151561351057600080fd5b600160038281548110151561352157fe5b9060005260206000209060050201600301540160038281548110151561354357fe5b9060005260206000209060050201600301819055507fb6ffa2bc58069f160ac94855c396bc8a7c591ae4b9e69d78cc004ad2e4d70d858282604051808373ffffffffffffffffffffffffffffffffffffffff1673ffffffffffffffffffffffffffffffffffffffff1681526020018281526020019250505060405180910390a15050565b60008073ffffffffffffffffffffffffffffffffffffffff168473ffffffffffffffffffffffffffffffffffffffff161415151561360457600080fd5b6000821415151561361457600080fd5b829050600081141561362c576136298461710b565b90505b6000811415151561363c57600080fd5b613647848284617155565b7f8ee078ba6dd38678f9ffdc8f1df2d512559df0cae2db32c829459127e1003197848484604051808473ffffffffffffffffffffffffffffffffffffffff1673ffffffffffffffffffffffffffffffffffffffff168152602001838152602001828152602001935050505060405180910390a150505050565b600f60009054906101000a900460ff161515613744576040517f08c379a00000000000000000000000000000000000000000000000000000000081526004018080602001828103825260128152602001807f45786368616e676520697320636c6f736564000000000000000000000000000081525060200191505060405180910390fd5b600081141515156137bd576040517f08c379a00000000000000000000000000000000000000000000000000000000081526004018080602001828103825260188152602001807f4552524f523a204e465420746f6b656e2069642069732030000000000000000081525060200191505060405180910390fd5b6137c73382616b64565b151561383b576040517f08c379a00000000000000000000000000000000000000000000000000000000081526004018080602001828103825260178152602001807f4552524f523a204f6e6c7920746f6b656e206f776e657200000000000000000081525060200191505060405180910390fd5b60048081111561384757fe5b60038281548110151561385657fe5b906000526020600020906005020160040181905550600060038281548110151561387c57fe5b9060005260206000209060050201600001819055507f8dd3c361eb2366ff27c2db0eb07b9261f1d052570742ab8c9a0c326f37aa576d8133604051808381526020018273ffffffffffffffffffffffffffffffffffffffff1673ffffffffffffffffffffffffffffffffffffffff1681526020019250505060405180910390a150565b60008073ffffffffffffffffffffffffffffffffffffffff168473ffffffffffffffffffffffffffffffffffffffff161415151561393c57600080fd5b6000821415151561394c57600080fd5b8290506000811415613964576139618461710b565b90505b6000811415151561397457600080fd5b61397f848284617268565b7ff3d0e22890d929d2a1cd5ca9e5f6498c4271ce2f0223ab4092297c2d11c9ef75848484604051808473ffffffffffffffffffffffffffffffffffffffff1673ffffffffffffffffffffffffffffffffffffffff168152602001838152602001828152602001935050505060405180910390a150505050565b600060606000806000600c60003373ffffffffffffffffffffffffffffffffffffffff1673ffffffffffffffffffffffffffffffffffffffff16815260200190815260200160002060009054906101000a900473ffffffffffffffffffffffffffffffffffffffff1673ffffffffffffffffffffffffffffffffffffffff163073ffffffffffffffffffffffffffffffffffffffff161480613ae75750600a60009054906101000a900473ffffffffffffffffffffffffffffffffffffffff1673ffffffffffffffffffffffffffffffffffffffff163373ffffffffffffffffffffffffffffffffffffffff16145b1515613aef57fe5b600386815481101515613afe57fe5b9060005260206000209060050201600001549450600386815481101515613b2157fe5b90600052602060002090600502016001018054600181600116156101000203166002900480601f016020809104026020016040519081016040528092919081815260200182805460018160011615610100020316600290048015613bc65780601f10613b9b57610100808354040283529160200191613bc6565b820191906000526020600020905b815481529060010190602001808311613ba957829003601f168201915b50505050509350600386815481101515613bdc57fe5b9060005260206000209060050201600201549250600386815481101515613bff57fe5b9060005260206000209060050201600301549150600386815481101515613c2257fe5b906000526020600020906005020160040154905091939590929450565b6000806004600084815260200190815260200160002060009054906101000a900473ffffffffffffffffffffffffffffffffffffffff169050600073ffffffffffffffffffffffffffffffffffffffff168173ffffffffffffffffffffffffffffffffffffffff1614151515613cb457600080fd5b80915050919050565b600080600073ffffffffffffffffffffffffffffffffffffffff168473ffffffffffffffffffffffffffffffffffffffff1614151515613cfc57600080fd5b60008314151515613d0c57600080fd5b339050613d1a8185856158a1565b91505092915050565b6060600382815481101515613d3457fe5b90600052602060002090600502016001018054600181600116156101000203166002900480601f016020809104026020016040519081016040528092919081815260200182805460018160011615610100020316600290048015613dd95780601f10613dae57610100808354040283529160200191613dd9565b820191906000526020600020905b815481529060010190602001808311613dbc57829003601f168201915b50505050509050919050565b6060600c60003373ffffffffffffffffffffffffffffffffffffffff1673ffffffffffffffffffffffffffffffffffffffff16815260200190815260200160002060009054906101000a900473ffffffffffffffffffffffffffffffffffffffff1673ffffffffffffffffffffffffffffffffffffffff163073ffffffffffffffffffffffffffffffffffffffff161480613ecd5750600a60009054906101000a900473ffffffffffffffffffffffffffffffffffffffff1673ffffffffffffffffffffffffffffffffffffffff163373ffffffffffffffffffffffffffffffffffffffff16145b1515613ed557fe5b600382815481101515613ee457fe5b90600052602060002090600502016001018054600181600116156101000203166002900480601f016020809104026020016040519081016040528092919081815260200182805460018160011615610100020316600290048015613f895780601f10613f5e57610100808354040283529160200191613f89565b820191906000526020600020905b815481529060010190602001808311613f6c57829003601f168201915b50505050509050919050565b6000600a60009054906101000a900473ffffffffffffffffffffffffffffffffffffffff1673ffffffffffffffffffffffffffffffffffffffff163373ffffffffffffffffffffffffffffffffffffffff16141515613ff057fe5b600f60009054906101000a900460ff16905081600f60006101000a81548160ff0219169083151502179055507f40f0e387353f5f027b910f09f6540a87aea442ba272793ca67f1603ca2d629ba82826040518083151515158152602001821515151581526020019250505060405180910390a15050565b6000600560008373ffffffffffffffffffffffffffffffffffffffff1673ffffffffffffffffffffffffffffffffffffffff168152602001908152602001600020549050919050565b600a60009054906101000a900473ffffffffffffffffffffffffffffffffffffffff1673ffffffffffffffffffffffffffffffffffffffff163373ffffffffffffffffffffffffffffffffffffffff1614151561410957fe5b80600c60003073ffffffffffffffffffffffffffffffffffffffff1673ffffffffffffffffffffffffffffffffffffffff16815260200190815260200160002060006101000a81548173ffffffffffffffffffffffffffffffffffffffff021916908373ffffffffffffffffffffffffffffffffffffffff1602179055507f88477ef2e6ee708c15e490fc6b373fe9ca955c32fc8679cd5b820323f20e2b9f3082604051808373ffffffffffffffffffffffffffffffffffffffff1673ffffffffffffffffffffffffffffffffffffffff1681526020018273ffffffffffffffffffffffffffffffffffffffff1673ffffffffffffffffffffffffffffffffffffffff1681526020019250505060405180910390a150565b600b60009054906101000a900473ffffffffffffffffffffffffffffffffffffffff1673ffffffffffffffffffffffffffffffffffffffff163373ffffffffffffffffffffffffffffffffffffffff1614151561427d57600080fd5b600b60009054906101000a900473ffffffffffffffffffffffffffffffffffffffff1673ffffffffffffffffffffffffffffffffffffffff16600a60009054906101000a900473ffffffffffffffffffffffffffffffffffffffff1673ffffffffffffffffffffffffffffffffffffffff167f343765429aea5a34b3ff6a3785a98a5abb2597aca87bfbb58632c173d585373a60405160405180910390a3600b60009054906101000a900473ffffffffffffffffffffffffffffffffffffffff16600a60006101000a81548173ffffffffffffffffffffffffffffffffffffffff021916908373ffffffffffffffffffffffffffffffffffffffff1602179055506000600b60006101000a81548173ffffffffffffffffffffffffffffffffffffffff021916908373ffffffffffffffffffffffffffffffffffffffff160217905550565b600c60003373ffffffffffffffffffffffffffffffffffffffff1673ffffffffffffffffffffffffffffffffffffffff16815260200190815260200160002060009054906101000a900473ffffffffffffffffffffffffffffffffffffffff1673ffffffffffffffffffffffffffffffffffffffff163073ffffffffffffffffffffffffffffffffffffffff1614806144a85750600a60009054906101000a900473ffffffffffffffffffffffffffffffffffffffff1673ffffffffffffffffffffffffffffffffffffffff163373ffffffffffffffffffffffffffffffffffffffff16145b15156144b057fe5b846003878154811015156144c057fe5b906000526020600020906005020160000181905550836003878154811015156144e557fe5b906000526020600020906005020160010190805190602001906145099291906176f2565b508260038781548110151561451a57fe5b9060005260206000209060050201600201819055508160038781548110151561453f57fe5b9060005260206000209060050201600301819055508060038781548110151561456457fe5b906000526020600020906005020160040181905550505050505050565b6000600c60003373ffffffffffffffffffffffffffffffffffffffff1673ffffffffffffffffffffffffffffffffffffffff16815260200190815260200160002060009054906101000a900473ffffffffffffffffffffffffffffffffffffffff1673ffffffffffffffffffffffffffffffffffffffff163073ffffffffffffffffffffffffffffffffffffffff1614806146695750600a60009054906101000a900473ffffffffffffffffffffffffffffffffffffffff1673ffffffffffffffffffffffffffffffffffffffff163373ffffffffffffffffffffffffffffffffffffffff16145b151561467157fe5b61467b8383616b64565b905092915050565b606061468e8261734c565b9050919050565b6000600f60009054906101000a900460ff16151561471b576040517f08c379a00000000000000000000000000000000000000000000000000000000081526004018080602001828103825260128152602001807f45786368616e676520697320636c6f736564000000000000000000000000000081525060200191505060405180910390fd5b60008214151515614794576040517f08c379a00000000000000000000000000000000000000000000000000000000081526004018080602001828103825260188152602001807f4552524f523a204e465420746f6b656e2069642069732030000000000000000081525060200191505060405180910390fd5b61479e3383616b64565b1515614812576040517f08c379a00000000000000000000000000000000000000000000000000000000081526004018080602001828103825260178152602001807f4552524f523a204f6e6c7920746f6b656e206f776e657200000000000000000081525060200191505060405180910390fd5b6003600481111561481f57fe5b60038381548110151561482e57fe5b9060005260206000209060050201600401541415156148db576040517f08c379a00000000000000000000000000000000000000000000000000000000081526004018080602001828103825260298152602001807f4552524f523a204f72646572206973206e6f7420696e2074686520457865637581526020017f746564207374617465000000000000000000000000000000000000000000000081525060400191505060405180910390fd5b3073ffffffffffffffffffffffffffffffffffffffff1631905060038281548110151561490457fe5b90600052602060002090600502016000015481101515156149b3576040517f08c379a00000000000000000000000000000000000000000000000000000000081526004018080602001828103825260288152602001807f4552524f523a2045786368616e67652069732073686f7274206f662066756e6481526020017f7320746f2070617900000000000000000000000000000000000000000000000081525060400191505060405180910390fd5b3373ffffffffffffffffffffffffffffffffffffffff166108fc6003848154811015156149dc57fe5b9060005260206000209060050201600001549081150290604051600060405180830381858888f19350505050158015614a19573d6000803e3d6000fd5b5060016004811115614a2757fe5b600383815481101515614a3657fe5b9060005260206000209060050201600401819055507fd1432ca9a38d944f01b256a411861b109bc4bfe200c40d7144e919a16b86a8a882600384815481101515614a7c57fe5b90600052602060002090600502016000015433604051808481526020018381526020018273ffffffffffffffffffffffffffffffffffffffff1673ffffffffffffffffffffffffffffffffffffffff168152602001935050505060405180910390a15050565b600a60009054906101000a900473ffffffffffffffffffffffffffffffffffffffff1681565b600c60003373ffffffffffffffffffffffffffffffffffffffff1673ffffffffffffffffffffffffffffffffffffffff16815260200190815260200160002060009054906101000a900473ffffffffffffffffffffffffffffffffffffffff1673ffffffffffffffffffffffffffffffffffffffff163073ffffffffffffffffffffffffffffffffffffffff161480614bee5750600a60009054906101000a900473ffffffffffffffffffffffffffffffffffffffff1673ffffffffffffffffffffffffffffffffffffffff163373ffffffffffffffffffffffffffffffffffffffff16145b1515614bf657fe5b80600383815481101515614c0657fe5b9060005260206000209060050201600401819055505050565b600c60003373ffffffffffffffffffffffffffffffffffffffff1673ffffffffffffffffffffffffffffffffffffffff16815260200190815260200160002060009054906101000a900473ffffffffffffffffffffffffffffffffffffffff1673ffffffffffffffffffffffffffffffffffffffff163073ffffffffffffffffffffffffffffffffffffffff161480614d055750600a60009054906101000a900473ffffffffffffffffffffffffffffffffffffffff1673ffffffffffffffffffffffffffffffffffffffff163373ffffffffffffffffffffffffffffffffffffffff16145b1515614d0d57fe5b80600383815481101515614d1d57fe5b9060005260206000209060050201600301819055505050565b600080600080600092506003805490509150600190505b81811015614d8757600381815481101515614d6457fe5b906000526020600020906005020160000154830192508080600101915050614d4d565b82935050505090565b606060018054600181600116156101000203166002900480601f016020809104026020016040519081016040528092919081815260200182805460018160011615610100020316600290048015614e285780601f10614dfd57610100808354040283529160200191614e28565b820191906000526020600020905b815481529060010190602001808311614e0b57829003601f168201915b5050505050905090565b600080600073ffffffffffffffffffffffffffffffffffffffff168573ffffffffffffffffffffffffffffffffffffffff1614151515614e7157600080fd5b838614151515614e8057600080fd5b60008614151515614e9057600080fd5b60008414151515614ea057600080fd5b60008314151515614eb057600080fd5b33905083600860008373ffffffffffffffffffffffffffffffffffffffff1673ffffffffffffffffffffffffffffffffffffffff16815260200190815260200160002060008773ffffffffffffffffffffffffffffffffffffffff1673ffffffffffffffffffffffffffffffffffffffff1681526020019081526020016000208190555085600860008373ffffffffffffffffffffffffffffffffffffffff1673ffffffffffffffffffffffffffffffffffffffff16815260200190815260200160002060008373ffffffffffffffffffffffffffffffffffffffff1673ffffffffffffffffffffffffffffffffffffffff1681526020019081526020016000208190555082600960008373ffffffffffffffffffffffffffffffffffffffff1673ffffffffffffffffffffffffffffffffffffffff16815260200190815260200160002060008773ffffffffffffffffffffffffffffffffffffffff1673ffffffffffffffffffffffffffffffffffffffff168152602001908152602001600020819055507fef4beaa380feab20776f162f92bbf15b04c59f8fd4e8ab2508b8d29fed7dfd6186868686604051808581526020018473ffffffffffffffffffffffffffffffffffffffff1673ffffffffffffffffffffffffffffffffffffffff16815260200183815260200182815260200194505050505060405180910390a16001915050949350505050565b60066020528060005260406000206000915054906101000a900473ffffffffffffffffffffffffffffffffffffffff1681565b600073ffffffffffffffffffffffffffffffffffffffff168273ffffffffffffffffffffffffffffffffffffffff161415151561512d57600080fd5b3073ffffffffffffffffffffffffffffffffffffffff168273ffffffffffffffffffffffffffffffffffffffff161415151561516857600080fd5b6151723382616b64565b151561517d57600080fd5b615188338383616edb565b5050565b600d5481565b600061519e8383616b64565b15156151a957600080fd5b6003828154811015156151b857fe5b906000526020600020906005020160030154905092915050565b6000606060008060006151e48661734c565b93506000925083519150600090505b81811015615244576003848281518110151561520b57fe5b9060200190602002015181548110151561522157fe5b9060005260206000209060050201600001548301925080806001019150506151f3565b82945050505050919050565b600080600080600f60009054906101000a900460ff1615156152da576040517f08c379a00000000000000000000000000000000000000000000000000000000081526004018080602001828103825260128152602001807f45786368616e676520697320636c6f736564000000000000000000000000000081525060200191505060405180910390fd5b60008514151515615353576040517f08c379a000000000000000000000000000000000000000000000000000000000815260040180806020018281038252601b8152602001807f4552524f523a205253542f4554482072617465206973207a65726f000000000081525060200191505060405180910390fd5b600e5485101515156153cd576040517f08c379a000000000000000000000000000000000000000000000000000000000815260040180806020018281038252601e8152602001807f4552524f523a205253542f455448207261746520697320746f6f206c6f77000081525060200191505060405180910390fd5b600073ffffffffffffffffffffffffffffffffffffffff16600f60019054906101000a900473ffffffffffffffffffffffffffffffffffffffff1673ffffffffffffffffffffffffffffffffffffffff1614151515615494576040517f08c379a00000000000000000000000000000000000000000000000000000000081526004018080602001828103825260178152602001807f4552524f523a205253542061646472657373206973203000000000000000000081525060200191505060405180910390fd5b600f60019054906101000a900473ffffffffffffffffffffffffffffffffffffffff1673ffffffffffffffffffffffffffffffffffffffff1663dd62ed3e33306040518363ffffffff167c0100000000000000000000000000000000000000000000000000000000028152600401808373ffffffffffffffffffffffffffffffffffffffff1673ffffffffffffffffffffffffffffffffffffffff1681526020018273ffffffffffffffffffffffffffffffffffffffff1673ffffffffffffffffffffffffffffffffffffffff16815260200192505050602060405180830381600087803b15801561558557600080fd5b505af1158015615599573d6000803e3d6000fd5b505050506040513d60208110156155af57600080fd5b81019080805190602001909291905050509350600d548414151515615662576040517f08c379a000000000000000000000000000000000000000000000000000000000815260040180806020018281038252602e8152602001807f4552524f523a20416c6c6f77616e636520666f722052535420746f6b656e206981526020017f73206e6f742070726f766964656400000000000000000000000000000000000081525060400191505060405180910390fd5b600f60019054906101000a900473ffffffffffffffffffffffffffffffffffffffff1673ffffffffffffffffffffffffffffffffffffffff1663313ce5676040518163ffffffff167c0100000000000000000000000000000000000000000000000000000000028152600401602060405180830381600087803b1580156156e857600080fd5b505af11580156156fc573d6000803e3d6000fd5b505050506040513d602081101561571257600080fd5b810190808051906020019092919050505060ff16925061573485600d546174d2565b9150600060ff1683111561575d5782806001900393505082600a0a8281151561575957fe5b0491505b61579f826040805190810160405280600581526020017f4f72646572000000000000000000000000000000000000000000000000000000815250600133616c26565b90506000811415151561581a576040517f08c379a00000000000000000000000000000000000000000000000000000000081526004018080602001828103825260128152602001807f4552524f523a204e46542069642069732030000000000000000000000000000081525060200191505060405180910390fd5b6002600481111561582757fe5b60038281548110151561583657fe5b9060005260206000209060050201600401819055507f397359295290c77b5722fad3de13ac9344c59cfaeb8dd4d3011f286c51500630818684876040518085815260200184815260200183815260200182815260200194505050505060405180910390a15050505050565b60008060008060008073ffffffffffffffffffffffffffffffffffffffff168773ffffffffffffffffffffffffffffffffffffffff16141515156158e457600080fd5b600086141515156158f457600080fd5b879350600860008573ffffffffffffffffffffffffffffffffffffffff1673ffffffffffffffffffffffffffffffffffffffff16815260200190815260200160002060008873ffffffffffffffffffffffffffffffffffffffff1673ffffffffffffffffffffffffffffffffffffffff168152602001908152602001600020549250600860008573ffffffffffffffffffffffffffffffffffffffff1673ffffffffffffffffffffffffffffffffffffffff16815260200190815260200160002060008573ffffffffffffffffffffffffffffffffffffffff1673ffffffffffffffffffffffffffffffffffffffff168152602001908152602001600020549150600960008573ffffffffffffffffffffffffffffffffffffffff1673ffffffffffffffffffffffffffffffffffffffff16815260200190815260200160002060008873ffffffffffffffffffffffffffffffffffffffff1673ffffffffffffffffffffffffffffffffffffffff168152602001908152602001600020549050818314151515615a8357600080fd5b60008314151515615a9357600080fd5b60008214151515615aa357600080fd5b60008114151515615ab357600080fd5b858110151515615ac257600080fd5b615acf848389868a617505565b85600960008673ffffffffffffffffffffffffffffffffffffffff1673ffffffffffffffffffffffffffffffffffffffff16815260200190815260200160002060008973ffffffffffffffffffffffffffffffffffffffff1673ffffffffffffffffffffffffffffffffffffffff1681526020019081526020016000205403600960008673ffffffffffffffffffffffffffffffffffffffff1673ffffffffffffffffffffffffffffffffffffffff16815260200190815260200160002060008973ffffffffffffffffffffffffffffffffffffffff1673ffffffffffffffffffffffffffffffffffffffff168152602001908152602001600020819055506000600960008673ffffffffffffffffffffffffffffffffffffffff1673ffffffffffffffffffffffffffffffffffffffff16815260200190815260200160002060008973ffffffffffffffffffffffffffffffffffffffff1673ffffffffffffffffffffffffffffffffffffffff168152602001908152602001600020541415615dd457600960008573ffffffffffffffffffffffffffffffffffffffff1673ffffffffffffffffffffffffffffffffffffffff16815260200190815260200160002060008873ffffffffffffffffffffffffffffffffffffffff1673ffffffffffffffffffffffffffffffffffffffff16815260200190815260200160002060009055600860008573ffffffffffffffffffffffffffffffffffffffff1673ffffffffffffffffffffffffffffffffffffffff16815260200190815260200160002060008573ffffffffffffffffffffffffffffffffffffffff1673ffffffffffffffffffffffffffffffffffffffff16815260200190815260200160002060009055600860008573ffffffffffffffffffffffffffffffffffffffff1673ffffffffffffffffffffffffffffffffffffffff16815260200190815260200160002060008873ffffffffffffffffffffffffffffffffffffffff1673ffffffffffffffffffffffffffffffffffffffff168152602001908152602001600020600090555b7fa085ba1c72fda1f13ecb6e0347284ac7d016a73b7a47c0ba151368bbe5ce2db9888389868a600960008b73ffffffffffffffffffffffffffffffffffffffff1673ffffffffffffffffffffffffffffffffffffffff16815260200190815260200160002060008e73ffffffffffffffffffffffffffffffffffffffff1673ffffffffffffffffffffffffffffffffffffffff16815260200190815260200160002054604051808773ffffffffffffffffffffffffffffffffffffffff1673ffffffffffffffffffffffffffffffffffffffff1681526020018681526020018573ffffffffffffffffffffffffffffffffffffffff1673ffffffffffffffffffffffffffffffffffffffff168152602001848152602001838152602001828152602001965050505050505060405180910390a160019450505050509392505050565b6000600382815481101515615f2757fe5b9060005260206000209060050201600001549050919050565b6009602052816000526040600020602052806000526040600020600091509150505481565b600a60009054906101000a900473ffffffffffffffffffffffffffffffffffffffff1673ffffffffffffffffffffffffffffffffffffffff163373ffffffffffffffffffffffffffffffffffffffff16141515615fbe57fe5b30600c60008373ffffffffffffffffffffffffffffffffffffffff1673ffffffffffffffffffffffffffffffffffffffff16815260200190815260200160002060006101000a81548173ffffffffffffffffffffffffffffffffffffffff021916908373ffffffffffffffffffffffffffffffffffffffff1602179055507f25245aeb6dcc1afb9053581af7e6b984f2191e80b27c263b11c45d821a566a538130604051808373ffffffffffffffffffffffffffffffffffffffff1673ffffffffffffffffffffffffffffffffffffffff1681526020018273ffffffffffffffffffffffffffffffffffffffff1673ffffffffffffffffffffffffffffffffffffffff1681526020019250505060405180910390a150565b600c60003373ffffffffffffffffffffffffffffffffffffffff1673ffffffffffffffffffffffffffffffffffffffff16815260200190815260200160002060009054906101000a900473ffffffffffffffffffffffffffffffffffffffff1673ffffffffffffffffffffffffffffffffffffffff163073ffffffffffffffffffffffffffffffffffffffff1614806161bc5750600a60009054906101000a900473ffffffffffffffffffffffffffffffffffffffff1673ffffffffffffffffffffffffffffffffffffffff163373ffffffffffffffffffffffffffffffffffffffff16145b15156161c457fe5b806003838154811015156161d457fe5b9060005260206000209060050201600001819055505050565b600c60003373ffffffffffffffffffffffffffffffffffffffff1673ffffffffffffffffffffffffffffffffffffffff16815260200190815260200160002060009054906101000a900473ffffffffffffffffffffffffffffffffffffffff1673ffffffffffffffffffffffffffffffffffffffff163073ffffffffffffffffffffffffffffffffffffffff1614806162d35750600a60009054906101000a900473ffffffffffffffffffffffffffffffffffffffff1673ffffffffffffffffffffffffffffffffffffffff163373ffffffffffffffffffffffffffffffffffffffff16145b15156162db57fe5b806003838154811015156162eb57fe5b9060005260206000209060050201600201819055505050565b600b60009054906101000a900473ffffffffffffffffffffffffffffffffffffffff1681565b60008060008060008060008061633e6121b5565b91506000925060009750600096506000955060009450600093506000821415616366576164b1565b616374600e54600d546174d2565b9750600190505b818111151561648e576002600481111561639157fe5b6003828154811015156163a057fe5b90600052602060002090600502016004015414156164815784806001019550506003818154811015156163cf57fe5b90600052602060002090600502016000015484019350876003828154811015156163f557fe5b90600052602060002090600502016000015410156164345760038181548110151561641c57fe5b90600052602060002090600502016000015497508092505b8660038281548110151561644457fe5b90600052602060002090600502016000015411156164805760038181548110151561646b57fe5b90600052602060002090600502016000015496505b5b808060010191505061637b565b6000851415156164ab5784848115156164a357fe5b0495506164b0565b600097505b5b5050909192939495565b6007602052816000526040600020602052806000526040600020600091509150505481565b6000806060600a60009054906101000a900473ffffffffffffffffffffffffffffffffffffffff1673ffffffffffffffffffffffffffffffffffffffff163373ffffffffffffffffffffffffffffffffffffffff1614156165485760009250600091506165f2565b6165513361734c565b9050600081511180156165645750805184105b61656f576000616588565b808481518110151561657d57fe5b906020019060200201515b9250600091506000831415156165f157600360048111156165a557fe5b6003848154811015156165b457fe5b90600052602060002090600502016004015414156165f0576003838154811015156165db57fe5b90600052602060002090600502016000015491505b5b5b50915091565b6008602052816000526040600020602052806000526040600020600091509150505481565b6000806060600a60009054906101000a900473ffffffffffffffffffffffffffffffffffffffff1673ffffffffffffffffffffffffffffffffffffffff163373ffffffffffffffffffffffffffffffffffffffff161415616685576000925060009150616724565b61668e3361734c565b905060008151116166a05760006166ba565b8060008151811015156166af57fe5b906020019060200201515b92506000915060008314151561672357600360048111156166d757fe5b6003848154811015156166e657fe5b90600052602060002090600502016004015414156167225760038381548110151561670d57fe5b90600052602060002090600502016000015491505b5b5b509091565b600a60009054906101000a900473ffffffffffffffffffffffffffffffffffffffff1673ffffffffffffffffffffffffffffffffffffffff163373ffffffffffffffffffffffffffffffffffffffff1614151561678257fe5b600a60009054906101000a900473ffffffffffffffffffffffffffffffffffffffff1673ffffffffffffffffffffffffffffffffffffffff168173ffffffffffffffffffffffffffffffffffffffff16141515156167df57600080fd5b80600b60006101000a81548173ffffffffffffffffffffffffffffffffffffffff021916908373ffffffffffffffffffffffffffffffffffffffff16021790555050565b6000600c60003373ffffffffffffffffffffffffffffffffffffffff1673ffffffffffffffffffffffffffffffffffffffff16815260200190815260200160002060009054906101000a900473ffffffffffffffffffffffffffffffffffffffff1673ffffffffffffffffffffffffffffffffffffffff163073ffffffffffffffffffffffffffffffffffffffff16148061690b5750600a60009054906101000a900473ffffffffffffffffffffffffffffffffffffffff1673ffffffffffffffffffffffffffffffffffffffff163373ffffffffffffffffffffffffffffffffffffffff16145b151561691357fe5b60038281548110151561692257fe5b9060005260206000209060050201600001549050919050565b60008073ffffffffffffffffffffffffffffffffffffffff168273ffffffffffffffffffffffffffffffffffffffff161415151561697857600080fd5b600073ffffffffffffffffffffffffffffffffffffffff168373ffffffffffffffffffffffffffffffffffffffff16141515156169b457600080fd5b600960008473ffffffffffffffffffffffffffffffffffffffff1673ffffffffffffffffffffffffffffffffffffffff16815260200190815260200160002060008373ffffffffffffffffffffffffffffffffffffffff1673ffffffffffffffffffffffffffffffffffffffff16815260200190815260200160002054905092915050565b6000600c60003373ffffffffffffffffffffffffffffffffffffffff1673ffffffffffffffffffffffffffffffffffffffff16815260200190815260200160002060009054906101000a900473ffffffffffffffffffffffffffffffffffffffff1673ffffffffffffffffffffffffffffffffffffffff163073ffffffffffffffffffffffffffffffffffffffff161480616b215750600a60009054906101000a900473ffffffffffffffffffffffffffffffffffffffff1673ffffffffffffffffffffffffffffffffffffffff163373ffffffffffffffffffffffffffffffffffffffff16145b1515616b2957fe5b600382815481101515616b3857fe5b9060005260206000209060050201600201549050919050565b600f60009054906101000a900460ff1681565b60008273ffffffffffffffffffffffffffffffffffffffff166004600084815260200190815260200160002060009054906101000a900473ffffffffffffffffffffffffffffffffffffffff1673ffffffffffffffffffffffffffffffffffffffff1614905092915050565b806006600084815260200190815260200160002060006101000a81548173ffffffffffffffffffffffffffffffffffffffff021916908373ffffffffffffffffffffffffffffffffffffffff1602179055505050565b6000616c30617772565b600060a0604051908101604052808881526020018781526020018681526020016000815260200160008152509150600160038390806001815401808255809150509060018203906000526020600020906005020160009091929091909150600082015181600001556020820151816001019080519060200190616cb49291906177a2565b506040820151816002015560608201518160030155608082015181600401555050039050600063ffffffff16811415616d6257600160038390806001815401808255809150509060018203906000526020600020906005020160009091929091909150600082015181600001556020820151816001019080519060200190616d3d9291906177a2565b5060408201518160020155606082015181600301556080820151816004015550500390505b8063ffffffff1681141515616d7657600080fd5b7fdea8e87d69047e1b3cd43ad599d34e3eacfe4408b4dfc5d0f6ac6a15a468de5c8787878760405180858152602001806020018481526020018373ffffffffffffffffffffffffffffffffffffffff1673ffffffffffffffffffffffffffffffffffffffff168152602001828103825285818151815260200191508051906020019080838360005b83811015616e19578082015181840152602081019050616dfe565b50505050905090810190601f168015616e465780820380516001836020036101000a031916815260200191505b509550505050505060405180910390a1616e6260008583616edb565b8092505050949350505050565b60008273ffffffffffffffffffffffffffffffffffffffff166006600084815260200190815260200160002060009054906101000a900473ffffffffffffffffffffffffffffffffffffffff1673ffffffffffffffffffffffffffffffffffffffff1614905092915050565b610400600382815481101515616eed57fe5b90600052602060002090600502016004015414151515616f0957fe5b600560008373ffffffffffffffffffffffffffffffffffffffff1673ffffffffffffffffffffffffffffffffffffffff16815260200190815260200160002060008154809291906001019190505550816004600083815260200190815260200160002060006101000a81548173ffffffffffffffffffffffffffffffffffffffff021916908373ffffffffffffffffffffffffffffffffffffffff160217905550600073ffffffffffffffffffffffffffffffffffffffff168373ffffffffffffffffffffffffffffffffffffffff1614151561706757600560008473ffffffffffffffffffffffffffffffffffffffff1673ffffffffffffffffffffffffffffffffffffffff16815260200190815260200160002060008154809291906001900391905055506006600082815260200190815260200160002060006101000a81549073ffffffffffffffffffffffffffffffffffffffff02191690555b7fddf252ad1be2c89b69c2b068fc378daa952ba7f163c4a11628f55a4df523b3ef838383604051808473ffffffffffffffffffffffffffffffffffffffff1673ffffffffffffffffffffffffffffffffffffffff1681526020018373ffffffffffffffffffffffffffffffffffffffff1673ffffffffffffffffffffffffffffffffffffffff168152602001828152602001935050505060405180910390a1505050565b60006060600061711a8461734c565b9150815190506000811415617132576000925061714e565b81600081518110151561714157fe5b9060200190602002015192505b5050919050565b61715f8383616b64565b151561716a57600080fd5b6000811415151561717a57600080fd5b8060038381548110151561718a57fe5b906000526020600020906005020160000154101515156171a957600080fd5b806003838154811015156171b957fe5b906000526020600020906005020160000154036003838154811015156171db57fe5b9060005260206000209060050201600001819055507f45dacd427fd388bf162986dbc958cdcf160c31b40efe076907cff377b9857c79838383604051808473ffffffffffffffffffffffffffffffffffffffff1673ffffffffffffffffffffffffffffffffffffffff168152602001838152602001828152602001935050505060405180910390a1505050565b6172728383616b64565b151561727d57600080fd5b6000811415151561728d57600080fd5b8060038381548110151561729d57fe5b906000526020600020906005020160000154016003838154811015156172bf57fe5b9060005260206000209060050201600001819055507f20f4934a3b4928cca0e51f3f1eaac12dee9af151a8a8ba5a424a89d93f6bf53d838383604051808473ffffffffffffffffffffffffffffffffffffffff1673ffffffffffffffffffffffffffffffffffffffff168152602001838152602001828152602001935050505060405180910390a1505050565b60606000606060008060008073ffffffffffffffffffffffffffffffffffffffff168773ffffffffffffffffffffffffffffffffffffffff161415151561739257600080fd5b61739b87614067565b945060008514156173de5760006040519080825280602002602001820160405280156173d65781602001602082028038833980820191505090505b5095506174c8565b8460405190808252806020026020018201604052801561740d5781602001602082028038833980820191505090505b5093506174186121b5565b925060009150600190505b82811115156174c4578673ffffffffffffffffffffffffffffffffffffffff166004600083815260200190815260200160002060009054906101000a900473ffffffffffffffffffffffffffffffffffffffff1673ffffffffffffffffffffffffffffffffffffffff1614156174b7578084838060010194508151811015156174a857fe5b90602001906020020181815250505b8080600101915050617423565b8395505b5050505050919050565b600080828402905060008414806174f357508284828115156174f057fe5b04145b15156174fb57fe5b8091505092915050565b61750f8585616b64565b151561751a57600080fd5b6175248383616b64565b151561752f57600080fd5b6000811415151561753f57600080fd5b81841415151561754e57600080fd5b8060038581548110151561755e57fe5b9060005260206000209060050201600001541015151561757d57600080fd5b61040060038581548110151561758f57fe5b906000526020600020906005020160040154141515156175ae57600080fd5b806003858154811015156175be57fe5b906000526020600020906005020160000154036003858154811015156175e057fe5b9060005260206000209060050201600001819055508060038381548110151561760557fe5b9060005260206000209060050201600001540160038381548110151561762757fe5b9060005260206000209060050201600001819055507f6d401b913d27047ecd2042f0331e2354d30e664920b31480dc71955edb996c388585858585604051808673ffffffffffffffffffffffffffffffffffffffff1673ffffffffffffffffffffffffffffffffffffffff1681526020018581526020018473ffffffffffffffffffffffffffffffffffffffff1673ffffffffffffffffffffffffffffffffffffffff1681526020018381526020018281526020019550505050505060405180910390a15050505050565b828054600181600116156101000203166002900490600052602060002090601f016020900481019282601f1061773357805160ff1916838001178555617761565b82800160010185558215617761579182015b82811115617760578251825591602001919060010190617745565b5b50905061776e9190617822565b5090565b60a06040519081016040528060008152602001606081526020016000815260200160008152602001600081525090565b828054600181600116156101000203166002900490600052602060002090601f016020900481019282601f106177e357805160ff1916838001178555617811565b82800160010185558215617811579182015b828111156178105782518255916020019190600101906177f5565b5b50905061781e9190617822565b5090565b61784491905b80821115617840576000816000905550600101617828565b5090565b905600a165627a7a72305820b5a46fb563d11a53e0520aece700893ca8e40d54f42ac791f5d65e40e05756590029",
  "source": "// \n// MIT License\n// \n// Copyright (c) 2018 REGA Risk Sharing\n//   \n// Permission is hereby granted, free of charge, to any person obtaining a copy\n// of this software and associated documentation files (the \"Software\"), to deal\n// in the Software without restriction, including without limitation the rights\n// to use, copy, modify, merge, publish, distribute, sublicense, and/or sell\n// copies of the Software, and to permit persons to whom the Software is\n// furnished to do so, subject to the following conditions:\n// \n// The above copyright notice and this permission notice shall be included in all\n// copies or substantial portions of the Software.\n// \n// THE SOFTWARE IS PROVIDED \"AS IS\", WITHOUT WARRANTY OF ANY KIND, EXPRESS OR\n// IMPLIED, INCLUDING BUT NOT LIMITED TO THE WARRANTIES OF MERCHANTABILITY,\n// FITNESS FOR A PARTICULAR PURPOSE AND NONINFRINGEMENT. IN NO EVENT SHALL THE\n// AUTHORS OR COPYRIGHT HOLDERS BE LIABLE FOR ANY CLAIM, DAMAGES OR OTHER\n// LIABILITY, WHETHER IN AN ACTION OF CONTRACT, TORT OR OTHERWISE, ARISING FROM,\n// OUT OF OR IN CONNECTION WITH THE SOFTWARE OR THE USE OR OTHER DEALINGS IN THE\n// SOFTWARE.\n// \n// Author: Sergei Sevriugin\n// Version: 0.0.1\n//  \n\npragma solidity ^0.4.17;\n\nimport \"./ERC721SmartToken.sol\";\nimport \"./Utils.sol\";\nimport \"./interfaces/IERC20Token.sol\";\n\n\n/// SimpleExchange is RST <--> ETH echange based on ERC721 Smart token\ncontract RSTExchange is ERC721SmartToken, Utils {\n\n    /// SimpleExchange Place Order event\n    /// @param id NFT token ID for the order\n    /// @param rate RST/ETH exchange rate\n    /// @param value exchange value in ETH\n    /// @param allowance exchange value in RST\n    event Place(uint256 id, uint256 rate, uint256 value, uint256 allowance);\n\n    /// SimpleExchange Cancel Order event\n    /// @param id NFT token ID for the order\n    /// @param owner NFT token owner\n    event Cancel(uint256 id, address owner);\n\n    /// SimpleExchange Buy event\n    /// @param id NFT token ID for the order to purchase\n    /// @param value RST value that was transfered to buyer\n    /// @param amount ETH amount buyer has been paid (on contract account)\n    event Buy(uint256 id, uint256 value, uint256 amount);\n\n     /// SimpleExchange payment event\n    /// @param id is NFT Order id\n    /// @param amount ETH amount to receive\n    /// @param owner NFT Order token owner\n    event Payment(uint256 id, uint256 amount, address owner);\n\n    /// SimpleExchange set amount event\n    /// @param amount is new value\n    /// @param old is old value\n    event SetAmount(uint256 amount, uint256 old);\n\n    /// SimpleExchange set rate event\n    /// @param rate is new rate\n    /// @param old is old rate\n    event SetRate(uint256 rate, uint256 old);\n\n    /// SimpleExchange set open event\n    /// @param open is new open value\n    /// @param old is old open value\n    event SetOpen(bool open, bool old);\n   \n\n    /// RST token amount for order\n    uint256 public amount;\n    /// RST/ETH minimum rate\n    uint256 public rate;\n    /// SimpleExchange is open\n    bool public open;\n    /// RST smart contract address\n    IERC20Token public RST;\n    /// Order Status\n    enum Status {Init, Closed, Active, Executed, Canceled}\n\n    /// placeOrder\n    /// @param _rate RST/ETH echange rate, must be >= rate\n    function placeOrder(uint256 _rate) public {\n        require(open, \"Exchange is closed\");\n        require(_rate != uint256(0), \"ERROR: RST/ETH rate is zero\");\n        require(_rate >= rate, \"ERROR: RST/ETH rate is too low\");\n        require(RST != address(0),\"ERROR: RST address is 0\");  \n        uint _allowance = RST.allowance(msg.sender, address(this));\n        require(_allowance != amount, \"ERROR: Allowance for RST token is not provided\");\n        uint256 _decimals = uint256(RST.decimals());\n        uint _value = safeMul(_rate, amount);\n        if (_decimals > uint8(0)) {                   // ... check if RST decimals is not 0\n            _decimals--;\n            _value = _value / (10 ** _decimals);      // ... and use decimals to convert RST to ETH\n        }\n        uint _id = _createNFT(_value, \"Order\", uint(1), msg.sender);\n        require(_id != uint256(0), \"ERROR: NFT id is 0\");\n        nfts[_id].state = uint256(Status.Active);\n\n        emit Place(_id, _rate, _value, _allowance);\n    }\n\n    /// cancelOrder \n    /// @param _id NFT token id for order to cancel\n    function cancelOrder(uint256 _id) public {\n        require(open, \"Exchange is closed\");\n        require(_id != uint256(0),\"ERROR: NFT token id is 0\");\n        require(_owns(msg.sender, _id), \"ERROR: Only token owner\");\n        nfts[_id].state = uint256(Status.Canceled);\n        nfts[_id].value = uint(0);\n\n        emit Cancel(_id, msg.sender);\n    }\n\n    /// find deal \n    function findDeal() public view returns(uint256 min, uint256 max, uint256 average, uint256 active, uint256 total, uint256 id) {\n        uint256 count = totalSupply();\n\n        id = 0;\n        min = uint256(0);\n        max = uint256(0);\n        average = uint256(0);\n        active = uint256(0);\n        total = uint256(0);\n        \n        if( count == uint256(0) ) {\n            return;\n        }\n\n        min = safeMul(rate, amount);\n\n        for (uint256 _id = 1; _id <= count; _id++) {\n            if(nfts[_id].state == uint256(Status.Active)) {\n                active++;\n                total = total + nfts[_id].value;\n                if(nfts[_id].value < min) {\n                    min = nfts[_id].value;\n                    id = _id;\n                }\n                if(nfts[_id].value > max) {\n                    max = nfts[_id].value;\n                }\n            }\n        }\n        if(active != uint256(0)) {\n            average = total / active; \n        } \n        else {\n            min = uint256(0);\n        }\n    }\n\n    /// buyOrder \n    /// @param _id NFT token id to buy from \n    function buyOrder(uint256 _id) public payable {\n        require(open, \"Exchange is closed\");\n        require(_id != uint256(0), \"ERROR: NFT id is 0\");\n        require(nfts[_id].state == uint256(Status.Active), \"ERROR: Order is not active\");\n        require(RST != address(0),\"ERROR: RST address is 0\");\n        address _owner = tokenIndexToOwner[_id];\n        require(_owner != address(0), \"ERROR: Order owner address is 0\");\n        uint _allowance = RST.allowance(_owner, address(this));\n        require(_allowance != amount, \"ERROR: Allowance for RST token is not provided\");\n        require(nfts[_id].value != uint256(0), \"ERROR: Order value is 0\");\n        require(nfts[_id].value == msg.value, \"ERROR: Order value is not equal to message value\");\n        require(RST.transferFrom(_owner, msg.sender, amount),\"ERROR: RST transfer\");\n\n        nfts[_id].state = uint256(Status.Executed);\n\n        emit Buy(_id, _allowance, msg.value);\n    }\n\n    /// payment \n    /// @param _id NFT token to collect the payment from Executed order\n    function payment(uint256 _id) public {\n        require(open, \"Exchange is closed\");\n        require(_id != uint256(0),\"ERROR: NFT token id is 0\");\n        require(_owns(msg.sender, _id), \"ERROR: Only token owner\");\n        require(nfts[_id].state == uint256(Status.Executed), \"ERROR: Order is not in the Executed state\");\n        uint256 balance = address(this).balance;\n        require(balance >= nfts[_id].value, \"ERROR: Exchange is short of funds to pay\");\n        msg.sender.transfer(nfts[_id].value);\n\n        nfts[_id].state = uint256(Status.Closed);\n\n        emit Payment(_id, nfts[_id].value, msg.sender);\n    }\n    function setAmount(uint256 _amount) public ownerOnly {\n        require(_amount != uint256(0),\"ERROR: amount is 0\");\n        uint _old = amount;\n        amount = _amount;\n\n        emit SetAmount(_amount, _old);\n    }\n    function setRate(uint256 _rate) public ownerOnly {\n        require(_rate != uint256(0),\"ERROR: rate is 0\");\n        uint _old = rate;\n        rate = _rate;\n\n        emit SetRate(_rate, _old);\n    }\n    function setOpen(bool _open) public ownerOnly {\n        bool _old = open;\n        open = _open;\n\n        emit SetOpen(_open, _old);\n    }\n    /// token ID helpers\n    function getCurrentToken() public view returns (uint256 id, uint256 value) {\n        if(msg.sender == owner) {\n            id = uint256(0);                         // return 0 for owner\n            value = uint256(0);\n        }\n        else {\n            uint256[] memory tokenIds = _tokensOfOwner(msg.sender);\n            id = tokenIds.length > 0 ? tokenIds[0] : uint256(0);\n            value = uint256(0);\n            if(id != uint256(0)) {\n                if(nfts[id].state == uint256(Status.Executed)) {\n                    value = nfts[id].value;\n                }\n            }\n        }\n    }\n    function getToken(uint256 index) public view returns (uint256 id, uint256 value) {\n        if(msg.sender == owner) {\n            id = uint256(0);                         // return 0 for owner\n            value = uint256(0);\n        }\n        else {\n            uint256[] memory tokenIds = _tokensOfOwner(msg.sender);\n            id = tokenIds.length > 0 && index < tokenIds.length ? tokenIds[index] : uint256(0);\n            value = uint256(0);\n            if(id != uint256(0)) {\n                if(nfts[id].state == uint256(Status.Executed)) {\n                    value = nfts[id].value;\n                }\n            }\n        }\n    }\n    function getBizProcessId() public view returns(address contractOwner, uint8 bizProcessId) {\n        contractOwner = owner;\n        bizProcessId = 0;\n        \n        // check if sender has Crowdsurance token\n        uint256 id;\n        uint256 value;\n        (id, value) = getCurrentToken();\n        if(id == uint256(0)) {\n            uint allowance = RST.allowance(msg.sender, address(this));\n            if(allowance == uint256(0)) {\n                // the first step - need to make allowance\n                bizProcessId = 1;\n            }\n            else {\n                // need to make order\n                bizProcessId = 2; \n            }\n        }\n        else {\n            // we have current token id\n            if (nfts[id].state == uint(Status.Active)) {\n                bizProcessId = 10;  // activate\n            }\n            else if (nfts[id].state == uint(Status.Executed)) {\n                bizProcessId = 11;  // execuited\n            }\n            else if (nfts[id].state == uint(Status.Closed)) {\n                bizProcessId = 12;\n\n            }\n            else if (nfts[id].state == uint(Status.Canceled)) {\n                bizProcessId = 13;\n            }\n        }\n    }\n    constructor(string _name, string _symbol, address _rst) ERC721SmartToken(_name, _symbol) public { \n        amount = 7600000000;\n        rate = 0.05 ether;\n        RST = IERC20Token(_rst);\n        open = true;\n    }\n}",
  "sourcePath": "/Users/sergei/SimpleExchange/contracts/RSTExchange.sol",
  "compiler": {
    "name": "solc",
    "version": "0.4.24+commit.e67f0147.Emscripten.clang"
  },
  "schemaVersion": "2.0.1",
  "updatedAt": "2018-09-10T17:01:15.151Z"
}