{
  "contractName": "SimpleExchange",
  "abi": [
    {
      "constant": true,
      "inputs": [
        {
          "name": "",
          "type": "address"
        }
      ],
      "name": "connectors",
      "outputs": [
        {
          "name": "",
          "type": "address"
        }
      ],
      "payable": false,
      "stateMutability": "view",
      "type": "function"
    },
    {
      "constant": true,
      "inputs": [],
      "name": "RST",
      "outputs": [
        {
          "name": "",
          "type": "address"
        }
      ],
      "payable": false,
      "stateMutability": "view",
      "type": "function"
    },
    {
      "constant": true,
      "inputs": [],
      "name": "rate",
      "outputs": [
        {
          "name": "",
          "type": "uint256"
        }
      ],
      "payable": false,
      "stateMutability": "view",
      "type": "function"
    },
    {
      "constant": false,
      "inputs": [
        {
          "name": "_receiver",
          "type": "address"
        }
      ],
      "name": "setReceiver",
      "outputs": [],
      "payable": false,
      "stateMutability": "nonpayable",
      "type": "function"
    },
    {
      "constant": false,
      "inputs": [],
      "name": "acceptOwnership",
      "outputs": [],
      "payable": false,
      "stateMutability": "nonpayable",
      "type": "function"
    },
    {
      "constant": true,
      "inputs": [],
      "name": "owner",
      "outputs": [
        {
          "name": "",
          "type": "address"
        }
      ],
      "payable": false,
      "stateMutability": "view",
      "type": "function"
    },
    {
      "constant": true,
      "inputs": [],
      "name": "amount",
      "outputs": [
        {
          "name": "",
          "type": "uint256"
        }
      ],
      "payable": false,
      "stateMutability": "view",
      "type": "function"
    },
    {
      "constant": true,
      "inputs": [],
      "name": "erc721",
      "outputs": [
        {
          "name": "",
          "type": "address"
        }
      ],
      "payable": false,
      "stateMutability": "view",
      "type": "function"
    },
    {
      "constant": false,
      "inputs": [
        {
          "name": "_sender",
          "type": "address"
        }
      ],
      "name": "setSender",
      "outputs": [],
      "payable": false,
      "stateMutability": "nonpayable",
      "type": "function"
    },
    {
      "constant": true,
      "inputs": [],
      "name": "newOwner",
      "outputs": [
        {
          "name": "",
          "type": "address"
        }
      ],
      "payable": false,
      "stateMutability": "view",
      "type": "function"
    },
    {
      "constant": false,
      "inputs": [
        {
          "name": "_newOwner",
          "type": "address"
        }
      ],
      "name": "transferOwnership",
      "outputs": [],
      "payable": false,
      "stateMutability": "nonpayable",
      "type": "function"
    },
    {
      "constant": true,
      "inputs": [],
      "name": "open",
      "outputs": [
        {
          "name": "",
          "type": "bool"
        }
      ],
      "payable": false,
      "stateMutability": "view",
      "type": "function"
    },
    {
      "inputs": [
        {
          "name": "_rst",
          "type": "address"
        },
        {
          "name": "_erc721",
          "type": "address"
        }
      ],
      "payable": false,
      "stateMutability": "nonpayable",
      "type": "constructor"
    },
    {
      "anonymous": false,
      "inputs": [
        {
          "indexed": false,
          "name": "id",
          "type": "uint256"
        },
        {
          "indexed": false,
          "name": "rate",
          "type": "uint256"
        },
        {
          "indexed": false,
          "name": "value",
          "type": "uint256"
        },
        {
          "indexed": false,
          "name": "allowance",
          "type": "uint256"
        }
      ],
      "name": "Place",
      "type": "event"
    },
    {
      "anonymous": false,
      "inputs": [
        {
          "indexed": false,
          "name": "id",
          "type": "uint256"
        },
        {
          "indexed": false,
          "name": "owner",
          "type": "address"
        }
      ],
      "name": "Cancel",
      "type": "event"
    },
    {
      "anonymous": false,
      "inputs": [
        {
          "indexed": false,
          "name": "id",
          "type": "uint256"
        },
        {
          "indexed": false,
          "name": "value",
          "type": "uint256"
        },
        {
          "indexed": false,
          "name": "amount",
          "type": "uint256"
        }
      ],
      "name": "Buy",
      "type": "event"
    },
    {
      "anonymous": false,
      "inputs": [
        {
          "indexed": false,
          "name": "id",
          "type": "uint256"
        },
        {
          "indexed": false,
          "name": "amount",
          "type": "uint256"
        },
        {
          "indexed": false,
          "name": "owner",
          "type": "address"
        }
      ],
      "name": "Payment",
      "type": "event"
    },
    {
      "anonymous": false,
      "inputs": [
        {
          "indexed": false,
          "name": "amount",
          "type": "uint256"
        },
        {
          "indexed": false,
          "name": "old",
          "type": "uint256"
        }
      ],
      "name": "SetAmount",
      "type": "event"
    },
    {
      "anonymous": false,
      "inputs": [
        {
          "indexed": false,
          "name": "rate",
          "type": "uint256"
        },
        {
          "indexed": false,
          "name": "old",
          "type": "uint256"
        }
      ],
      "name": "SetRate",
      "type": "event"
    },
    {
      "anonymous": false,
      "inputs": [
        {
          "indexed": false,
          "name": "open",
          "type": "bool"
        },
        {
          "indexed": false,
          "name": "old",
          "type": "bool"
        }
      ],
      "name": "SetOpen",
      "type": "event"
    },
    {
      "anonymous": false,
      "inputs": [
        {
          "indexed": true,
          "name": "_prevOwner",
          "type": "address"
        },
        {
          "indexed": true,
          "name": "_newOwner",
          "type": "address"
        }
      ],
      "name": "OwnerUpdate",
      "type": "event"
    },
    {
      "anonymous": false,
      "inputs": [
        {
          "indexed": false,
          "name": "_sender",
          "type": "address"
        },
        {
          "indexed": false,
          "name": "_receiver",
          "type": "address"
        }
      ],
      "name": "ReceiverUpdate",
      "type": "event"
    },
    {
      "anonymous": false,
      "inputs": [
        {
          "indexed": false,
          "name": "_sender",
          "type": "address"
        },
        {
          "indexed": false,
          "name": "_receiver",
          "type": "address"
        }
      ],
      "name": "SenderUpdate",
      "type": "event"
    },
    {
      "constant": false,
      "inputs": [
        {
          "name": "_rate",
          "type": "uint256"
        }
      ],
      "name": "placeOrder",
      "outputs": [],
      "payable": false,
      "stateMutability": "nonpayable",
      "type": "function"
    },
    {
      "constant": true,
      "inputs": [],
      "name": "checkOrder",
      "outputs": [
        {
          "name": "check",
          "type": "uint256"
        }
      ],
      "payable": false,
      "stateMutability": "view",
      "type": "function"
    },
    {
      "constant": false,
      "inputs": [
        {
          "name": "_id",
          "type": "uint256"
        }
      ],
      "name": "cancelOrder",
      "outputs": [],
      "payable": false,
      "stateMutability": "nonpayable",
      "type": "function"
    },
    {
      "constant": true,
      "inputs": [],
      "name": "findDeal",
      "outputs": [
        {
          "name": "min",
          "type": "uint256"
        },
        {
          "name": "max",
          "type": "uint256"
        },
        {
          "name": "average",
          "type": "uint256"
        },
        {
          "name": "active",
          "type": "uint256"
        },
        {
          "name": "total",
          "type": "uint256"
        },
        {
          "name": "id",
          "type": "uint256"
        }
      ],
      "payable": false,
      "stateMutability": "view",
      "type": "function"
    },
    {
      "constant": false,
      "inputs": [
        {
          "name": "_id",
          "type": "uint256"
        }
      ],
      "name": "buyOrder",
      "outputs": [],
      "payable": true,
      "stateMutability": "payable",
      "type": "function"
    },
    {
      "constant": false,
      "inputs": [
        {
          "name": "_id",
          "type": "uint256"
        }
      ],
      "name": "payment",
      "outputs": [],
      "payable": false,
      "stateMutability": "nonpayable",
      "type": "function"
    },
    {
      "constant": false,
      "inputs": [
        {
          "name": "_amount",
          "type": "uint256"
        }
      ],
      "name": "setAmount",
      "outputs": [],
      "payable": false,
      "stateMutability": "nonpayable",
      "type": "function"
    },
    {
      "constant": false,
      "inputs": [
        {
          "name": "_rate",
          "type": "uint256"
        }
      ],
      "name": "setRate",
      "outputs": [],
      "payable": false,
      "stateMutability": "nonpayable",
      "type": "function"
    },
    {
      "constant": false,
      "inputs": [
        {
          "name": "_open",
          "type": "bool"
        }
      ],
      "name": "setOpen",
      "outputs": [],
      "payable": false,
      "stateMutability": "nonpayable",
      "type": "function"
    },
    {
      "constant": true,
      "inputs": [],
      "name": "getCurrentToken",
      "outputs": [
        {
          "name": "id",
          "type": "uint256"
        },
        {
          "name": "value",
          "type": "uint256"
        }
      ],
      "payable": false,
      "stateMutability": "view",
      "type": "function"
    },
    {
      "constant": true,
      "inputs": [
        {
          "name": "index",
          "type": "uint256"
        }
      ],
      "name": "getToken",
      "outputs": [
        {
          "name": "id",
          "type": "uint256"
        },
        {
          "name": "value",
          "type": "uint256"
        }
      ],
      "payable": false,
      "stateMutability": "view",
      "type": "function"
    },
    {
      "constant": true,
      "inputs": [],
      "name": "getBizProcessId",
      "outputs": [
        {
          "name": "contractOwner",
          "type": "address"
        },
        {
          "name": "bizProcessId",
          "type": "uint8"
        }
      ],
      "payable": false,
      "stateMutability": "view",
      "type": "function"
    }
  ],
  "bytecode": "0x608060405234801561001057600080fd5b506040516040806143d78339810180604052810190808051906020019092919080519060200190929190505050336000806101000a81548173ffffffffffffffffffffffffffffffffffffffff021916908373ffffffffffffffffffffffffffffffffffffffff1602179055506401c4fecc0060038190555066b1a2bc2ec5000060048190555081600560016101000a81548173ffffffffffffffffffffffffffffffffffffffff021916908373ffffffffffffffffffffffffffffffffffffffff16021790555080600660006101000a81548173ffffffffffffffffffffffffffffffffffffffff021916908373ffffffffffffffffffffffffffffffffffffffff1602179055506001600560006101000a81548160ff0219169083151502179055505050614292806101456000396000f30060806040526004361061013e576000357c0100000000000000000000000000000000000000000000000000000000900463ffffffff1680630dbf0021146101435780630e53aae9146101a75780631de565d61461022a578063228f2fc81461028157806322f85eaa146102ac578063271f88b4146102cc5780632c4e722e146102f957806334fcf43714610324578063514fcac7146103515780636fdca5e01461037e578063718da7ee146103ad57806379ba5097146103f05780638b3c99e3146104075780638da5cb5b14610434578063aa8c217c1461048b578063ba2255f4146104b6578063bca6ce64146104e3578063ced32b0c1461053a578063d4ee1d901461057d578063d68af5f4146105d4578063e4b50cb814610622578063ef2d17461461066a578063f2fde38b1461069c578063fcfff16f146106df575b600080fd5b34801561014f57600080fd5b5061015861070e565b604051808373ffffffffffffffffffffffffffffffffffffffff1673ffffffffffffffffffffffffffffffffffffffff1681526020018260ff1660ff1681526020019250505060405180910390f35b3480156101b357600080fd5b506101e8600480360381019080803573ffffffffffffffffffffffffffffffffffffffff169060200190929190505050610d07565b604051808273ffffffffffffffffffffffffffffffffffffffff1673ffffffffffffffffffffffffffffffffffffffff16815260200191505060405180910390f35b34801561023657600080fd5b5061023f610d3a565b604051808273ffffffffffffffffffffffffffffffffffffffff1673ffffffffffffffffffffffffffffffffffffffff16815260200191505060405180910390f35b34801561028d57600080fd5b50610296610d60565b6040518082815260200191505060405180910390f35b6102ca6004803603810190808035906020019092919050505061108f565b005b3480156102d857600080fd5b506102f760048036038101908080359060200190929190505050611b7e565b005b34801561030557600080fd5b5061030e611ca0565b6040518082815260200191505060405180910390f35b34801561033057600080fd5b5061034f60048036038101908080359060200190929190505050611ca6565b005b34801561035d57600080fd5b5061037c60048036038101908080359060200190929190505050611dc8565b005b34801561038a57600080fd5b506103ab600480360381019080803515159060200190929190505050612215565b005b3480156103b957600080fd5b506103ee600480360381019080803573ffffffffffffffffffffffffffffffffffffffff1690602001909291905050506122e6565b005b3480156103fc57600080fd5b50610405612456565b005b34801561041357600080fd5b50610432600480360381019080803590602001909291905050506125f5565b005b34801561044057600080fd5b50610449612cdf565b604051808273ffffffffffffffffffffffffffffffffffffffff1673ffffffffffffffffffffffffffffffffffffffff16815260200191505060405180910390f35b34801561049757600080fd5b506104a0612d04565b6040518082815260200191505060405180910390f35b3480156104c257600080fd5b506104e160048036038101908080359060200190929190505050612d0a565b005b3480156104ef57600080fd5b506104f86134e6565b604051808273ffffffffffffffffffffffffffffffffffffffff1673ffffffffffffffffffffffffffffffffffffffff16815260200191505060405180910390f35b34801561054657600080fd5b5061057b600480360381019080803573ffffffffffffffffffffffffffffffffffffffff16906020019092919050505061350c565b005b34801561058957600080fd5b5061059261367c565b604051808273ffffffffffffffffffffffffffffffffffffffff1673ffffffffffffffffffffffffffffffffffffffff16815260200191505060405180910390f35b3480156105e057600080fd5b506105e96136a2565b60405180878152602001868152602001858152602001848152602001838152602001828152602001965050505050505060405180910390f35b34801561062e57600080fd5b5061064d600480360381019080803590602001909291905050506139cd565b604051808381526020018281526020019250505060405180910390f35b34801561067657600080fd5b5061067f613d7f565b604051808381526020018281526020019250505060405180910390f35b3480156106a857600080fd5b506106dd600480360381019080803573ffffffffffffffffffffffffffffffffffffffff169060200190929190505050614128565b005b3480156106eb57600080fd5b506106f4614220565b604051808215151515815260200191505060405180910390f35b60008060008060008060009054906101000a900473ffffffffffffffffffffffffffffffffffffffff16945060009350600073ffffffffffffffffffffffffffffffffffffffff1660026000600660009054906101000a900473ffffffffffffffffffffffffffffffffffffffff1673ffffffffffffffffffffffffffffffffffffffff1673ffffffffffffffffffffffffffffffffffffffff16815260200190815260200160002060009054906101000a900473ffffffffffffffffffffffffffffffffffffffff1673ffffffffffffffffffffffffffffffffffffffff1614156107fd5760649350610d00565b610805613d7f565b8093508194505050600083141561096057600560019054906101000a900473ffffffffffffffffffffffffffffffffffffffff1673ffffffffffffffffffffffffffffffffffffffff1663dd62ed3e33306040518363ffffffff167c0100000000000000000000000000000000000000000000000000000000028152600401808373ffffffffffffffffffffffffffffffffffffffff1673ffffffffffffffffffffffffffffffffffffffff1681526020018273ffffffffffffffffffffffffffffffffffffffff1673ffffffffffffffffffffffffffffffffffffffff16815260200192505050602060405180830381600087803b15801561090757600080fd5b505af115801561091b573d6000803e3d6000fd5b505050506040513d602081101561093157600080fd5b810190808051906020019092919050505090506000811415610956576001935061095b565b600293505b610cff565b6002600481111561096d57fe5b600660009054906101000a900473ffffffffffffffffffffffffffffffffffffffff1673ffffffffffffffffffffffffffffffffffffffff16631ece83b0856040518263ffffffff167c010000000000000000000000000000000000000000000000000000000002815260040180828152602001915050602060405180830381600087803b1580156109fe57600080fd5b505af1158015610a12573d6000803e3d6000fd5b505050506040513d6020811015610a2857600080fd5b81019080805190602001909291905050501415610a4857600a9350610cfe565b60036004811115610a5557fe5b600660009054906101000a900473ffffffffffffffffffffffffffffffffffffffff1673ffffffffffffffffffffffffffffffffffffffff16631ece83b0856040518263ffffffff167c010000000000000000000000000000000000000000000000000000000002815260040180828152602001915050602060405180830381600087803b158015610ae657600080fd5b505af1158015610afa573d6000803e3d6000fd5b505050506040513d6020811015610b1057600080fd5b81019080805190602001909291905050501415610b3057600b9350610cfd565b60016004811115610b3d57fe5b600660009054906101000a900473ffffffffffffffffffffffffffffffffffffffff1673ffffffffffffffffffffffffffffffffffffffff16631ece83b0856040518263ffffffff167c010000000000000000000000000000000000000000000000000000000002815260040180828152602001915050602060405180830381600087803b158015610bce57600080fd5b505af1158015610be2573d6000803e3d6000fd5b505050506040513d6020811015610bf857600080fd5b81019080805190602001909291905050501415610c1857600c9350610cfc565b600480811115610c2457fe5b600660009054906101000a900473ffffffffffffffffffffffffffffffffffffffff1673ffffffffffffffffffffffffffffffffffffffff16631ece83b0856040518263ffffffff167c010000000000000000000000000000000000000000000000000000000002815260040180828152602001915050602060405180830381600087803b158015610cb557600080fd5b505af1158015610cc9573d6000803e3d6000fd5b505050506040513d6020811015610cdf57600080fd5b81019080805190602001909291905050501415610cfb57600d93505b5b5b5b5b5b5050509091565b60026020528060005260406000206000915054906101000a900473ffffffffffffffffffffffffffffffffffffffff1681565b600560019054906101000a900473ffffffffffffffffffffffffffffffffffffffff1681565b600080600080600066b1a2bc2ec50000935060009450600560019054906101000a900473ffffffffffffffffffffffffffffffffffffffff1673ffffffffffffffffffffffffffffffffffffffff1663dd62ed3e33306040518363ffffffff167c0100000000000000000000000000000000000000000000000000000000028152600401808373ffffffffffffffffffffffffffffffffffffffff1673ffffffffffffffffffffffffffffffffffffffff1681526020018273ffffffffffffffffffffffffffffffffffffffff1673ffffffffffffffffffffffffffffffffffffffff16815260200192505050602060405180830381600087803b158015610e6757600080fd5b505af1158015610e7b573d6000803e3d6000fd5b505050506040513d6020811015610e9157600080fd5b81019080805190602001909291905050509250600560019054906101000a900473ffffffffffffffffffffffffffffffffffffffff1673ffffffffffffffffffffffffffffffffffffffff1663313ce5676040518163ffffffff167c0100000000000000000000000000000000000000000000000000000000028152600401602060405180830381600087803b158015610f2a57600080fd5b505af1158015610f3e573d6000803e3d6000fd5b505050506040513d6020811015610f5457600080fd5b810190808051906020019092919050505060ff169150600560009054906101000a900460ff1615610f86576001850194505b600084141515610f9757600a850194505b60045484101515610fa9576064850194505b600073ffffffffffffffffffffffffffffffffffffffff16600560019054906101000a900473ffffffffffffffffffffffffffffffffffffffff1673ffffffffffffffffffffffffffffffffffffffff16141515611009576103e8850194505b60035483141561101b57612710850194505b6000600354111561102f57620186a0850194505b61103b84600354614233565b9050600060ff168211156110645781806001900392505081600a0a8181151561106057fe5b0490505b600082111561107657620f4240850194505b60008111156110885762989680850194505b5050505090565b6000806000600560009054906101000a900460ff161515611118576040517f08c379a00000000000000000000000000000000000000000000000000000000081526004018080602001828103825260128152602001807f45786368616e676520697320636c6f736564000000000000000000000000000081525060200191505060405180910390fd5b60008414151515611191576040517f08c379a00000000000000000000000000000000000000000000000000000000081526004018080602001828103825260128152602001807f4552524f523a204e46542069642069732030000000000000000000000000000081525060200191505060405180910390fd5b6002600481111561119e57fe5b600660009054906101000a900473ffffffffffffffffffffffffffffffffffffffff1673ffffffffffffffffffffffffffffffffffffffff16631ece83b0866040518263ffffffff167c010000000000000000000000000000000000000000000000000000000002815260040180828152602001915050602060405180830381600087803b15801561122f57600080fd5b505af1158015611243573d6000803e3d6000fd5b505050506040513d602081101561125957600080fd5b81019080805190602001909291905050501415156112df576040517f08c379a000000000000000000000000000000000000000000000000000000000815260040180806020018281038252601a8152602001807f4552524f523a204f72646572206973206e6f742061637469766500000000000081525060200191505060405180910390fd5b600073ffffffffffffffffffffffffffffffffffffffff16600560019054906101000a900473ffffffffffffffffffffffffffffffffffffffff1673ffffffffffffffffffffffffffffffffffffffff16141515156113a6576040517f08c379a00000000000000000000000000000000000000000000000000000000081526004018080602001828103825260178152602001807f4552524f523a205253542061646472657373206973203000000000000000000081525060200191505060405180910390fd5b600660009054906101000a900473ffffffffffffffffffffffffffffffffffffffff1673ffffffffffffffffffffffffffffffffffffffff16631d36e06c856040518263ffffffff167c010000000000000000000000000000000000000000000000000000000002815260040180828152602001915050602060405180830381600087803b15801561143757600080fd5b505af115801561144b573d6000803e3d6000fd5b505050506040513d602081101561146157600080fd5b81019080805190602001909291905050509250600073ffffffffffffffffffffffffffffffffffffffff168373ffffffffffffffffffffffffffffffffffffffff1614151515611519576040517f08c379a000000000000000000000000000000000000000000000000000000000815260040180806020018281038252601f8152602001807f4552524f523a204f72646572206f776e6572206164647265737320697320300081525060200191505060405180910390fd5b600560019054906101000a900473ffffffffffffffffffffffffffffffffffffffff1673ffffffffffffffffffffffffffffffffffffffff1663dd62ed3e84306040518363ffffffff167c0100000000000000000000000000000000000000000000000000000000028152600401808373ffffffffffffffffffffffffffffffffffffffff1673ffffffffffffffffffffffffffffffffffffffff1681526020018273ffffffffffffffffffffffffffffffffffffffff1673ffffffffffffffffffffffffffffffffffffffff16815260200192505050602060405180830381600087803b15801561160a57600080fd5b505af115801561161e573d6000803e3d6000fd5b505050506040513d602081101561163457600080fd5b81019080805190602001909291905050509150600354821415156116e6576040517f08c379a000000000000000000000000000000000000000000000000000000000815260040180806020018281038252602e8152602001807f4552524f523a20416c6c6f77616e636520666f722052535420746f6b656e206981526020017f73206e6f742070726f766964656400000000000000000000000000000000000081525060400191505060405180910390fd5b600660009054906101000a900473ffffffffffffffffffffffffffffffffffffffff1673ffffffffffffffffffffffffffffffffffffffff1663f5962e2d856040518263ffffffff167c010000000000000000000000000000000000000000000000000000000002815260040180828152602001915050602060405180830381600087803b15801561177757600080fd5b505af115801561178b573d6000803e3d6000fd5b505050506040513d60208110156117a157600080fd5b810190808051906020019092919050505090506000811415151561182d576040517f08c379a00000000000000000000000000000000000000000000000000000000081526004018080602001828103825260178152602001807f4552524f523a204f726465722076616c7565206973203000000000000000000081525060200191505060405180910390fd5b34811415156118ca576040517f08c379a00000000000000000000000000000000000000000000000000000000081526004018080602001828103825260308152602001807f4552524f523a204f726465722076616c7565206973206e6f7420657175616c2081526020017f746f206d6573736167652076616c75650000000000000000000000000000000081525060400191505060405180910390fd5b600560019054906101000a900473ffffffffffffffffffffffffffffffffffffffff1673ffffffffffffffffffffffffffffffffffffffff166323b872dd84336003546040518463ffffffff167c0100000000000000000000000000000000000000000000000000000000028152600401808473ffffffffffffffffffffffffffffffffffffffff1673ffffffffffffffffffffffffffffffffffffffff1681526020018373ffffffffffffffffffffffffffffffffffffffff1673ffffffffffffffffffffffffffffffffffffffff1681526020018281526020019350505050602060405180830381600087803b1580156119c557600080fd5b505af11580156119d9573d6000803e3d6000fd5b505050506040513d60208110156119ef57600080fd5b81019080805190602001909291905050501515611a74576040517f08c379a00000000000000000000000000000000000000000000000000000000081526004018080602001828103825260138152602001807f4552524f523a20525354207472616e736665720000000000000000000000000081525060200191505060405180910390fd5b600660009054906101000a900473ffffffffffffffffffffffffffffffffffffffff1673ffffffffffffffffffffffffffffffffffffffff16638dc63d198560036004811115611ac057fe5b6040518363ffffffff167c01000000000000000000000000000000000000000000000000000000000281526004018083815260200182815260200192505050600060405180830381600087803b158015611b1957600080fd5b505af1158015611b2d573d6000803e3d6000fd5b505050507fb05532e21b444e9778dc1661bc462d41ba18ec113dc5e87d9d7a3849ff02d1e884838360405180848152602001838152602001828152602001935050505060405180910390a150505050565b60008060009054906101000a900473ffffffffffffffffffffffffffffffffffffffff1673ffffffffffffffffffffffffffffffffffffffff163373ffffffffffffffffffffffffffffffffffffffff16141515611bd857fe5b60008214151515611c51576040517f08c379a00000000000000000000000000000000000000000000000000000000081526004018080602001828103825260128152602001807f4552524f523a20616d6f756e742069732030000000000000000000000000000081525060200191505060405180910390fd5b6003549050816003819055507f6a1a1ff90ae3fd5b978159d028ceb33c54751ea49f6a1d7e64ddfc954aa9785e8282604051808381526020018281526020019250505060405180910390a15050565b60045481565b60008060009054906101000a900473ffffffffffffffffffffffffffffffffffffffff1673ffffffffffffffffffffffffffffffffffffffff163373ffffffffffffffffffffffffffffffffffffffff16141515611d0057fe5b60008214151515611d79576040517f08c379a00000000000000000000000000000000000000000000000000000000081526004018080602001828103825260108152602001807f4552524f523a207261746520697320300000000000000000000000000000000081525060200191505060405180910390fd5b6004549050816004819055507f3a8f7e78fe36c54b4f888a309efa91eba128acb04cc1c2ffa0e5c4db7b4a87858282604051808381526020018281526020019250505060405180910390a15050565b600560009054906101000a900460ff161515611e4c576040517f08c379a00000000000000000000000000000000000000000000000000000000081526004018080602001828103825260128152602001807f45786368616e676520697320636c6f736564000000000000000000000000000081525060200191505060405180910390fd5b60008114151515611ec5576040517f08c379a00000000000000000000000000000000000000000000000000000000081526004018080602001828103825260188152602001807f4552524f523a204e465420746f6b656e2069642069732030000000000000000081525060200191505060405180910390fd5b600660009054906101000a900473ffffffffffffffffffffffffffffffffffffffff1673ffffffffffffffffffffffffffffffffffffffff1663818d4b5d33836040518363ffffffff167c0100000000000000000000000000000000000000000000000000000000028152600401808373ffffffffffffffffffffffffffffffffffffffff1673ffffffffffffffffffffffffffffffffffffffff16815260200182815260200192505050602060405180830381600087803b158015611f8a57600080fd5b505af1158015611f9e573d6000803e3d6000fd5b505050506040513d6020811015611fb457600080fd5b81019080805190602001909291905050501515612039576040517f08c379a00000000000000000000000000000000000000000000000000000000081526004018080602001828103825260178152602001807f4552524f523a204f6e6c7920746f6b656e206f776e657200000000000000000081525060200191505060405180910390fd5b600660009054906101000a900473ffffffffffffffffffffffffffffffffffffffff1673ffffffffffffffffffffffffffffffffffffffff16638dc63d198260048081111561208457fe5b6040518363ffffffff167c01000000000000000000000000000000000000000000000000000000000281526004018083815260200182815260200192505050600060405180830381600087803b1580156120dd57600080fd5b505af11580156120f1573d6000803e3d6000fd5b50505050600660009054906101000a900473ffffffffffffffffffffffffffffffffffffffff1673ffffffffffffffffffffffffffffffffffffffff1663cedf5f4a8260006040518363ffffffff167c01000000000000000000000000000000000000000000000000000000000281526004018083815260200182815260200192505050600060405180830381600087803b15801561218f57600080fd5b505af11580156121a3573d6000803e3d6000fd5b505050507f8dd3c361eb2366ff27c2db0eb07b9261f1d052570742ab8c9a0c326f37aa576d8133604051808381526020018273ffffffffffffffffffffffffffffffffffffffff1673ffffffffffffffffffffffffffffffffffffffff1681526020019250505060405180910390a150565b60008060009054906101000a900473ffffffffffffffffffffffffffffffffffffffff1673ffffffffffffffffffffffffffffffffffffffff163373ffffffffffffffffffffffffffffffffffffffff1614151561226f57fe5b600560009054906101000a900460ff16905081600560006101000a81548160ff0219169083151502179055507f40f0e387353f5f027b910f09f6540a87aea442ba272793ca67f1603ca2d629ba82826040518083151515158152602001821515151581526020019250505060405180910390a15050565b6000809054906101000a900473ffffffffffffffffffffffffffffffffffffffff1673ffffffffffffffffffffffffffffffffffffffff163373ffffffffffffffffffffffffffffffffffffffff1614151561233e57fe5b80600260003073ffffffffffffffffffffffffffffffffffffffff1673ffffffffffffffffffffffffffffffffffffffff16815260200190815260200160002060006101000a81548173ffffffffffffffffffffffffffffffffffffffff021916908373ffffffffffffffffffffffffffffffffffffffff1602179055507f88477ef2e6ee708c15e490fc6b373fe9ca955c32fc8679cd5b820323f20e2b9f3082604051808373ffffffffffffffffffffffffffffffffffffffff1673ffffffffffffffffffffffffffffffffffffffff1681526020018273ffffffffffffffffffffffffffffffffffffffff1673ffffffffffffffffffffffffffffffffffffffff1681526020019250505060405180910390a150565b600160009054906101000a900473ffffffffffffffffffffffffffffffffffffffff1673ffffffffffffffffffffffffffffffffffffffff163373ffffffffffffffffffffffffffffffffffffffff161415156124b257600080fd5b600160009054906101000a900473ffffffffffffffffffffffffffffffffffffffff1673ffffffffffffffffffffffffffffffffffffffff166000809054906101000a900473ffffffffffffffffffffffffffffffffffffffff1673ffffffffffffffffffffffffffffffffffffffff167f343765429aea5a34b3ff6a3785a98a5abb2597aca87bfbb58632c173d585373a60405160405180910390a3600160009054906101000a900473ffffffffffffffffffffffffffffffffffffffff166000806101000a81548173ffffffffffffffffffffffffffffffffffffffff021916908373ffffffffffffffffffffffffffffffffffffffff1602179055506000600160006101000a81548173ffffffffffffffffffffffffffffffffffffffff021916908373ffffffffffffffffffffffffffffffffffffffff160217905550565b600080600560009054906101000a900460ff16151561267c576040517f08c379a00000000000000000000000000000000000000000000000000000000081526004018080602001828103825260128152602001807f45786368616e676520697320636c6f736564000000000000000000000000000081525060200191505060405180910390fd5b600083141515156126f5576040517f08c379a00000000000000000000000000000000000000000000000000000000081526004018080602001828103825260188152602001807f4552524f523a204e465420746f6b656e2069642069732030000000000000000081525060200191505060405180910390fd5b600660009054906101000a900473ffffffffffffffffffffffffffffffffffffffff1673ffffffffffffffffffffffffffffffffffffffff1663818d4b5d33856040518363ffffffff167c0100000000000000000000000000000000000000000000000000000000028152600401808373ffffffffffffffffffffffffffffffffffffffff1673ffffffffffffffffffffffffffffffffffffffff16815260200182815260200192505050602060405180830381600087803b1580156127ba57600080fd5b505af11580156127ce573d6000803e3d6000fd5b505050506040513d60208110156127e457600080fd5b81019080805190602001909291905050501515612869576040517f08c379a00000000000000000000000000000000000000000000000000000000081526004018080602001828103825260178152602001807f4552524f523a204f6e6c7920746f6b656e206f776e657200000000000000000081525060200191505060405180910390fd5b6003600481111561287657fe5b600660009054906101000a900473ffffffffffffffffffffffffffffffffffffffff1673ffffffffffffffffffffffffffffffffffffffff16631ece83b0856040518263ffffffff167c010000000000000000000000000000000000000000000000000000000002815260040180828152602001915050602060405180830381600087803b15801561290757600080fd5b505af115801561291b573d6000803e3d6000fd5b505050506040513d602081101561293157600080fd5b81019080805190602001909291905050501415156129dd576040517f08c379a00000000000000000000000000000000000000000000000000000000081526004018080602001828103825260298152602001807f4552524f523a204f72646572206973206e6f7420696e2074686520457865637581526020017f746564207374617465000000000000000000000000000000000000000000000081525060400191505060405180910390fd5b3073ffffffffffffffffffffffffffffffffffffffff16319150600660009054906101000a900473ffffffffffffffffffffffffffffffffffffffff1673ffffffffffffffffffffffffffffffffffffffff1663f5962e2d846040518263ffffffff167c010000000000000000000000000000000000000000000000000000000002815260040180828152602001915050602060405180830381600087803b158015612a8857600080fd5b505af1158015612a9c573d6000803e3d6000fd5b505050506040513d6020811015612ab257600080fd5b81019080805190602001909291905050509050808210151515612b63576040517f08c379a00000000000000000000000000000000000000000000000000000000081526004018080602001828103825260288152602001807f4552524f523a2045786368616e67652069732073686f7274206f662066756e6481526020017f7320746f2070617900000000000000000000000000000000000000000000000081525060400191505060405180910390fd5b3373ffffffffffffffffffffffffffffffffffffffff166108fc829081150290604051600060405180830381858888f19350505050158015612ba9573d6000803e3d6000fd5b50600660009054906101000a900473ffffffffffffffffffffffffffffffffffffffff1673ffffffffffffffffffffffffffffffffffffffff16638dc63d198460016004811115612bf657fe5b6040518363ffffffff167c01000000000000000000000000000000000000000000000000000000000281526004018083815260200182815260200192505050600060405180830381600087803b158015612c4f57600080fd5b505af1158015612c63573d6000803e3d6000fd5b505050507fd1432ca9a38d944f01b256a411861b109bc4bfe200c40d7144e919a16b86a8a8838233604051808481526020018381526020018273ffffffffffffffffffffffffffffffffffffffff1673ffffffffffffffffffffffffffffffffffffffff168152602001935050505060405180910390a1505050565b6000809054906101000a900473ffffffffffffffffffffffffffffffffffffffff1681565b60035481565b600080600080600560009054906101000a900460ff161515612d94576040517f08c379a00000000000000000000000000000000000000000000000000000000081526004018080602001828103825260128152602001807f45786368616e676520697320636c6f736564000000000000000000000000000081525060200191505060405180910390fd5b60008514151515612e0d576040517f08c379a000000000000000000000000000000000000000000000000000000000815260040180806020018281038252601b8152602001807f4552524f523a205253542f4554482072617465206973207a65726f000000000081525060200191505060405180910390fd5b6004548510151515612e87576040517f08c379a000000000000000000000000000000000000000000000000000000000815260040180806020018281038252601e8152602001807f4552524f523a205253542f455448207261746520697320746f6f206c6f77000081525060200191505060405180910390fd5b600073ffffffffffffffffffffffffffffffffffffffff16600560019054906101000a900473ffffffffffffffffffffffffffffffffffffffff1673ffffffffffffffffffffffffffffffffffffffff1614151515612f4e576040517f08c379a00000000000000000000000000000000000000000000000000000000081526004018080602001828103825260178152602001807f4552524f523a205253542061646472657373206973203000000000000000000081525060200191505060405180910390fd5b600560019054906101000a900473ffffffffffffffffffffffffffffffffffffffff1673ffffffffffffffffffffffffffffffffffffffff1663dd62ed3e33306040518363ffffffff167c0100000000000000000000000000000000000000000000000000000000028152600401808373ffffffffffffffffffffffffffffffffffffffff1673ffffffffffffffffffffffffffffffffffffffff1681526020018273ffffffffffffffffffffffffffffffffffffffff1673ffffffffffffffffffffffffffffffffffffffff16815260200192505050602060405180830381600087803b15801561303f57600080fd5b505af1158015613053573d6000803e3d6000fd5b505050506040513d602081101561306957600080fd5b810190808051906020019092919050505093506003548414151561311b576040517f08c379a000000000000000000000000000000000000000000000000000000000815260040180806020018281038252602e8152602001807f4552524f523a20416c6c6f77616e636520666f722052535420746f6b656e206981526020017f73206e6f742070726f766964656400000000000000000000000000000000000081525060400191505060405180910390fd5b600560019054906101000a900473ffffffffffffffffffffffffffffffffffffffff1673ffffffffffffffffffffffffffffffffffffffff1663313ce5676040518163ffffffff167c0100000000000000000000000000000000000000000000000000000000028152600401602060405180830381600087803b1580156131a157600080fd5b505af11580156131b5573d6000803e3d6000fd5b505050506040513d60208110156131cb57600080fd5b810190808051906020019092919050505060ff1692506131ed85600354614233565b9150600060ff168311156132165782806001900393505082600a0a8281151561321257fe5b0491505b600660009054906101000a900473ffffffffffffffffffffffffffffffffffffffff1673ffffffffffffffffffffffffffffffffffffffff1663192cc2d5836001336040518463ffffffff167c010000000000000000000000000000000000000000000000000000000002815260040180848152602001806020018481526020018373ffffffffffffffffffffffffffffffffffffffff1673ffffffffffffffffffffffffffffffffffffffff168152602001828103825260058152602001807f4f72646572000000000000000000000000000000000000000000000000000000815250602001945050505050602060405180830381600087803b15801561331d57600080fd5b505af1158015613331573d6000803e3d6000fd5b505050506040513d602081101561334757600080fd5b81019080805190602001909291905050509050600081141515156133d3576040517f08c379a00000000000000000000000000000000000000000000000000000000081526004018080602001828103825260128152602001807f4552524f523a204e46542069642069732030000000000000000000000000000081525060200191505060405180910390fd5b600660009054906101000a900473ffffffffffffffffffffffffffffffffffffffff1673ffffffffffffffffffffffffffffffffffffffff16638dc63d19826002600481111561341f57fe5b6040518363ffffffff167c01000000000000000000000000000000000000000000000000000000000281526004018083815260200182815260200192505050600060405180830381600087803b15801561347857600080fd5b505af115801561348c573d6000803e3d6000fd5b505050507f397359295290c77b5722fad3de13ac9344c59cfaeb8dd4d3011f286c51500630818684876040518085815260200184815260200183815260200182815260200194505050505060405180910390a15050505050565b600660009054906101000a900473ffffffffffffffffffffffffffffffffffffffff1681565b6000809054906101000a900473ffffffffffffffffffffffffffffffffffffffff1673ffffffffffffffffffffffffffffffffffffffff163373ffffffffffffffffffffffffffffffffffffffff1614151561356457fe5b30600260008373ffffffffffffffffffffffffffffffffffffffff1673ffffffffffffffffffffffffffffffffffffffff16815260200190815260200160002060006101000a81548173ffffffffffffffffffffffffffffffffffffffff021916908373ffffffffffffffffffffffffffffffffffffffff1602179055507f25245aeb6dcc1afb9053581af7e6b984f2191e80b27c263b11c45d821a566a538130604051808373ffffffffffffffffffffffffffffffffffffffff1673ffffffffffffffffffffffffffffffffffffffff1681526020018273ffffffffffffffffffffffffffffffffffffffff1673ffffffffffffffffffffffffffffffffffffffff1681526020019250505060405180910390a150565b600160009054906101000a900473ffffffffffffffffffffffffffffffffffffffff1681565b600080600080600080600080600080600660009054906101000a900473ffffffffffffffffffffffffffffffffffffffff1673ffffffffffffffffffffffffffffffffffffffff166318160ddd6040518163ffffffff167c0100000000000000000000000000000000000000000000000000000000028152600401602060405180830381600087803b15801561373757600080fd5b505af115801561374b573d6000803e3d6000fd5b505050506040513d602081101561376157600080fd5b81019080805190602001909291905050509350600094506000995060009850600097506000965060009550600084141561379a576139c1565b6137a8600454600354614233565b9950600192505b838311151561399e57600660009054906101000a900473ffffffffffffffffffffffffffffffffffffffff1673ffffffffffffffffffffffffffffffffffffffff16631ece83b0846040518263ffffffff167c010000000000000000000000000000000000000000000000000000000002815260040180828152602001915050602060405180830381600087803b15801561384957600080fd5b505af115801561385d573d6000803e3d6000fd5b505050506040513d602081101561387357600080fd5b81019080805190602001909291905050509150600660009054906101000a900473ffffffffffffffffffffffffffffffffffffffff1673ffffffffffffffffffffffffffffffffffffffff1663f5962e2d846040518263ffffffff167c010000000000000000000000000000000000000000000000000000000002815260040180828152602001915050602060405180830381600087803b15801561391757600080fd5b505af115801561392b573d6000803e3d6000fd5b505050506040513d602081101561394157600080fd5b810190808051906020019092919050505090506002600481111561396157fe5b821415613991578680600101975050808601955089811015613984578099508294505b88811115613990578098505b5b82806001019350506137af565b6000871415156139bb5786868115156139b357fe5b0497506139c0565b600099505b5b50505050909192939495565b60008060606000809054906101000a900473ffffffffffffffffffffffffffffffffffffffff1673ffffffffffffffffffffffffffffffffffffffff163373ffffffffffffffffffffffffffffffffffffffff161415613a34576000925060009150613d79565b600660009054906101000a900473ffffffffffffffffffffffffffffffffffffffff1673ffffffffffffffffffffffffffffffffffffffff16638462151c336040518263ffffffff167c0100000000000000000000000000000000000000000000000000000000028152600401808273ffffffffffffffffffffffffffffffffffffffff1673ffffffffffffffffffffffffffffffffffffffff168152602001915050600060405180830381600087803b158015613af157600080fd5b505af1158015613b05573d6000803e3d6000fd5b505050506040513d6000823e3d601f19601f820116820180604052506020811015613b2f57600080fd5b810190808051640100000000811115613b4757600080fd5b82810190506020810184811115613b5d57600080fd5b8151856020820283011164010000000082111715613b7a57600080fd5b5050929190505050905060008151118015613b955750805184105b613ba0576000613bb9565b8084815181101515613bae57fe5b906020019060200201515b925060009150600083141515613d785760036004811115613bd657fe5b600660009054906101000a900473ffffffffffffffffffffffffffffffffffffffff1673ffffffffffffffffffffffffffffffffffffffff16631ece83b0856040518263ffffffff167c010000000000000000000000000000000000000000000000000000000002815260040180828152602001915050602060405180830381600087803b158015613c6757600080fd5b505af1158015613c7b573d6000803e3d6000fd5b505050506040513d6020811015613c9157600080fd5b81019080805190602001909291905050501415613d7757600660009054906101000a900473ffffffffffffffffffffffffffffffffffffffff1673ffffffffffffffffffffffffffffffffffffffff1663f5962e2d846040518263ffffffff167c010000000000000000000000000000000000000000000000000000000002815260040180828152602001915050602060405180830381600087803b158015613d3957600080fd5b505af1158015613d4d573d6000803e3d6000fd5b505050506040513d6020811015613d6357600080fd5b810190808051906020019092919050505091505b5b5b50915091565b60008060606000809054906101000a900473ffffffffffffffffffffffffffffffffffffffff1673ffffffffffffffffffffffffffffffffffffffff163373ffffffffffffffffffffffffffffffffffffffff161415613de6576000925060009150614123565b600660009054906101000a900473ffffffffffffffffffffffffffffffffffffffff1673ffffffffffffffffffffffffffffffffffffffff16638462151c336040518263ffffffff167c0100000000000000000000000000000000000000000000000000000000028152600401808273ffffffffffffffffffffffffffffffffffffffff1673ffffffffffffffffffffffffffffffffffffffff168152602001915050600060405180830381600087803b158015613ea357600080fd5b505af1158015613eb7573d6000803e3d6000fd5b505050506040513d6000823e3d601f19601f820116820180604052506020811015613ee157600080fd5b810190808051640100000000811115613ef957600080fd5b82810190506020810184811115613f0f57600080fd5b8151856020820283011164010000000082111715613f2c57600080fd5b505092919050505090506000815111613f46576000613f63565b806001825103815181101515613f5857fe5b906020019060200201515b9250600091506000831415156141225760036004811115613f8057fe5b600660009054906101000a900473ffffffffffffffffffffffffffffffffffffffff1673ffffffffffffffffffffffffffffffffffffffff16631ece83b0856040518263ffffffff167c010000000000000000000000000000000000000000000000000000000002815260040180828152602001915050602060405180830381600087803b15801561401157600080fd5b505af1158015614025573d6000803e3d6000fd5b505050506040513d602081101561403b57600080fd5b8101908080519060200190929190505050141561412157600660009054906101000a900473ffffffffffffffffffffffffffffffffffffffff1673ffffffffffffffffffffffffffffffffffffffff1663f5962e2d846040518263ffffffff167c010000000000000000000000000000000000000000000000000000000002815260040180828152602001915050602060405180830381600087803b1580156140e357600080fd5b505af11580156140f7573d6000803e3d6000fd5b505050506040513d602081101561410d57600080fd5b810190808051906020019092919050505091505b5b5b509091565b6000809054906101000a900473ffffffffffffffffffffffffffffffffffffffff1673ffffffffffffffffffffffffffffffffffffffff163373ffffffffffffffffffffffffffffffffffffffff1614151561418057fe5b6000809054906101000a900473ffffffffffffffffffffffffffffffffffffffff1673ffffffffffffffffffffffffffffffffffffffff168173ffffffffffffffffffffffffffffffffffffffff16141515156141dc57600080fd5b80600160006101000a81548173ffffffffffffffffffffffffffffffffffffffff021916908373ffffffffffffffffffffffffffffffffffffffff16021790555050565b600560009054906101000a900460ff1681565b60008082840290506000841480614254575082848281151561425157fe5b04145b151561425c57fe5b80915050929150505600a165627a7a7230582062aa12bde602a367e9fa536a16a91cdcb20550a5c0f3e8f07e470a0660d118400029",
  "source": "// \n// MIT License\n// \n// Copyright (c) 2018 REGA Risk Sharing\n//   \n// Permission is hereby granted, free of charge, to any person obtaining a copy\n// of this software and associated documentation files (the \"Software\"), to deal\n// in the Software without restriction, including without limitation the rights\n// to use, copy, modify, merge, publish, distribute, sublicense, and/or sell\n// copies of the Software, and to permit persons to whom the Software is\n// furnished to do so, subject to the following conditions:\n// \n// The above copyright notice and this permission notice shall be included in all\n// copies or substantial portions of the Software.\n// \n// THE SOFTWARE IS PROVIDED \"AS IS\", WITHOUT WARRANTY OF ANY KIND, EXPRESS OR\n// IMPLIED, INCLUDING BUT NOT LIMITED TO THE WARRANTIES OF MERCHANTABILITY,\n// FITNESS FOR A PARTICULAR PURPOSE AND NONINFRINGEMENT. IN NO EVENT SHALL THE\n// AUTHORS OR COPYRIGHT HOLDERS BE LIABLE FOR ANY CLAIM, DAMAGES OR OTHER\n// LIABILITY, WHETHER IN AN ACTION OF CONTRACT, TORT OR OTHERWISE, ARISING FROM,\n// OUT OF OR IN CONNECTION WITH THE SOFTWARE OR THE USE OR OTHER DEALINGS IN THE\n// SOFTWARE.\n// \n// Author: Sergei Sevriugin\n// Version: 0.0.1\n//  \n\npragma solidity ^0.4.17;\n\nimport \"./Utils.sol\";\nimport \"./Owned.sol\";\n\nimport \"./interfaces/IERC20Token.sol\";\nimport \"./interfaces/IERC721SmartToken.sol\";\n\n\n/// SimpleExchange is RST <--> ETH echange based on ERC721 Smart token\ncontract SimpleExchange is Utils, Owned() {\n\n    /// SimpleExchange Place Order event\n    /// @param id NFT token ID for the order\n    /// @param rate RST/ETH exchange rate\n    /// @param value exchange value in ETH\n    /// @param allowance exchange value in RST\n    event Place(uint256 id, uint256 rate, uint256 value, uint256 allowance);\n\n    /// SimpleExchange Cancel Order event\n    /// @param id NFT token ID for the order\n    /// @param owner NFT token owner\n    event Cancel(uint256 id, address owner);\n\n    /// SimpleExchange Buy event\n    /// @param id NFT token ID for the order to purchase\n    /// @param value RST value that was transfered to buyer\n    /// @param amount ETH amount buyer has been paid (on contract account)\n    event Buy(uint256 id, uint256 value, uint256 amount);\n\n     /// SimpleExchange payment event\n    /// @param id is NFT Order id\n    /// @param amount ETH amount to receive\n    /// @param owner NFT Order token owner\n    event Payment(uint256 id, uint256 amount, address owner);\n\n    /// SimpleExchange set amount event\n    /// @param amount is new value\n    /// @param old is old value\n    event SetAmount(uint256 amount, uint256 old);\n\n    /// SimpleExchange set rate event\n    /// @param rate is new rate\n    /// @param old is old rate\n    event SetRate(uint256 rate, uint256 old);\n\n    /// SimpleExchange set open event\n    /// @param open is new open value\n    /// @param old is old open value\n    event SetOpen(bool open, bool old);\n   \n\n    /// RST token amount for order\n    uint256 public amount;\n    /// RST/ETH minimum rate\n    uint256 public rate;\n    /// SimpleExchange is open\n    bool public open;\n    /// RST smart contract address\n    IERC20Token public RST;\n    /// ERC721 Smart Token\n    IERC721SmartToken public erc721;\n    /// Order Status\n    enum Status {Init, Closed, Active, Executed, Canceled}\n\n    /// placeOrder\n    /// @param _rate RST/ETH echange rate, must be >= rate\n    function placeOrder(uint256 _rate) public {\n        require(open, \"Exchange is closed\");\n        require(_rate != uint256(0), \"ERROR: RST/ETH rate is zero\");\n        require(_rate >= rate, \"ERROR: RST/ETH rate is too low\");\n        require(RST != address(0),\"ERROR: RST address is 0\");  \n        uint _allowance = RST.allowance(msg.sender, address(this));\n        require(_allowance == amount, \"ERROR: Allowance for RST token is not provided\");\n        uint256 _decimals = uint256(RST.decimals());\n        uint _value = safeMul(_rate, amount);\n        if (_decimals > uint8(0)) {                   // ... check if RST decimals is not 0\n            _decimals--;\n            _value = _value / (10 ** _decimals);      // ... and use decimals to convert RST to ETH\n        }\n        uint _id = erc721.createNFT(_value, \"Order\", uint(1), msg.sender);\n        require(_id != uint256(0), \"ERROR: NFT id is 0\");\n        erc721.setNFTState(_id, uint256(Status.Active));\n\n        emit Place(_id, _rate, _value, _allowance);\n    }\n\n    function checkOrder() public view returns (uint256 check) {\n        uint256 _rate = 50000000000000000;\n        check = uint(0);\n        uint _allowance = RST.allowance(msg.sender, address(this));\n        uint256 _decimals = uint256(RST.decimals());\n        \n        if(open) check = check + 1;\n        if(_rate != uint256(0)) check = check + 10;\n        if(_rate >= rate) check = check + 100;\n        if(RST != address(0)) check = check + 1000;\n        if(_allowance == amount) check = check + 10000;\n        if(amount > 0) check = check + 100000;\n        uint _value = safeMul(_rate, amount);\n        if (_decimals > uint8(0)) {                   // ... check if RST decimals is not 0\n            _decimals--;\n            _value = _value / (10 ** _decimals);      // ... and use decimals to convert RST to ETH\n        }\n        if(_decimals > 0) check = check + 1000000;\n        if(_value > 0) check = check + 10000000;\n    }\n\n    /// cancelOrder \n    /// @param _id NFT token id for order to cancel\n    function cancelOrder(uint256 _id) public {\n        require(open, \"Exchange is closed\");\n        require(_id != uint256(0),\"ERROR: NFT token id is 0\");\n        require(erc721.owns(msg.sender, _id), \"ERROR: Only token owner\");\n\n        erc721.setNFTState(_id, uint256(Status.Canceled));\n        erc721.setNFTValue(_id,  uint(0));\n\n        emit Cancel(_id, msg.sender);\n    }\n\n    /// find deal \n    function findDeal() public view returns(uint256 min, uint256 max, uint256 average, uint256 active, uint256 total, uint256 id) {\n        uint256 count = erc721.totalSupply();\n\n        id = 0;\n        min = uint256(0);\n        max = uint256(0);\n        average = uint256(0);\n        active = uint256(0);\n        total = uint256(0);\n        \n        if( count == uint256(0) ) {\n            return;\n        }\n\n        min = safeMul(rate, amount);\n\n        for (uint256 _id = 1; _id <= count; _id++) {\n\n            uint256 state = erc721.getNFTState(_id);\n            uint256 value = erc721.getNFTValue(_id);\n\n            if(state == uint256(Status.Active)) {\n                active++;\n                total = total + value;\n                if(value < min) {\n                    min = value;\n                    id = _id;\n                }\n                if(value > max) {\n                    max = value;\n                }\n            }\n        }\n        if(active != uint256(0)) {\n            average = total / active; \n        } \n        else {\n            min = uint256(0);\n        }\n    }\n\n    /// buyOrder \n    /// @param _id NFT token id to buy from \n    function buyOrder(uint256 _id) public payable {\n        require(open, \"Exchange is closed\");\n        require(_id != uint256(0), \"ERROR: NFT id is 0\");\n        require(erc721.getNFTState(_id) == uint256(Status.Active), \"ERROR: Order is not active\");\n        require(RST != address(0),\"ERROR: RST address is 0\");\n        address _owner = erc721.tokenIndexToOwner(_id);\n        require(_owner != address(0), \"ERROR: Order owner address is 0\");\n        uint _allowance = RST.allowance(_owner, address(this));\n        require(_allowance == amount, \"ERROR: Allowance for RST token is not provided\");\n        uint _value = erc721.getNFTValue(_id);\n        require(_value != uint256(0), \"ERROR: Order value is 0\");\n        require(_value == msg.value, \"ERROR: Order value is not equal to message value\");\n        require(RST.transferFrom(_owner, msg.sender, amount),\"ERROR: RST transfer\");\n\n        erc721.setNFTState(_id, uint256(Status.Executed));\n\n        emit Buy(_id, _allowance, _value);\n    }\n\n    /// payment \n    /// @param _id NFT token to collect the payment from Executed order\n    function payment(uint256 _id) public {\n        require(open, \"Exchange is closed\");\n        require(_id != uint256(0),\"ERROR: NFT token id is 0\");\n        require(erc721.owns(msg.sender, _id), \"ERROR: Only token owner\");\n        require(erc721.getNFTState(_id) == uint256(Status.Executed), \"ERROR: Order is not in the Executed state\");\n        uint256 balance = address(this).balance;\n        uint256 _value = erc721.getNFTValue(_id);\n        require(balance >= _value, \"ERROR: Exchange is short of funds to pay\");\n        msg.sender.transfer(_value);\n\n        erc721.setNFTState(_id, uint256(Status.Closed));\n\n        emit Payment(_id, _value, msg.sender);\n    }\n    function setAmount(uint256 _amount) public ownerOnly {\n        require(_amount != uint256(0),\"ERROR: amount is 0\");\n        uint _old = amount;\n        amount = _amount;\n\n        emit SetAmount(_amount, _old);\n    }\n    function setRate(uint256 _rate) public ownerOnly {\n        require(_rate != uint256(0),\"ERROR: rate is 0\");\n        uint _old = rate;\n        rate = _rate;\n\n        emit SetRate(_rate, _old);\n    }\n    function setOpen(bool _open) public ownerOnly {\n        bool _old = open;\n        open = _open;\n\n        emit SetOpen(_open, _old);\n    }\n    /// token ID helpers\n    function getCurrentToken() public view returns (uint256 id, uint256 value) {\n        if(msg.sender == owner) {\n            id = uint256(0);                         // return 0 for owner\n            value = uint256(0);\n        }\n        else {\n            uint256[] memory tokenIds = erc721.tokensOfOwner(msg.sender);\n            id = tokenIds.length > 0 ? tokenIds[tokenIds.length-1] : uint256(0);\n            value = uint256(0);\n            if(id != uint256(0)) {\n                if(erc721.getNFTState(id) == uint256(Status.Executed)) {\n                    value = erc721.getNFTValue(id);\n                }\n            }\n        }\n    }\n    function getToken(uint256 index) public view returns (uint256 id, uint256 value) {\n        if(msg.sender == owner) {\n            id = uint256(0);                         // return 0 for owner\n            value = uint256(0);\n        }\n        else {\n            uint256[] memory tokenIds = erc721.tokensOfOwner(msg.sender);\n            id = tokenIds.length > 0 && index < tokenIds.length ? tokenIds[index] : uint256(0);\n            value = uint256(0);\n            if(id != uint256(0)) {\n                if(erc721.getNFTState(id) == uint256(Status.Executed)) {\n                    value = erc721.getNFTValue(id);\n                }\n            }\n        }\n    }\n    function getBizProcessId() public view returns(address contractOwner, uint8 bizProcessId) {\n        contractOwner = owner;\n        bizProcessId = 0;\n\n        // we don't need to set this connector to start using smart contract \n        // ... we nned to set up erc721.connectors to address(this)\n        // ... but after this we meke abother transaction to set this.connectors[erc721] \n        // ... to signal that initialization is complited\n        if (connectors[erc721] == address(0)) {\n            bizProcessId = 100; \n            return;\n        }\n        \n        uint256 id;\n        uint256 value;\n        (id, value) = getCurrentToken();\n        if(id == uint256(0)) {\n            uint allowance = RST.allowance(msg.sender, address(this));\n            if(allowance == uint256(0)) {\n                // the first step - need to make allowance\n                bizProcessId = 1;\n            }\n            else {\n                // need to make order\n                bizProcessId = 2; \n            }\n        }\n        else {\n            // we have current token id\n            if (erc721.getNFTState(id) == uint(Status.Active)) {\n                bizProcessId = 10;\n            }\n            else if (erc721.getNFTState(id) == uint(Status.Executed)) {\n                bizProcessId = 11;\n            }\n            else if (erc721.getNFTState(id) == uint(Status.Closed)) {\n                bizProcessId = 12;\n\n            }\n            else if (erc721.getNFTState(id) == uint(Status.Canceled)) {\n                bizProcessId = 13;\n            }\n        }\n    }\n    constructor(address _rst, address _erc721) public { \n        amount = 7600000000;\n        rate = 0.05 ether;\n        RST = IERC20Token(_rst);\n        erc721 = IERC721SmartToken(_erc721);\n        open = true;\n    }\n}",
  "sourcePath": "/Users/sergei/SimpleExchange/contracts/SimpleExchange.sol",
  "compiler": {
    "name": "solc",
    "version": "0.4.24+commit.e67f0147.Emscripten.clang"
  },
  "schemaVersion": "2.0.1",
  "updatedAt": "2018-09-14T06:01:47.633Z"
}