{
  "contractName": "SimpleExchange",
  "abi": [
    {
      "constant": true,
      "inputs": [
        {
          "name": "",
          "type": "address"
        }
      ],
      "name": "connectors",
      "outputs": [
        {
          "name": "",
          "type": "address"
        }
      ],
      "payable": false,
      "stateMutability": "view",
      "type": "function"
    },
    {
      "constant": true,
      "inputs": [],
      "name": "RST",
      "outputs": [
        {
          "name": "",
          "type": "address"
        }
      ],
      "payable": false,
      "stateMutability": "view",
      "type": "function"
    },
    {
      "constant": true,
      "inputs": [],
      "name": "rate",
      "outputs": [
        {
          "name": "",
          "type": "uint256"
        }
      ],
      "payable": false,
      "stateMutability": "view",
      "type": "function"
    },
    {
      "constant": false,
      "inputs": [
        {
          "name": "_receiver",
          "type": "address"
        }
      ],
      "name": "setReceiver",
      "outputs": [],
      "payable": false,
      "stateMutability": "nonpayable",
      "type": "function"
    },
    {
      "constant": false,
      "inputs": [],
      "name": "acceptOwnership",
      "outputs": [],
      "payable": false,
      "stateMutability": "nonpayable",
      "type": "function"
    },
    {
      "constant": true,
      "inputs": [],
      "name": "owner",
      "outputs": [
        {
          "name": "",
          "type": "address"
        }
      ],
      "payable": false,
      "stateMutability": "view",
      "type": "function"
    },
    {
      "constant": true,
      "inputs": [],
      "name": "amount",
      "outputs": [
        {
          "name": "",
          "type": "uint256"
        }
      ],
      "payable": false,
      "stateMutability": "view",
      "type": "function"
    },
    {
      "constant": true,
      "inputs": [],
      "name": "erc721",
      "outputs": [
        {
          "name": "",
          "type": "address"
        }
      ],
      "payable": false,
      "stateMutability": "view",
      "type": "function"
    },
    {
      "constant": false,
      "inputs": [
        {
          "name": "_sender",
          "type": "address"
        }
      ],
      "name": "setSender",
      "outputs": [],
      "payable": false,
      "stateMutability": "nonpayable",
      "type": "function"
    },
    {
      "constant": true,
      "inputs": [],
      "name": "newOwner",
      "outputs": [
        {
          "name": "",
          "type": "address"
        }
      ],
      "payable": false,
      "stateMutability": "view",
      "type": "function"
    },
    {
      "constant": false,
      "inputs": [
        {
          "name": "_newOwner",
          "type": "address"
        }
      ],
      "name": "transferOwnership",
      "outputs": [],
      "payable": false,
      "stateMutability": "nonpayable",
      "type": "function"
    },
    {
      "constant": true,
      "inputs": [],
      "name": "open",
      "outputs": [
        {
          "name": "",
          "type": "bool"
        }
      ],
      "payable": false,
      "stateMutability": "view",
      "type": "function"
    },
    {
      "inputs": [
        {
          "name": "_rst",
          "type": "address"
        },
        {
          "name": "_erc721",
          "type": "address"
        }
      ],
      "payable": false,
      "stateMutability": "nonpayable",
      "type": "constructor"
    },
    {
      "anonymous": false,
      "inputs": [
        {
          "indexed": false,
          "name": "id",
          "type": "uint256"
        },
        {
          "indexed": false,
          "name": "rate",
          "type": "uint256"
        },
        {
          "indexed": false,
          "name": "value",
          "type": "uint256"
        },
        {
          "indexed": false,
          "name": "allowance",
          "type": "uint256"
        }
      ],
      "name": "Place",
      "type": "event"
    },
    {
      "anonymous": false,
      "inputs": [
        {
          "indexed": false,
          "name": "id",
          "type": "uint256"
        },
        {
          "indexed": false,
          "name": "owner",
          "type": "address"
        }
      ],
      "name": "Cancel",
      "type": "event"
    },
    {
      "anonymous": false,
      "inputs": [
        {
          "indexed": false,
          "name": "id",
          "type": "uint256"
        },
        {
          "indexed": false,
          "name": "value",
          "type": "uint256"
        },
        {
          "indexed": false,
          "name": "amount",
          "type": "uint256"
        }
      ],
      "name": "Buy",
      "type": "event"
    },
    {
      "anonymous": false,
      "inputs": [
        {
          "indexed": false,
          "name": "id",
          "type": "uint256"
        },
        {
          "indexed": false,
          "name": "amount",
          "type": "uint256"
        },
        {
          "indexed": false,
          "name": "owner",
          "type": "address"
        }
      ],
      "name": "Payment",
      "type": "event"
    },
    {
      "anonymous": false,
      "inputs": [
        {
          "indexed": false,
          "name": "amount",
          "type": "uint256"
        },
        {
          "indexed": false,
          "name": "old",
          "type": "uint256"
        }
      ],
      "name": "SetAmount",
      "type": "event"
    },
    {
      "anonymous": false,
      "inputs": [
        {
          "indexed": false,
          "name": "rate",
          "type": "uint256"
        },
        {
          "indexed": false,
          "name": "old",
          "type": "uint256"
        }
      ],
      "name": "SetRate",
      "type": "event"
    },
    {
      "anonymous": false,
      "inputs": [
        {
          "indexed": false,
          "name": "open",
          "type": "bool"
        },
        {
          "indexed": false,
          "name": "old",
          "type": "bool"
        }
      ],
      "name": "SetOpen",
      "type": "event"
    },
    {
      "anonymous": false,
      "inputs": [
        {
          "indexed": true,
          "name": "_prevOwner",
          "type": "address"
        },
        {
          "indexed": true,
          "name": "_newOwner",
          "type": "address"
        }
      ],
      "name": "OwnerUpdate",
      "type": "event"
    },
    {
      "anonymous": false,
      "inputs": [
        {
          "indexed": false,
          "name": "_sender",
          "type": "address"
        },
        {
          "indexed": false,
          "name": "_receiver",
          "type": "address"
        }
      ],
      "name": "ReceiverUpdate",
      "type": "event"
    },
    {
      "anonymous": false,
      "inputs": [
        {
          "indexed": false,
          "name": "_sender",
          "type": "address"
        },
        {
          "indexed": false,
          "name": "_receiver",
          "type": "address"
        }
      ],
      "name": "SenderUpdate",
      "type": "event"
    },
    {
      "constant": false,
      "inputs": [
        {
          "name": "_rate",
          "type": "uint256"
        }
      ],
      "name": "placeOrder",
      "outputs": [],
      "payable": false,
      "stateMutability": "nonpayable",
      "type": "function"
    },
    {
      "constant": true,
      "inputs": [],
      "name": "checkOrder",
      "outputs": [
        {
          "name": "check",
          "type": "uint256"
        }
      ],
      "payable": false,
      "stateMutability": "view",
      "type": "function"
    },
    {
      "constant": false,
      "inputs": [
        {
          "name": "_id",
          "type": "uint256"
        }
      ],
      "name": "cancelOrder",
      "outputs": [],
      "payable": false,
      "stateMutability": "nonpayable",
      "type": "function"
    },
    {
      "constant": true,
      "inputs": [],
      "name": "findDeal",
      "outputs": [
        {
          "name": "min",
          "type": "uint256"
        },
        {
          "name": "max",
          "type": "uint256"
        },
        {
          "name": "average",
          "type": "uint256"
        },
        {
          "name": "active",
          "type": "uint256"
        },
        {
          "name": "total",
          "type": "uint256"
        },
        {
          "name": "id",
          "type": "uint256"
        }
      ],
      "payable": false,
      "stateMutability": "view",
      "type": "function"
    },
    {
      "constant": false,
      "inputs": [
        {
          "name": "_id",
          "type": "uint256"
        }
      ],
      "name": "buyOrder",
      "outputs": [],
      "payable": true,
      "stateMutability": "payable",
      "type": "function"
    },
    {
      "constant": true,
      "inputs": [
        {
          "name": "_id",
          "type": "uint256"
        }
      ],
      "name": "buyOrderCheck",
      "outputs": [
        {
          "name": "check",
          "type": "uint256"
        }
      ],
      "payable": false,
      "stateMutability": "view",
      "type": "function"
    },
    {
      "constant": false,
      "inputs": [
        {
          "name": "_id",
          "type": "uint256"
        }
      ],
      "name": "payment",
      "outputs": [],
      "payable": false,
      "stateMutability": "nonpayable",
      "type": "function"
    },
    {
      "constant": false,
      "inputs": [
        {
          "name": "_amount",
          "type": "uint256"
        }
      ],
      "name": "setAmount",
      "outputs": [],
      "payable": false,
      "stateMutability": "nonpayable",
      "type": "function"
    },
    {
      "constant": false,
      "inputs": [
        {
          "name": "_rate",
          "type": "uint256"
        }
      ],
      "name": "setRate",
      "outputs": [],
      "payable": false,
      "stateMutability": "nonpayable",
      "type": "function"
    },
    {
      "constant": false,
      "inputs": [
        {
          "name": "_open",
          "type": "bool"
        }
      ],
      "name": "setOpen",
      "outputs": [],
      "payable": false,
      "stateMutability": "nonpayable",
      "type": "function"
    },
    {
      "constant": true,
      "inputs": [],
      "name": "getCurrentToken",
      "outputs": [
        {
          "name": "id",
          "type": "uint256"
        },
        {
          "name": "value",
          "type": "uint256"
        }
      ],
      "payable": false,
      "stateMutability": "view",
      "type": "function"
    },
    {
      "constant": true,
      "inputs": [
        {
          "name": "index",
          "type": "uint256"
        }
      ],
      "name": "getToken",
      "outputs": [
        {
          "name": "id",
          "type": "uint256"
        },
        {
          "name": "value",
          "type": "uint256"
        }
      ],
      "payable": false,
      "stateMutability": "view",
      "type": "function"
    },
    {
      "constant": true,
      "inputs": [],
      "name": "getBizProcessId",
      "outputs": [
        {
          "name": "contractOwner",
          "type": "address"
        },
        {
          "name": "bizProcessId",
          "type": "uint8"
        }
      ],
      "payable": false,
      "stateMutability": "view",
      "type": "function"
    }
  ],
  "bytecode": "0x608060405234801561001057600080fd5b506040516040806148a68339810180604052810190808051906020019092919080519060200190929190505050336000806101000a81548173ffffffffffffffffffffffffffffffffffffffff021916908373ffffffffffffffffffffffffffffffffffffffff1602179055506401c4fecc0060038190555066b1a2bc2ec5000060048190555081600560016101000a81548173ffffffffffffffffffffffffffffffffffffffff021916908373ffffffffffffffffffffffffffffffffffffffff16021790555080600660006101000a81548173ffffffffffffffffffffffffffffffffffffffff021916908373ffffffffffffffffffffffffffffffffffffffff1602179055506001600560006101000a81548160ff0219169083151502179055505050614761806101456000396000f300608060405260043610610149576000357c0100000000000000000000000000000000000000000000000000000000900463ffffffff1680630d1c3a351461014e5780630dbf00211461018f5780630e53aae9146101f35780631de565d614610276578063228f2fc8146102cd57806322f85eaa146102f8578063271f88b4146103185780632c4e722e1461034557806334fcf43714610370578063514fcac71461039d5780636fdca5e0146103ca578063718da7ee146103f957806379ba50971461043c5780638b3c99e3146104535780638da5cb5b14610480578063aa8c217c146104d7578063ba2255f414610502578063bca6ce641461052f578063ced32b0c14610586578063d4ee1d90146105c9578063d68af5f414610620578063e4b50cb81461066e578063ef2d1746146106b6578063f2fde38b146106e8578063fcfff16f1461072b575b600080fd5b34801561015a57600080fd5b506101796004803603810190808035906020019092919050505061075a565b6040518082815260200191505060405180910390f35b34801561019b57600080fd5b506101a4610bef565b604051808373ffffffffffffffffffffffffffffffffffffffff1673ffffffffffffffffffffffffffffffffffffffff1681526020018260ff1660ff1681526020019250505060405180910390f35b3480156101ff57600080fd5b50610234600480360381019080803573ffffffffffffffffffffffffffffffffffffffff1690602001909291905050506111e8565b604051808273ffffffffffffffffffffffffffffffffffffffff1673ffffffffffffffffffffffffffffffffffffffff16815260200191505060405180910390f35b34801561028257600080fd5b5061028b61121b565b604051808273ffffffffffffffffffffffffffffffffffffffff1673ffffffffffffffffffffffffffffffffffffffff16815260200191505060405180910390f35b3480156102d957600080fd5b506102e2611241565b6040518082815260200191505060405180910390f35b61031660048036038101908080359060200190929190505050611567565b005b34801561032457600080fd5b5061034360048036038101908080359060200190929190505050612056565b005b34801561035157600080fd5b5061035a612178565b6040518082815260200191505060405180910390f35b34801561037c57600080fd5b5061039b6004803603810190808035906020019092919050505061217e565b005b3480156103a957600080fd5b506103c8600480360381019080803590602001909291905050506122a0565b005b3480156103d657600080fd5b506103f76004803603810190808035151590602001909291905050506126ed565b005b34801561040557600080fd5b5061043a600480360381019080803573ffffffffffffffffffffffffffffffffffffffff1690602001909291905050506127be565b005b34801561044857600080fd5b5061045161292e565b005b34801561045f57600080fd5b5061047e60048036038101908080359060200190929190505050612acd565b005b34801561048c57600080fd5b506104956131b7565b604051808273ffffffffffffffffffffffffffffffffffffffff1673ffffffffffffffffffffffffffffffffffffffff16815260200191505060405180910390f35b3480156104e357600080fd5b506104ec6131dc565b6040518082815260200191505060405180910390f35b34801561050e57600080fd5b5061052d600480360381019080803590602001909291905050506131e2565b005b34801561053b57600080fd5b506105446139b5565b604051808273ffffffffffffffffffffffffffffffffffffffff1673ffffffffffffffffffffffffffffffffffffffff16815260200191505060405180910390f35b34801561059257600080fd5b506105c7600480360381019080803573ffffffffffffffffffffffffffffffffffffffff1690602001909291905050506139db565b005b3480156105d557600080fd5b506105de613b4b565b604051808273ffffffffffffffffffffffffffffffffffffffff1673ffffffffffffffffffffffffffffffffffffffff16815260200191505060405180910390f35b34801561062c57600080fd5b50610635613b71565b60405180878152602001868152602001858152602001848152602001838152602001828152602001965050505050505060405180910390f35b34801561067a57600080fd5b5061069960048036038101908080359060200190929190505050613e9c565b604051808381526020018281526020019250505060405180910390f35b3480156106c257600080fd5b506106cb61424e565b604051808381526020018281526020019250505060405180910390f35b3480156106f457600080fd5b50610729600480360381019080803573ffffffffffffffffffffffffffffffffffffffff1690602001909291905050506145f7565b005b34801561073757600080fd5b506107406146ef565b604051808215151515815260200191505060405180910390f35b60008060008060009350600085141515610775576001840193505b6002600481111561078257fe5b600660009054906101000a900473ffffffffffffffffffffffffffffffffffffffff1673ffffffffffffffffffffffffffffffffffffffff16631ece83b0876040518263ffffffff167c010000000000000000000000000000000000000000000000000000000002815260040180828152602001915050602060405180830381600087803b15801561081357600080fd5b505af1158015610827573d6000803e3d6000fd5b505050506040513d602081101561083d57600080fd5b8101908080519060200190929190505050141561085b57600a840193505b600073ffffffffffffffffffffffffffffffffffffffff16600560019054906101000a900473ffffffffffffffffffffffffffffffffffffffff1673ffffffffffffffffffffffffffffffffffffffff161415156108ba576064840193505b600660009054906101000a900473ffffffffffffffffffffffffffffffffffffffff1673ffffffffffffffffffffffffffffffffffffffff16631d36e06c866040518263ffffffff167c010000000000000000000000000000000000000000000000000000000002815260040180828152602001915050602060405180830381600087803b15801561094b57600080fd5b505af115801561095f573d6000803e3d6000fd5b505050506040513d602081101561097557600080fd5b81019080805190602001909291905050509250600073ffffffffffffffffffffffffffffffffffffffff168373ffffffffffffffffffffffffffffffffffffffff161415156109c6576103e8840193505b600560019054906101000a900473ffffffffffffffffffffffffffffffffffffffff1673ffffffffffffffffffffffffffffffffffffffff1663dd62ed3e84306040518363ffffffff167c0100000000000000000000000000000000000000000000000000000000028152600401808373ffffffffffffffffffffffffffffffffffffffff1673ffffffffffffffffffffffffffffffffffffffff1681526020018273ffffffffffffffffffffffffffffffffffffffff1673ffffffffffffffffffffffffffffffffffffffff16815260200192505050602060405180830381600087803b158015610ab757600080fd5b505af1158015610acb573d6000803e3d6000fd5b505050506040513d6020811015610ae157600080fd5b81019080805190602001909291905050509150600354821415610b0657612710840193505b600660009054906101000a900473ffffffffffffffffffffffffffffffffffffffff1673ffffffffffffffffffffffffffffffffffffffff1663f5962e2d866040518263ffffffff167c010000000000000000000000000000000000000000000000000000000002815260040180828152602001915050602060405180830381600087803b158015610b9757600080fd5b505af1158015610bab573d6000803e3d6000fd5b505050506040513d6020811015610bc157600080fd5b81019080805190602001909291905050509050600081141515610be757620186a0840193505b505050919050565b60008060008060008060009054906101000a900473ffffffffffffffffffffffffffffffffffffffff16945060009350600073ffffffffffffffffffffffffffffffffffffffff1660026000600660009054906101000a900473ffffffffffffffffffffffffffffffffffffffff1673ffffffffffffffffffffffffffffffffffffffff1673ffffffffffffffffffffffffffffffffffffffff16815260200190815260200160002060009054906101000a900473ffffffffffffffffffffffffffffffffffffffff1673ffffffffffffffffffffffffffffffffffffffff161415610cde57606493506111e1565b610ce661424e565b80935081945050506000831415610e4157600560019054906101000a900473ffffffffffffffffffffffffffffffffffffffff1673ffffffffffffffffffffffffffffffffffffffff1663dd62ed3e33306040518363ffffffff167c0100000000000000000000000000000000000000000000000000000000028152600401808373ffffffffffffffffffffffffffffffffffffffff1673ffffffffffffffffffffffffffffffffffffffff1681526020018273ffffffffffffffffffffffffffffffffffffffff1673ffffffffffffffffffffffffffffffffffffffff16815260200192505050602060405180830381600087803b158015610de857600080fd5b505af1158015610dfc573d6000803e3d6000fd5b505050506040513d6020811015610e1257600080fd5b810190808051906020019092919050505090506000811415610e375760019350610e3c565b600293505b6111e0565b60026004811115610e4e57fe5b600660009054906101000a900473ffffffffffffffffffffffffffffffffffffffff1673ffffffffffffffffffffffffffffffffffffffff16631ece83b0856040518263ffffffff167c010000000000000000000000000000000000000000000000000000000002815260040180828152602001915050602060405180830381600087803b158015610edf57600080fd5b505af1158015610ef3573d6000803e3d6000fd5b505050506040513d6020811015610f0957600080fd5b81019080805190602001909291905050501415610f2957600a93506111df565b60036004811115610f3657fe5b600660009054906101000a900473ffffffffffffffffffffffffffffffffffffffff1673ffffffffffffffffffffffffffffffffffffffff16631ece83b0856040518263ffffffff167c010000000000000000000000000000000000000000000000000000000002815260040180828152602001915050602060405180830381600087803b158015610fc757600080fd5b505af1158015610fdb573d6000803e3d6000fd5b505050506040513d6020811015610ff157600080fd5b8101908080519060200190929190505050141561101157600b93506111de565b6001600481111561101e57fe5b600660009054906101000a900473ffffffffffffffffffffffffffffffffffffffff1673ffffffffffffffffffffffffffffffffffffffff16631ece83b0856040518263ffffffff167c010000000000000000000000000000000000000000000000000000000002815260040180828152602001915050602060405180830381600087803b1580156110af57600080fd5b505af11580156110c3573d6000803e3d6000fd5b505050506040513d60208110156110d957600080fd5b810190808051906020019092919050505014156110f957600c93506111dd565b60048081111561110557fe5b600660009054906101000a900473ffffffffffffffffffffffffffffffffffffffff1673ffffffffffffffffffffffffffffffffffffffff16631ece83b0856040518263ffffffff167c010000000000000000000000000000000000000000000000000000000002815260040180828152602001915050602060405180830381600087803b15801561119657600080fd5b505af11580156111aa573d6000803e3d6000fd5b505050506040513d60208110156111c057600080fd5b810190808051906020019092919050505014156111dc57600d93505b5b5b5b5b5b5050509091565b60026020528060005260406000206000915054906101000a900473ffffffffffffffffffffffffffffffffffffffff1681565b600560019054906101000a900473ffffffffffffffffffffffffffffffffffffffff1681565b600080600080600066b1a2bc2ec50000935060009450600560019054906101000a900473ffffffffffffffffffffffffffffffffffffffff1673ffffffffffffffffffffffffffffffffffffffff1663dd62ed3e33306040518363ffffffff167c0100000000000000000000000000000000000000000000000000000000028152600401808373ffffffffffffffffffffffffffffffffffffffff1673ffffffffffffffffffffffffffffffffffffffff1681526020018273ffffffffffffffffffffffffffffffffffffffff1673ffffffffffffffffffffffffffffffffffffffff16815260200192505050602060405180830381600087803b15801561134857600080fd5b505af115801561135c573d6000803e3d6000fd5b505050506040513d602081101561137257600080fd5b81019080805190602001909291905050509250600560019054906101000a900473ffffffffffffffffffffffffffffffffffffffff1673ffffffffffffffffffffffffffffffffffffffff1663313ce5676040518163ffffffff167c0100000000000000000000000000000000000000000000000000000000028152600401602060405180830381600087803b15801561140b57600080fd5b505af115801561141f573d6000803e3d6000fd5b505050506040513d602081101561143557600080fd5b810190808051906020019092919050505060ff169150600560009054906101000a900460ff1615611467576001850194505b60008414151561147857600a850194505b6004548410151561148a576064850194505b600073ffffffffffffffffffffffffffffffffffffffff16600560019054906101000a900473ffffffffffffffffffffffffffffffffffffffff1673ffffffffffffffffffffffffffffffffffffffff161415156114ea576103e8850194505b6003548314156114fc57612710850194505b6000600354111561151057620186a0850194505b61151c84600354614702565b9050600060ff1682111561153c5781600a0a8181151561153857fe5b0490505b600082111561154e57620f4240850194505b60008111156115605762989680850194505b5050505090565b6000806000600560009054906101000a900460ff1615156115f0576040517f08c379a00000000000000000000000000000000000000000000000000000000081526004018080602001828103825260128152602001807f45786368616e676520697320636c6f736564000000000000000000000000000081525060200191505060405180910390fd5b60008414151515611669576040517f08c379a00000000000000000000000000000000000000000000000000000000081526004018080602001828103825260128152602001807f4552524f523a204e46542069642069732030000000000000000000000000000081525060200191505060405180910390fd5b6002600481111561167657fe5b600660009054906101000a900473ffffffffffffffffffffffffffffffffffffffff1673ffffffffffffffffffffffffffffffffffffffff16631ece83b0866040518263ffffffff167c010000000000000000000000000000000000000000000000000000000002815260040180828152602001915050602060405180830381600087803b15801561170757600080fd5b505af115801561171b573d6000803e3d6000fd5b505050506040513d602081101561173157600080fd5b81019080805190602001909291905050501415156117b7576040517f08c379a000000000000000000000000000000000000000000000000000000000815260040180806020018281038252601a8152602001807f4552524f523a204f72646572206973206e6f742061637469766500000000000081525060200191505060405180910390fd5b600073ffffffffffffffffffffffffffffffffffffffff16600560019054906101000a900473ffffffffffffffffffffffffffffffffffffffff1673ffffffffffffffffffffffffffffffffffffffff161415151561187e576040517f08c379a00000000000000000000000000000000000000000000000000000000081526004018080602001828103825260178152602001807f4552524f523a205253542061646472657373206973203000000000000000000081525060200191505060405180910390fd5b600660009054906101000a900473ffffffffffffffffffffffffffffffffffffffff1673ffffffffffffffffffffffffffffffffffffffff16631d36e06c856040518263ffffffff167c010000000000000000000000000000000000000000000000000000000002815260040180828152602001915050602060405180830381600087803b15801561190f57600080fd5b505af1158015611923573d6000803e3d6000fd5b505050506040513d602081101561193957600080fd5b81019080805190602001909291905050509250600073ffffffffffffffffffffffffffffffffffffffff168373ffffffffffffffffffffffffffffffffffffffff16141515156119f1576040517f08c379a000000000000000000000000000000000000000000000000000000000815260040180806020018281038252601f8152602001807f4552524f523a204f72646572206f776e6572206164647265737320697320300081525060200191505060405180910390fd5b600560019054906101000a900473ffffffffffffffffffffffffffffffffffffffff1673ffffffffffffffffffffffffffffffffffffffff1663dd62ed3e84306040518363ffffffff167c0100000000000000000000000000000000000000000000000000000000028152600401808373ffffffffffffffffffffffffffffffffffffffff1673ffffffffffffffffffffffffffffffffffffffff1681526020018273ffffffffffffffffffffffffffffffffffffffff1673ffffffffffffffffffffffffffffffffffffffff16815260200192505050602060405180830381600087803b158015611ae257600080fd5b505af1158015611af6573d6000803e3d6000fd5b505050506040513d6020811015611b0c57600080fd5b8101908080519060200190929190505050915060035482141515611bbe576040517f08c379a000000000000000000000000000000000000000000000000000000000815260040180806020018281038252602e8152602001807f4552524f523a20416c6c6f77616e636520666f722052535420746f6b656e206981526020017f73206e6f742070726f766964656400000000000000000000000000000000000081525060400191505060405180910390fd5b600660009054906101000a900473ffffffffffffffffffffffffffffffffffffffff1673ffffffffffffffffffffffffffffffffffffffff1663f5962e2d856040518263ffffffff167c010000000000000000000000000000000000000000000000000000000002815260040180828152602001915050602060405180830381600087803b158015611c4f57600080fd5b505af1158015611c63573d6000803e3d6000fd5b505050506040513d6020811015611c7957600080fd5b8101908080519060200190929190505050905060008114151515611d05576040517f08c379a00000000000000000000000000000000000000000000000000000000081526004018080602001828103825260178152602001807f4552524f523a204f726465722076616c7565206973203000000000000000000081525060200191505060405180910390fd5b3481141515611da2576040517f08c379a00000000000000000000000000000000000000000000000000000000081526004018080602001828103825260308152602001807f4552524f523a204f726465722076616c7565206973206e6f7420657175616c2081526020017f746f206d6573736167652076616c75650000000000000000000000000000000081525060400191505060405180910390fd5b600560019054906101000a900473ffffffffffffffffffffffffffffffffffffffff1673ffffffffffffffffffffffffffffffffffffffff166323b872dd84336003546040518463ffffffff167c0100000000000000000000000000000000000000000000000000000000028152600401808473ffffffffffffffffffffffffffffffffffffffff1673ffffffffffffffffffffffffffffffffffffffff1681526020018373ffffffffffffffffffffffffffffffffffffffff1673ffffffffffffffffffffffffffffffffffffffff1681526020018281526020019350505050602060405180830381600087803b158015611e9d57600080fd5b505af1158015611eb1573d6000803e3d6000fd5b505050506040513d6020811015611ec757600080fd5b81019080805190602001909291905050501515611f4c576040517f08c379a00000000000000000000000000000000000000000000000000000000081526004018080602001828103825260138152602001807f4552524f523a20525354207472616e736665720000000000000000000000000081525060200191505060405180910390fd5b600660009054906101000a900473ffffffffffffffffffffffffffffffffffffffff1673ffffffffffffffffffffffffffffffffffffffff16638dc63d198560036004811115611f9857fe5b6040518363ffffffff167c01000000000000000000000000000000000000000000000000000000000281526004018083815260200182815260200192505050600060405180830381600087803b158015611ff157600080fd5b505af1158015612005573d6000803e3d6000fd5b505050507fb05532e21b444e9778dc1661bc462d41ba18ec113dc5e87d9d7a3849ff02d1e884838360405180848152602001838152602001828152602001935050505060405180910390a150505050565b60008060009054906101000a900473ffffffffffffffffffffffffffffffffffffffff1673ffffffffffffffffffffffffffffffffffffffff163373ffffffffffffffffffffffffffffffffffffffff161415156120b057fe5b60008214151515612129576040517f08c379a00000000000000000000000000000000000000000000000000000000081526004018080602001828103825260128152602001807f4552524f523a20616d6f756e742069732030000000000000000000000000000081525060200191505060405180910390fd5b6003549050816003819055507f6a1a1ff90ae3fd5b978159d028ceb33c54751ea49f6a1d7e64ddfc954aa9785e8282604051808381526020018281526020019250505060405180910390a15050565b60045481565b60008060009054906101000a900473ffffffffffffffffffffffffffffffffffffffff1673ffffffffffffffffffffffffffffffffffffffff163373ffffffffffffffffffffffffffffffffffffffff161415156121d857fe5b60008214151515612251576040517f08c379a00000000000000000000000000000000000000000000000000000000081526004018080602001828103825260108152602001807f4552524f523a207261746520697320300000000000000000000000000000000081525060200191505060405180910390fd5b6004549050816004819055507f3a8f7e78fe36c54b4f888a309efa91eba128acb04cc1c2ffa0e5c4db7b4a87858282604051808381526020018281526020019250505060405180910390a15050565b600560009054906101000a900460ff161515612324576040517f08c379a00000000000000000000000000000000000000000000000000000000081526004018080602001828103825260128152602001807f45786368616e676520697320636c6f736564000000000000000000000000000081525060200191505060405180910390fd5b6000811415151561239d576040517f08c379a00000000000000000000000000000000000000000000000000000000081526004018080602001828103825260188152602001807f4552524f523a204e465420746f6b656e2069642069732030000000000000000081525060200191505060405180910390fd5b600660009054906101000a900473ffffffffffffffffffffffffffffffffffffffff1673ffffffffffffffffffffffffffffffffffffffff1663818d4b5d33836040518363ffffffff167c0100000000000000000000000000000000000000000000000000000000028152600401808373ffffffffffffffffffffffffffffffffffffffff1673ffffffffffffffffffffffffffffffffffffffff16815260200182815260200192505050602060405180830381600087803b15801561246257600080fd5b505af1158015612476573d6000803e3d6000fd5b505050506040513d602081101561248c57600080fd5b81019080805190602001909291905050501515612511576040517f08c379a00000000000000000000000000000000000000000000000000000000081526004018080602001828103825260178152602001807f4552524f523a204f6e6c7920746f6b656e206f776e657200000000000000000081525060200191505060405180910390fd5b600660009054906101000a900473ffffffffffffffffffffffffffffffffffffffff1673ffffffffffffffffffffffffffffffffffffffff16638dc63d198260048081111561255c57fe5b6040518363ffffffff167c01000000000000000000000000000000000000000000000000000000000281526004018083815260200182815260200192505050600060405180830381600087803b1580156125b557600080fd5b505af11580156125c9573d6000803e3d6000fd5b50505050600660009054906101000a900473ffffffffffffffffffffffffffffffffffffffff1673ffffffffffffffffffffffffffffffffffffffff1663cedf5f4a8260006040518363ffffffff167c01000000000000000000000000000000000000000000000000000000000281526004018083815260200182815260200192505050600060405180830381600087803b15801561266757600080fd5b505af115801561267b573d6000803e3d6000fd5b505050507f8dd3c361eb2366ff27c2db0eb07b9261f1d052570742ab8c9a0c326f37aa576d8133604051808381526020018273ffffffffffffffffffffffffffffffffffffffff1673ffffffffffffffffffffffffffffffffffffffff1681526020019250505060405180910390a150565b60008060009054906101000a900473ffffffffffffffffffffffffffffffffffffffff1673ffffffffffffffffffffffffffffffffffffffff163373ffffffffffffffffffffffffffffffffffffffff1614151561274757fe5b600560009054906101000a900460ff16905081600560006101000a81548160ff0219169083151502179055507f40f0e387353f5f027b910f09f6540a87aea442ba272793ca67f1603ca2d629ba82826040518083151515158152602001821515151581526020019250505060405180910390a15050565b6000809054906101000a900473ffffffffffffffffffffffffffffffffffffffff1673ffffffffffffffffffffffffffffffffffffffff163373ffffffffffffffffffffffffffffffffffffffff1614151561281657fe5b80600260003073ffffffffffffffffffffffffffffffffffffffff1673ffffffffffffffffffffffffffffffffffffffff16815260200190815260200160002060006101000a81548173ffffffffffffffffffffffffffffffffffffffff021916908373ffffffffffffffffffffffffffffffffffffffff1602179055507f88477ef2e6ee708c15e490fc6b373fe9ca955c32fc8679cd5b820323f20e2b9f3082604051808373ffffffffffffffffffffffffffffffffffffffff1673ffffffffffffffffffffffffffffffffffffffff1681526020018273ffffffffffffffffffffffffffffffffffffffff1673ffffffffffffffffffffffffffffffffffffffff1681526020019250505060405180910390a150565b600160009054906101000a900473ffffffffffffffffffffffffffffffffffffffff1673ffffffffffffffffffffffffffffffffffffffff163373ffffffffffffffffffffffffffffffffffffffff1614151561298a57600080fd5b600160009054906101000a900473ffffffffffffffffffffffffffffffffffffffff1673ffffffffffffffffffffffffffffffffffffffff166000809054906101000a900473ffffffffffffffffffffffffffffffffffffffff1673ffffffffffffffffffffffffffffffffffffffff167f343765429aea5a34b3ff6a3785a98a5abb2597aca87bfbb58632c173d585373a60405160405180910390a3600160009054906101000a900473ffffffffffffffffffffffffffffffffffffffff166000806101000a81548173ffffffffffffffffffffffffffffffffffffffff021916908373ffffffffffffffffffffffffffffffffffffffff1602179055506000600160006101000a81548173ffffffffffffffffffffffffffffffffffffffff021916908373ffffffffffffffffffffffffffffffffffffffff160217905550565b600080600560009054906101000a900460ff161515612b54576040517f08c379a00000000000000000000000000000000000000000000000000000000081526004018080602001828103825260128152602001807f45786368616e676520697320636c6f736564000000000000000000000000000081525060200191505060405180910390fd5b60008314151515612bcd576040517f08c379a00000000000000000000000000000000000000000000000000000000081526004018080602001828103825260188152602001807f4552524f523a204e465420746f6b656e2069642069732030000000000000000081525060200191505060405180910390fd5b600660009054906101000a900473ffffffffffffffffffffffffffffffffffffffff1673ffffffffffffffffffffffffffffffffffffffff1663818d4b5d33856040518363ffffffff167c0100000000000000000000000000000000000000000000000000000000028152600401808373ffffffffffffffffffffffffffffffffffffffff1673ffffffffffffffffffffffffffffffffffffffff16815260200182815260200192505050602060405180830381600087803b158015612c9257600080fd5b505af1158015612ca6573d6000803e3d6000fd5b505050506040513d6020811015612cbc57600080fd5b81019080805190602001909291905050501515612d41576040517f08c379a00000000000000000000000000000000000000000000000000000000081526004018080602001828103825260178152602001807f4552524f523a204f6e6c7920746f6b656e206f776e657200000000000000000081525060200191505060405180910390fd5b60036004811115612d4e57fe5b600660009054906101000a900473ffffffffffffffffffffffffffffffffffffffff1673ffffffffffffffffffffffffffffffffffffffff16631ece83b0856040518263ffffffff167c010000000000000000000000000000000000000000000000000000000002815260040180828152602001915050602060405180830381600087803b158015612ddf57600080fd5b505af1158015612df3573d6000803e3d6000fd5b505050506040513d6020811015612e0957600080fd5b8101908080519060200190929190505050141515612eb5576040517f08c379a00000000000000000000000000000000000000000000000000000000081526004018080602001828103825260298152602001807f4552524f523a204f72646572206973206e6f7420696e2074686520457865637581526020017f746564207374617465000000000000000000000000000000000000000000000081525060400191505060405180910390fd5b3073ffffffffffffffffffffffffffffffffffffffff16319150600660009054906101000a900473ffffffffffffffffffffffffffffffffffffffff1673ffffffffffffffffffffffffffffffffffffffff1663f5962e2d846040518263ffffffff167c010000000000000000000000000000000000000000000000000000000002815260040180828152602001915050602060405180830381600087803b158015612f6057600080fd5b505af1158015612f74573d6000803e3d6000fd5b505050506040513d6020811015612f8a57600080fd5b8101908080519060200190929190505050905080821015151561303b576040517f08c379a00000000000000000000000000000000000000000000000000000000081526004018080602001828103825260288152602001807f4552524f523a2045786368616e67652069732073686f7274206f662066756e6481526020017f7320746f2070617900000000000000000000000000000000000000000000000081525060400191505060405180910390fd5b3373ffffffffffffffffffffffffffffffffffffffff166108fc829081150290604051600060405180830381858888f19350505050158015613081573d6000803e3d6000fd5b50600660009054906101000a900473ffffffffffffffffffffffffffffffffffffffff1673ffffffffffffffffffffffffffffffffffffffff16638dc63d1984600160048111156130ce57fe5b6040518363ffffffff167c01000000000000000000000000000000000000000000000000000000000281526004018083815260200182815260200192505050600060405180830381600087803b15801561312757600080fd5b505af115801561313b573d6000803e3d6000fd5b505050507fd1432ca9a38d944f01b256a411861b109bc4bfe200c40d7144e919a16b86a8a8838233604051808481526020018381526020018273ffffffffffffffffffffffffffffffffffffffff1673ffffffffffffffffffffffffffffffffffffffff168152602001935050505060405180910390a1505050565b6000809054906101000a900473ffffffffffffffffffffffffffffffffffffffff1681565b60035481565b600080600080600560009054906101000a900460ff16151561326c576040517f08c379a00000000000000000000000000000000000000000000000000000000081526004018080602001828103825260128152602001807f45786368616e676520697320636c6f736564000000000000000000000000000081525060200191505060405180910390fd5b600085141515156132e5576040517f08c379a000000000000000000000000000000000000000000000000000000000815260040180806020018281038252601b8152602001807f4552524f523a205253542f4554482072617465206973207a65726f000000000081525060200191505060405180910390fd5b600454851015151561335f576040517f08c379a000000000000000000000000000000000000000000000000000000000815260040180806020018281038252601e8152602001807f4552524f523a205253542f455448207261746520697320746f6f206c6f77000081525060200191505060405180910390fd5b600073ffffffffffffffffffffffffffffffffffffffff16600560019054906101000a900473ffffffffffffffffffffffffffffffffffffffff1673ffffffffffffffffffffffffffffffffffffffff1614151515613426576040517f08c379a00000000000000000000000000000000000000000000000000000000081526004018080602001828103825260178152602001807f4552524f523a205253542061646472657373206973203000000000000000000081525060200191505060405180910390fd5b600560019054906101000a900473ffffffffffffffffffffffffffffffffffffffff1673ffffffffffffffffffffffffffffffffffffffff1663dd62ed3e33306040518363ffffffff167c0100000000000000000000000000000000000000000000000000000000028152600401808373ffffffffffffffffffffffffffffffffffffffff1673ffffffffffffffffffffffffffffffffffffffff1681526020018273ffffffffffffffffffffffffffffffffffffffff1673ffffffffffffffffffffffffffffffffffffffff16815260200192505050602060405180830381600087803b15801561351757600080fd5b505af115801561352b573d6000803e3d6000fd5b505050506040513d602081101561354157600080fd5b81019080805190602001909291905050509350600354841415156135f3576040517f08c379a000000000000000000000000000000000000000000000000000000000815260040180806020018281038252602e8152602001807f4552524f523a20416c6c6f77616e636520666f722052535420746f6b656e206981526020017f73206e6f742070726f766964656400000000000000000000000000000000000081525060400191505060405180910390fd5b600560019054906101000a900473ffffffffffffffffffffffffffffffffffffffff1673ffffffffffffffffffffffffffffffffffffffff1663313ce5676040518163ffffffff167c0100000000000000000000000000000000000000000000000000000000028152600401602060405180830381600087803b15801561367957600080fd5b505af115801561368d573d6000803e3d6000fd5b505050506040513d60208110156136a357600080fd5b810190808051906020019092919050505060ff1692506136c585600354614702565b9150600060ff168311156136e55782600a0a828115156136e157fe5b0491505b600660009054906101000a900473ffffffffffffffffffffffffffffffffffffffff1673ffffffffffffffffffffffffffffffffffffffff1663192cc2d5836001336040518463ffffffff167c010000000000000000000000000000000000000000000000000000000002815260040180848152602001806020018481526020018373ffffffffffffffffffffffffffffffffffffffff1673ffffffffffffffffffffffffffffffffffffffff168152602001828103825260058152602001807f4f72646572000000000000000000000000000000000000000000000000000000815250602001945050505050602060405180830381600087803b1580156137ec57600080fd5b505af1158015613800573d6000803e3d6000fd5b505050506040513d602081101561381657600080fd5b81019080805190602001909291905050509050600081141515156138a2576040517f08c379a00000000000000000000000000000000000000000000000000000000081526004018080602001828103825260128152602001807f4552524f523a204e46542069642069732030000000000000000000000000000081525060200191505060405180910390fd5b600660009054906101000a900473ffffffffffffffffffffffffffffffffffffffff1673ffffffffffffffffffffffffffffffffffffffff16638dc63d1982600260048111156138ee57fe5b6040518363ffffffff167c01000000000000000000000000000000000000000000000000000000000281526004018083815260200182815260200192505050600060405180830381600087803b15801561394757600080fd5b505af115801561395b573d6000803e3d6000fd5b505050507f397359295290c77b5722fad3de13ac9344c59cfaeb8dd4d3011f286c51500630818684876040518085815260200184815260200183815260200182815260200194505050505060405180910390a15050505050565b600660009054906101000a900473ffffffffffffffffffffffffffffffffffffffff1681565b6000809054906101000a900473ffffffffffffffffffffffffffffffffffffffff1673ffffffffffffffffffffffffffffffffffffffff163373ffffffffffffffffffffffffffffffffffffffff16141515613a3357fe5b30600260008373ffffffffffffffffffffffffffffffffffffffff1673ffffffffffffffffffffffffffffffffffffffff16815260200190815260200160002060006101000a81548173ffffffffffffffffffffffffffffffffffffffff021916908373ffffffffffffffffffffffffffffffffffffffff1602179055507f25245aeb6dcc1afb9053581af7e6b984f2191e80b27c263b11c45d821a566a538130604051808373ffffffffffffffffffffffffffffffffffffffff1673ffffffffffffffffffffffffffffffffffffffff1681526020018273ffffffffffffffffffffffffffffffffffffffff1673ffffffffffffffffffffffffffffffffffffffff1681526020019250505060405180910390a150565b600160009054906101000a900473ffffffffffffffffffffffffffffffffffffffff1681565b600080600080600080600080600080600660009054906101000a900473ffffffffffffffffffffffffffffffffffffffff1673ffffffffffffffffffffffffffffffffffffffff166318160ddd6040518163ffffffff167c0100000000000000000000000000000000000000000000000000000000028152600401602060405180830381600087803b158015613c0657600080fd5b505af1158015613c1a573d6000803e3d6000fd5b505050506040513d6020811015613c3057600080fd5b810190808051906020019092919050505093506000945060009950600098506000975060009650600095506000841415613c6957613e90565b613c77600454600354614702565b9950600192505b8383111515613e6d57600660009054906101000a900473ffffffffffffffffffffffffffffffffffffffff1673ffffffffffffffffffffffffffffffffffffffff16631ece83b0846040518263ffffffff167c010000000000000000000000000000000000000000000000000000000002815260040180828152602001915050602060405180830381600087803b158015613d1857600080fd5b505af1158015613d2c573d6000803e3d6000fd5b505050506040513d6020811015613d4257600080fd5b81019080805190602001909291905050509150600660009054906101000a900473ffffffffffffffffffffffffffffffffffffffff1673ffffffffffffffffffffffffffffffffffffffff1663f5962e2d846040518263ffffffff167c010000000000000000000000000000000000000000000000000000000002815260040180828152602001915050602060405180830381600087803b158015613de657600080fd5b505af1158015613dfa573d6000803e3d6000fd5b505050506040513d6020811015613e1057600080fd5b8101908080519060200190929190505050905060026004811115613e3057fe5b821415613e60578680600101975050808601955089811015613e53578099508294505b88811115613e5f578098505b5b8280600101935050613c7e565b600087141515613e8a578686811515613e8257fe5b049750613e8f565b600099505b5b50505050909192939495565b60008060606000809054906101000a900473ffffffffffffffffffffffffffffffffffffffff1673ffffffffffffffffffffffffffffffffffffffff163373ffffffffffffffffffffffffffffffffffffffff161415613f03576000925060009150614248565b600660009054906101000a900473ffffffffffffffffffffffffffffffffffffffff1673ffffffffffffffffffffffffffffffffffffffff16638462151c336040518263ffffffff167c0100000000000000000000000000000000000000000000000000000000028152600401808273ffffffffffffffffffffffffffffffffffffffff1673ffffffffffffffffffffffffffffffffffffffff168152602001915050600060405180830381600087803b158015613fc057600080fd5b505af1158015613fd4573d6000803e3d6000fd5b505050506040513d6000823e3d601f19601f820116820180604052506020811015613ffe57600080fd5b81019080805164010000000081111561401657600080fd5b8281019050602081018481111561402c57600080fd5b815185602082028301116401000000008211171561404957600080fd5b50509291905050509050600081511180156140645750805184105b61406f576000614088565b808481518110151561407d57fe5b906020019060200201515b92506000915060008314151561424757600360048111156140a557fe5b600660009054906101000a900473ffffffffffffffffffffffffffffffffffffffff1673ffffffffffffffffffffffffffffffffffffffff16631ece83b0856040518263ffffffff167c010000000000000000000000000000000000000000000000000000000002815260040180828152602001915050602060405180830381600087803b15801561413657600080fd5b505af115801561414a573d6000803e3d6000fd5b505050506040513d602081101561416057600080fd5b8101908080519060200190929190505050141561424657600660009054906101000a900473ffffffffffffffffffffffffffffffffffffffff1673ffffffffffffffffffffffffffffffffffffffff1663f5962e2d846040518263ffffffff167c010000000000000000000000000000000000000000000000000000000002815260040180828152602001915050602060405180830381600087803b15801561420857600080fd5b505af115801561421c573d6000803e3d6000fd5b505050506040513d602081101561423257600080fd5b810190808051906020019092919050505091505b5b5b50915091565b60008060606000809054906101000a900473ffffffffffffffffffffffffffffffffffffffff1673ffffffffffffffffffffffffffffffffffffffff163373ffffffffffffffffffffffffffffffffffffffff1614156142b55760009250600091506145f2565b600660009054906101000a900473ffffffffffffffffffffffffffffffffffffffff1673ffffffffffffffffffffffffffffffffffffffff16638462151c336040518263ffffffff167c0100000000000000000000000000000000000000000000000000000000028152600401808273ffffffffffffffffffffffffffffffffffffffff1673ffffffffffffffffffffffffffffffffffffffff168152602001915050600060405180830381600087803b15801561437257600080fd5b505af1158015614386573d6000803e3d6000fd5b505050506040513d6000823e3d601f19601f8201168201806040525060208110156143b057600080fd5b8101908080516401000000008111156143c857600080fd5b828101905060208101848111156143de57600080fd5b81518560208202830111640100000000821117156143fb57600080fd5b505092919050505090506000815111614415576000614432565b80600182510381518110151561442757fe5b906020019060200201515b9250600091506000831415156145f1576003600481111561444f57fe5b600660009054906101000a900473ffffffffffffffffffffffffffffffffffffffff1673ffffffffffffffffffffffffffffffffffffffff16631ece83b0856040518263ffffffff167c010000000000000000000000000000000000000000000000000000000002815260040180828152602001915050602060405180830381600087803b1580156144e057600080fd5b505af11580156144f4573d6000803e3d6000fd5b505050506040513d602081101561450a57600080fd5b810190808051906020019092919050505014156145f057600660009054906101000a900473ffffffffffffffffffffffffffffffffffffffff1673ffffffffffffffffffffffffffffffffffffffff1663f5962e2d846040518263ffffffff167c010000000000000000000000000000000000000000000000000000000002815260040180828152602001915050602060405180830381600087803b1580156145b257600080fd5b505af11580156145c6573d6000803e3d6000fd5b505050506040513d60208110156145dc57600080fd5b810190808051906020019092919050505091505b5b5b509091565b6000809054906101000a900473ffffffffffffffffffffffffffffffffffffffff1673ffffffffffffffffffffffffffffffffffffffff163373ffffffffffffffffffffffffffffffffffffffff1614151561464f57fe5b6000809054906101000a900473ffffffffffffffffffffffffffffffffffffffff1673ffffffffffffffffffffffffffffffffffffffff168173ffffffffffffffffffffffffffffffffffffffff16141515156146ab57600080fd5b80600160006101000a81548173ffffffffffffffffffffffffffffffffffffffff021916908373ffffffffffffffffffffffffffffffffffffffff16021790555050565b600560009054906101000a900460ff1681565b60008082840290506000841480614723575082848281151561472057fe5b04145b151561472b57fe5b80915050929150505600a165627a7a72305820d0cad49f0aa9ca3559887ebf02c4080348140ac1daa64a6257f6d39f5234d5290029",
  "source": "// \n// MIT License\n// \n// Copyright (c) 2018 REGA Risk Sharing\n//   \n// Permission is hereby granted, free of charge, to any person obtaining a copy\n// of this software and associated documentation files (the \"Software\"), to deal\n// in the Software without restriction, including without limitation the rights\n// to use, copy, modify, merge, publish, distribute, sublicense, and/or sell\n// copies of the Software, and to permit persons to whom the Software is\n// furnished to do so, subject to the following conditions:\n// \n// The above copyright notice and this permission notice shall be included in all\n// copies or substantial portions of the Software.\n// \n// THE SOFTWARE IS PROVIDED \"AS IS\", WITHOUT WARRANTY OF ANY KIND, EXPRESS OR\n// IMPLIED, INCLUDING BUT NOT LIMITED TO THE WARRANTIES OF MERCHANTABILITY,\n// FITNESS FOR A PARTICULAR PURPOSE AND NONINFRINGEMENT. IN NO EVENT SHALL THE\n// AUTHORS OR COPYRIGHT HOLDERS BE LIABLE FOR ANY CLAIM, DAMAGES OR OTHER\n// LIABILITY, WHETHER IN AN ACTION OF CONTRACT, TORT OR OTHERWISE, ARISING FROM,\n// OUT OF OR IN CONNECTION WITH THE SOFTWARE OR THE USE OR OTHER DEALINGS IN THE\n// SOFTWARE.\n// \n// Author: Sergei Sevriugin\n// Version: 0.0.1\n//  \n\npragma solidity ^0.4.17;\n\nimport \"./Utils.sol\";\nimport \"./Owned.sol\";\n\nimport \"./interfaces/IERC20Token.sol\";\nimport \"./interfaces/IERC721SmartToken.sol\";\n\n\n/// SimpleExchange is RST <--> ETH echange based on ERC721 Smart token\ncontract SimpleExchange is Utils, Owned() {\n\n    /// SimpleExchange Place Order event\n    /// @param id NFT token ID for the order\n    /// @param rate RST/ETH exchange rate\n    /// @param value exchange value in ETH\n    /// @param allowance exchange value in RST\n    event Place(uint256 id, uint256 rate, uint256 value, uint256 allowance);\n\n    /// SimpleExchange Cancel Order event\n    /// @param id NFT token ID for the order\n    /// @param owner NFT token owner\n    event Cancel(uint256 id, address owner);\n\n    /// SimpleExchange Buy event\n    /// @param id NFT token ID for the order to purchase\n    /// @param value RST value that was transfered to buyer\n    /// @param amount ETH amount buyer has been paid (on contract account)\n    event Buy(uint256 id, uint256 value, uint256 amount);\n\n     /// SimpleExchange payment event\n    /// @param id is NFT Order id\n    /// @param amount ETH amount to receive\n    /// @param owner NFT Order token owner\n    event Payment(uint256 id, uint256 amount, address owner);\n\n    /// SimpleExchange set amount event\n    /// @param amount is new value\n    /// @param old is old value\n    event SetAmount(uint256 amount, uint256 old);\n\n    /// SimpleExchange set rate event\n    /// @param rate is new rate\n    /// @param old is old rate\n    event SetRate(uint256 rate, uint256 old);\n\n    /// SimpleExchange set open event\n    /// @param open is new open value\n    /// @param old is old open value\n    event SetOpen(bool open, bool old);\n   \n\n    /// RST token amount for order\n    uint256 public amount;\n    /// RST/ETH minimum rate\n    uint256 public rate;\n    /// SimpleExchange is open\n    bool public open;\n    /// RST smart contract address\n    IERC20Token public RST;\n    /// ERC721 Smart Token\n    IERC721SmartToken public erc721;\n    /// Order Status\n    enum Status {Init, Closed, Active, Executed, Canceled}\n\n    /// placeOrder\n    /// @param _rate RST/ETH echange rate, must be >= rate\n    function placeOrder(uint256 _rate) public {\n        require(open, \"Exchange is closed\");\n        require(_rate != uint256(0), \"ERROR: RST/ETH rate is zero\");\n        require(_rate >= rate, \"ERROR: RST/ETH rate is too low\");\n        require(RST != address(0),\"ERROR: RST address is 0\");  \n        uint _allowance = RST.allowance(msg.sender, address(this));\n        require(_allowance == amount, \"ERROR: Allowance for RST token is not provided\");\n        uint256 _decimals = uint256(RST.decimals());\n        uint _value = safeMul(_rate, amount);\n        if (_decimals > uint8(0)) {                   // ... check if RST decimals is not 0\n            _value = _value / (10 ** _decimals);      // ... and use decimals to convert RST to ETH\n        }\n        uint _id = erc721.createNFT(_value, \"Order\", uint(1), msg.sender);\n        require(_id != uint256(0), \"ERROR: NFT id is 0\");\n        erc721.setNFTState(_id, uint256(Status.Active));\n\n        emit Place(_id, _rate, _value, _allowance);\n    }\n\n    function checkOrder() public view returns (uint256 check) {\n        uint256 _rate = 50000000000000000;\n        check = uint(0);\n        uint _allowance = RST.allowance(msg.sender, address(this));\n        uint256 _decimals = uint256(RST.decimals());\n        \n        if(open) check = check + 1;\n        if(_rate != uint256(0)) check = check + 10;\n        if(_rate >= rate) check = check + 100;\n        if(RST != address(0)) check = check + 1000;\n        if(_allowance == amount) check = check + 10000;\n        if(amount > 0) check = check + 100000;\n        uint _value = safeMul(_rate, amount);\n        if (_decimals > uint8(0)) {                   // ... check if RST decimals is not 0\n            _value = _value / (10 ** _decimals);      // ... and use decimals to convert RST to ETH\n        }\n        if(_decimals > 0) check = check + 1000000;\n        if(_value > 0) check = check + 10000000;\n    }\n\n    /// cancelOrder \n    /// @param _id NFT token id for order to cancel\n    function cancelOrder(uint256 _id) public {\n        require(open, \"Exchange is closed\");\n        require(_id != uint256(0),\"ERROR: NFT token id is 0\");\n        require(erc721.owns(msg.sender, _id), \"ERROR: Only token owner\");\n\n        erc721.setNFTState(_id, uint256(Status.Canceled));\n        erc721.setNFTValue(_id,  uint(0));\n\n        emit Cancel(_id, msg.sender);\n    }\n\n    /// find deal \n    function findDeal() public view returns(uint256 min, uint256 max, uint256 average, uint256 active, uint256 total, uint256 id) {\n        uint256 count = erc721.totalSupply();\n\n        id = 0;\n        min = uint256(0);\n        max = uint256(0);\n        average = uint256(0);\n        active = uint256(0);\n        total = uint256(0);\n        \n        if( count == uint256(0) ) {\n            return;\n        }\n\n        min = safeMul(rate, amount);\n\n        for (uint256 _id = 1; _id <= count; _id++) {\n\n            uint256 state = erc721.getNFTState(_id);\n            uint256 value = erc721.getNFTValue(_id);\n\n            if(state == uint256(Status.Active)) {\n                active++;\n                total = total + value;\n                if(value < min) {\n                    min = value;\n                    id = _id;\n                }\n                if(value > max) {\n                    max = value;\n                }\n            }\n        }\n        if(active != uint256(0)) {\n            average = total / active; \n        } \n        else {\n            min = uint256(0);\n        }\n    }\n\n    /// buyOrder \n    /// @param _id NFT token id to buy from \n    function buyOrder(uint256 _id) public payable {\n        require(open, \"Exchange is closed\");\n        require(_id != uint256(0), \"ERROR: NFT id is 0\");\n        require(erc721.getNFTState(_id) == uint256(Status.Active), \"ERROR: Order is not active\");\n        require(RST != address(0),\"ERROR: RST address is 0\");\n        address _owner = erc721.tokenIndexToOwner(_id);\n        require(_owner != address(0), \"ERROR: Order owner address is 0\");\n        uint _allowance = RST.allowance(_owner, address(this));\n        require(_allowance == amount, \"ERROR: Allowance for RST token is not provided\");\n        uint _value = erc721.getNFTValue(_id);\n        require(_value != uint256(0), \"ERROR: Order value is 0\");\n        require(_value == msg.value, \"ERROR: Order value is not equal to message value\");\n        require(RST.transferFrom(_owner, msg.sender, amount),\"ERROR: RST transfer\");\n\n        erc721.setNFTState(_id, uint256(Status.Executed));\n\n        emit Buy(_id, _allowance, _value);\n    }\n\n    function buyOrderCheck(uint _id) public view returns (uint check) {\n        check = 0;\n\n        if(_id != uint256(0)) {\n            check = check + 1;\n        }\n        if(erc721.getNFTState(_id) == uint256(Status.Active)) {\n            check = check + 10;\n        }\n        if (RST != address(0)) {\n            check = check + 100;\n        }\n        address _owner = erc721.tokenIndexToOwner(_id);\n        if(_owner != address(0)) {\n            check = check + 1000;\n        }\n        uint _allowance = RST.allowance(_owner, address(this));\n        if(_allowance == amount) {\n            check = check + 10000;\n        }\n        uint _value = erc721.getNFTValue(_id);\n        if(_value != uint256(0)) {\n            check = check + 100000;\n        }\n\n    }\n\n    /// payment \n    /// @param _id NFT token to collect the payment from Executed order\n    function payment(uint256 _id) public {\n        require(open, \"Exchange is closed\");\n        require(_id != uint256(0),\"ERROR: NFT token id is 0\");\n        require(erc721.owns(msg.sender, _id), \"ERROR: Only token owner\");\n        require(erc721.getNFTState(_id) == uint256(Status.Executed), \"ERROR: Order is not in the Executed state\");\n        uint256 balance = address(this).balance;\n        uint256 _value = erc721.getNFTValue(_id);\n        require(balance >= _value, \"ERROR: Exchange is short of funds to pay\");\n        msg.sender.transfer(_value);\n\n        erc721.setNFTState(_id, uint256(Status.Closed));\n\n        emit Payment(_id, _value, msg.sender);\n    }\n    function setAmount(uint256 _amount) public ownerOnly {\n        require(_amount != uint256(0),\"ERROR: amount is 0\");\n        uint _old = amount;\n        amount = _amount;\n\n        emit SetAmount(_amount, _old);\n    }\n    function setRate(uint256 _rate) public ownerOnly {\n        require(_rate != uint256(0),\"ERROR: rate is 0\");\n        uint _old = rate;\n        rate = _rate;\n\n        emit SetRate(_rate, _old);\n    }\n    function setOpen(bool _open) public ownerOnly {\n        bool _old = open;\n        open = _open;\n\n        emit SetOpen(_open, _old);\n    }\n    /// token ID helpers\n    function getCurrentToken() public view returns (uint256 id, uint256 value) {\n        if(msg.sender == owner) {\n            id = uint256(0);                         // return 0 for owner\n            value = uint256(0);\n        }\n        else {\n            uint256[] memory tokenIds = erc721.tokensOfOwner(msg.sender);\n            id = tokenIds.length > 0 ? tokenIds[tokenIds.length-1] : uint256(0);\n            value = uint256(0);\n            if(id != uint256(0)) {\n                if(erc721.getNFTState(id) == uint256(Status.Executed)) {\n                    value = erc721.getNFTValue(id);\n                }\n            }\n        }\n    }\n    function getToken(uint256 index) public view returns (uint256 id, uint256 value) {\n        if(msg.sender == owner) {\n            id = uint256(0);                         // return 0 for owner\n            value = uint256(0);\n        }\n        else {\n            uint256[] memory tokenIds = erc721.tokensOfOwner(msg.sender);\n            id = tokenIds.length > 0 && index < tokenIds.length ? tokenIds[index] : uint256(0);\n            value = uint256(0);\n            if(id != uint256(0)) {\n                if(erc721.getNFTState(id) == uint256(Status.Executed)) {\n                    value = erc721.getNFTValue(id);\n                }\n            }\n        }\n    }\n    function getBizProcessId() public view returns(address contractOwner, uint8 bizProcessId) {\n        contractOwner = owner;\n        bizProcessId = 0;\n\n        // we don't need to set this connector to start using smart contract \n        // ... we nned to set up erc721.connectors to address(this)\n        // ... but after this we meke abother transaction to set this.connectors[erc721] \n        // ... to signal that initialization is complited\n        if (connectors[erc721] == address(0)) {\n            bizProcessId = 100; \n            return;\n        }\n        \n        uint256 id;\n        uint256 value;\n        (id, value) = getCurrentToken();\n        if(id == uint256(0)) {\n            uint allowance = RST.allowance(msg.sender, address(this));\n            if(allowance == uint256(0)) {\n                // the first step - need to make allowance\n                bizProcessId = 1;\n            }\n            else {\n                // need to make order\n                bizProcessId = 2; \n            }\n        }\n        else {\n            // we have current token id\n            if (erc721.getNFTState(id) == uint(Status.Active)) {\n                bizProcessId = 10;\n            }\n            else if (erc721.getNFTState(id) == uint(Status.Executed)) {\n                bizProcessId = 11;\n            }\n            else if (erc721.getNFTState(id) == uint(Status.Closed)) {\n                bizProcessId = 12;\n\n            }\n            else if (erc721.getNFTState(id) == uint(Status.Canceled)) {\n                bizProcessId = 13;\n            }\n        }\n    }\n    constructor(address _rst, address _erc721) public { \n        amount = 7600000000;\n        rate = 0.05 ether;\n        RST = IERC20Token(_rst);\n        erc721 = IERC721SmartToken(_erc721);\n        open = true;\n    }\n}",
  "sourcePath": "/Users/sergei/SimpleExchange/contracts/SimpleExchange.sol",
  "compiler": {
    "name": "solc",
    "version": "0.4.24+commit.e67f0147.Emscripten.clang"
  },
  "schemaVersion": "2.0.1",
  "updatedAt": "2018-09-15T17:10:47.729Z"
}