{
  "contractName": "SimpleStorage",
  "abi": [
    {
      "constant": true,
      "inputs": [],
      "name": "storedData",
      "outputs": [
        {
          "name": "",
          "type": "uint256"
        }
      ],
      "payable": false,
      "stateMutability": "view",
      "type": "function"
    },
    {
      "anonymous": false,
      "inputs": [
        {
          "indexed": false,
          "name": "_message",
          "type": "string"
        }
      ],
      "name": "StorageSet",
      "type": "event"
    },
    {
      "constant": false,
      "inputs": [
        {
          "name": "x",
          "type": "uint256"
        }
      ],
      "name": "set",
      "outputs": [],
      "payable": false,
      "stateMutability": "nonpayable",
      "type": "function"
    }
  ],
  "bytecode": "0x608060405234801561001057600080fd5b5061014d806100206000396000f30060806040526004361061004c576000357c0100000000000000000000000000000000000000000000000000000000900463ffffffff1680632a1afcd91461005157806360fe47b11461007c575b600080fd5b34801561005d57600080fd5b506100666100a9565b6040518082815260200191505060405180910390f35b34801561008857600080fd5b506100a7600480360381019080803590602001909291905050506100af565b005b60005481565b806000819055507f60cdc157ca4737a5d39a0e107532616e7bf6946e615228812c7f9bc9f81797a66040518080602001828103825260198152602001807f446174612073746f726564207375636365737366756c6c79210000000000000081525060200191505060405180910390a1505600a165627a7a723058201670ae8c2740d9b3bce3bd7b9b0da91b5c22165a940a7c2e28c64fddde2497250029",
  "source": "pragma solidity ^0.4.18;\n\ncontract SimpleStorage {\n    event StorageSet(string _message);\n\n    uint public storedData;\n    \n    function set(uint x) public {\n        storedData = x;\n        emit StorageSet(\"Data stored successfully!\");\n    }\n}\n",
  "sourcePath": "/Users/sergei/SimpleExchange/contracts/SimpleStorage.sol",
  "compiler": {
    "name": "solc",
    "version": "0.4.24+commit.e67f0147.Emscripten.clang"
  },
  "schemaVersion": "2.0.1",
  "updatedAt": "2018-09-10T17:01:15.161Z"
}