{
  "contractName": "TokenCrowdsurance",
  "abi": [
    {
      "constant": true,
      "inputs": [
        {
          "name": "",
          "type": "address"
        }
      ],
      "name": "connectors",
      "outputs": [
        {
          "name": "",
          "type": "address"
        }
      ],
      "payable": false,
      "stateMutability": "view",
      "type": "function"
    },
    {
      "constant": true,
      "inputs": [],
      "name": "pool",
      "outputs": [
        {
          "name": "",
          "type": "address"
        }
      ],
      "payable": false,
      "stateMutability": "view",
      "type": "function"
    },
    {
      "constant": true,
      "inputs": [
        {
          "name": "",
          "type": "address"
        }
      ],
      "name": "addressToAmount",
      "outputs": [
        {
          "name": "",
          "type": "uint256"
        }
      ],
      "payable": false,
      "stateMutability": "view",
      "type": "function"
    },
    {
      "constant": false,
      "inputs": [
        {
          "name": "_receiver",
          "type": "address"
        }
      ],
      "name": "setReceiver",
      "outputs": [],
      "payable": false,
      "stateMutability": "nonpayable",
      "type": "function"
    },
    {
      "constant": false,
      "inputs": [],
      "name": "acceptOwnership",
      "outputs": [],
      "payable": false,
      "stateMutability": "nonpayable",
      "type": "function"
    },
    {
      "constant": true,
      "inputs": [
        {
          "name": "",
          "type": "uint256"
        }
      ],
      "name": "requests",
      "outputs": [
        {
          "name": "amount",
          "type": "uint256"
        },
        {
          "name": "timeStamp",
          "type": "uint256"
        },
        {
          "name": "duration",
          "type": "uint256"
        },
        {
          "name": "positive",
          "type": "uint8"
        },
        {
          "name": "negative",
          "type": "uint8"
        },
        {
          "name": "number",
          "type": "uint8"
        }
      ],
      "payable": false,
      "stateMutability": "view",
      "type": "function"
    },
    {
      "constant": true,
      "inputs": [],
      "name": "parameters",
      "outputs": [
        {
          "name": "joinAmount",
          "type": "uint256"
        },
        {
          "name": "coverageDuration",
          "type": "uint256"
        },
        {
          "name": "maxClaimAmount",
          "type": "uint256"
        },
        {
          "name": "maxClaimNumber",
          "type": "uint8"
        },
        {
          "name": "paymentRatio",
          "type": "uint8"
        },
        {
          "name": "maxPaymentAmount",
          "type": "uint256"
        },
        {
          "name": "minJuriesNumber",
          "type": "uint8"
        },
        {
          "name": "votingDuration",
          "type": "uint256"
        },
        {
          "name": "juriesNumber",
          "type": "uint8"
        },
        {
          "name": "maxApplications",
          "type": "uint256"
        },
        {
          "name": "averageScore",
          "type": "uint256"
        },
        {
          "name": "defaultClaimAmount",
          "type": "uint256"
        }
      ],
      "payable": false,
      "stateMutability": "view",
      "type": "function"
    },
    {
      "constant": true,
      "inputs": [],
      "name": "owner",
      "outputs": [
        {
          "name": "",
          "type": "address"
        }
      ],
      "payable": false,
      "stateMutability": "view",
      "type": "function"
    },
    {
      "constant": true,
      "inputs": [
        {
          "name": "",
          "type": "address"
        }
      ],
      "name": "voters",
      "outputs": [
        {
          "name": "",
          "type": "uint256"
        }
      ],
      "payable": false,
      "stateMutability": "view",
      "type": "function"
    },
    {
      "constant": true,
      "inputs": [
        {
          "name": "",
          "type": "uint256"
        }
      ],
      "name": "claims",
      "outputs": [
        {
          "name": "",
          "type": "uint256"
        }
      ],
      "payable": false,
      "stateMutability": "view",
      "type": "function"
    },
    {
      "constant": true,
      "inputs": [
        {
          "name": "",
          "type": "address"
        }
      ],
      "name": "addressToApplication",
      "outputs": [
        {
          "name": "",
          "type": "uint256"
        }
      ],
      "payable": false,
      "stateMutability": "view",
      "type": "function"
    },
    {
      "constant": true,
      "inputs": [
        {
          "name": "",
          "type": "address"
        }
      ],
      "name": "addressToScore",
      "outputs": [
        {
          "name": "",
          "type": "uint256"
        }
      ],
      "payable": false,
      "stateMutability": "view",
      "type": "function"
    },
    {
      "constant": false,
      "inputs": [
        {
          "name": "_sender",
          "type": "address"
        }
      ],
      "name": "setSender",
      "outputs": [],
      "payable": false,
      "stateMutability": "nonpayable",
      "type": "function"
    },
    {
      "constant": true,
      "inputs": [],
      "name": "newOwner",
      "outputs": [
        {
          "name": "",
          "type": "address"
        }
      ],
      "payable": false,
      "stateMutability": "view",
      "type": "function"
    },
    {
      "constant": true,
      "inputs": [
        {
          "name": "",
          "type": "uint256"
        }
      ],
      "name": "extensions",
      "outputs": [
        {
          "name": "timeStamp",
          "type": "uint256"
        },
        {
          "name": "activated",
          "type": "uint256"
        },
        {
          "name": "duration",
          "type": "uint256"
        },
        {
          "name": "amount",
          "type": "uint256"
        },
        {
          "name": "paid",
          "type": "uint256"
        },
        {
          "name": "score",
          "type": "uint256"
        },
        {
          "name": "claimNumber",
          "type": "uint8"
        },
        {
          "name": "status",
          "type": "uint8"
        }
      ],
      "payable": false,
      "stateMutability": "view",
      "type": "function"
    },
    {
      "constant": true,
      "inputs": [],
      "name": "appNumber",
      "outputs": [
        {
          "name": "",
          "type": "uint256"
        }
      ],
      "payable": false,
      "stateMutability": "view",
      "type": "function"
    },
    {
      "constant": true,
      "inputs": [
        {
          "name": "",
          "type": "uint256"
        }
      ],
      "name": "applications",
      "outputs": [
        {
          "name": "timeStamp",
          "type": "uint256"
        },
        {
          "name": "member",
          "type": "address"
        },
        {
          "name": "tokensToBuy",
          "type": "uint8"
        },
        {
          "name": "paymetMethod",
          "type": "uint8"
        },
        {
          "name": "processed",
          "type": "bool"
        }
      ],
      "payable": false,
      "stateMutability": "view",
      "type": "function"
    },
    {
      "constant": false,
      "inputs": [
        {
          "name": "_newOwner",
          "type": "address"
        }
      ],
      "name": "transferOwnership",
      "outputs": [],
      "payable": false,
      "stateMutability": "nonpayable",
      "type": "function"
    },
    {
      "inputs": [
        {
          "name": "_pool",
          "type": "address"
        }
      ],
      "payable": false,
      "stateMutability": "nonpayable",
      "type": "constructor"
    },
    {
      "payable": true,
      "stateMutability": "payable",
      "type": "fallback"
    },
    {
      "anonymous": false,
      "inputs": [
        {
          "indexed": false,
          "name": "member",
          "type": "address"
        },
        {
          "indexed": false,
          "name": "appId",
          "type": "uint256"
        }
      ],
      "name": "Apply",
      "type": "event"
    },
    {
      "anonymous": false,
      "inputs": [
        {
          "indexed": false,
          "name": "member",
          "type": "address"
        },
        {
          "indexed": false,
          "name": "id",
          "type": "uint256"
        },
        {
          "indexed": false,
          "name": "amount",
          "type": "uint256"
        }
      ],
      "name": "Join",
      "type": "event"
    },
    {
      "anonymous": false,
      "inputs": [
        {
          "indexed": false,
          "name": "member",
          "type": "address"
        },
        {
          "indexed": false,
          "name": "score",
          "type": "uint256"
        },
        {
          "indexed": false,
          "name": "amount",
          "type": "uint256"
        }
      ],
      "name": "Scoring",
      "type": "event"
    },
    {
      "anonymous": false,
      "inputs": [
        {
          "indexed": false,
          "name": "id",
          "type": "uint256"
        },
        {
          "indexed": false,
          "name": "amount",
          "type": "uint256"
        },
        {
          "indexed": false,
          "name": "score",
          "type": "uint256"
        }
      ],
      "name": "Activate",
      "type": "event"
    },
    {
      "anonymous": false,
      "inputs": [
        {
          "indexed": false,
          "name": "id",
          "type": "uint256"
        },
        {
          "indexed": false,
          "name": "claim",
          "type": "uint256"
        },
        {
          "indexed": false,
          "name": "number",
          "type": "uint8"
        }
      ],
      "name": "Claim",
      "type": "event"
    },
    {
      "anonymous": false,
      "inputs": [
        {
          "indexed": false,
          "name": "jury",
          "type": "address"
        },
        {
          "indexed": false,
          "name": "id",
          "type": "uint256"
        },
        {
          "indexed": false,
          "name": "positive",
          "type": "bool"
        }
      ],
      "name": "Vote",
      "type": "event"
    },
    {
      "anonymous": false,
      "inputs": [
        {
          "indexed": false,
          "name": "reciever",
          "type": "address"
        },
        {
          "indexed": false,
          "name": "id",
          "type": "uint256"
        },
        {
          "indexed": false,
          "name": "amount",
          "type": "uint256"
        },
        {
          "indexed": false,
          "name": "status",
          "type": "uint8"
        }
      ],
      "name": "Payment",
      "type": "event"
    },
    {
      "anonymous": false,
      "inputs": [
        {
          "indexed": false,
          "name": "member",
          "type": "address"
        },
        {
          "indexed": false,
          "name": "appId",
          "type": "uint256"
        }
      ],
      "name": "FSSF",
      "type": "event"
    },
    {
      "anonymous": false,
      "inputs": [
        {
          "indexed": true,
          "name": "_prevOwner",
          "type": "address"
        },
        {
          "indexed": true,
          "name": "_newOwner",
          "type": "address"
        }
      ],
      "name": "OwnerUpdate",
      "type": "event"
    },
    {
      "anonymous": false,
      "inputs": [
        {
          "indexed": false,
          "name": "_sender",
          "type": "address"
        },
        {
          "indexed": false,
          "name": "_receiver",
          "type": "address"
        }
      ],
      "name": "ReceiverUpdate",
      "type": "event"
    },
    {
      "anonymous": false,
      "inputs": [
        {
          "indexed": false,
          "name": "_sender",
          "type": "address"
        },
        {
          "indexed": false,
          "name": "_receiver",
          "type": "address"
        }
      ],
      "name": "SenderUpdate",
      "type": "event"
    },
    {
      "constant": false,
      "inputs": [
        {
          "name": "_member",
          "type": "address"
        },
        {
          "name": "_score",
          "type": "uint256"
        },
        {
          "name": "_amount",
          "type": "uint256"
        }
      ],
      "name": "scoring",
      "outputs": [],
      "payable": false,
      "stateMutability": "nonpayable",
      "type": "function"
    },
    {
      "constant": false,
      "inputs": [],
      "name": "fssf",
      "outputs": [],
      "payable": false,
      "stateMutability": "nonpayable",
      "type": "function"
    },
    {
      "constant": true,
      "inputs": [],
      "name": "getApplication",
      "outputs": [
        {
          "name": "member",
          "type": "address"
        },
        {
          "name": "appId",
          "type": "uint256"
        }
      ],
      "payable": false,
      "stateMutability": "view",
      "type": "function"
    },
    {
      "constant": true,
      "inputs": [],
      "name": "getJoinAmount",
      "outputs": [
        {
          "name": "amount",
          "type": "uint256"
        }
      ],
      "payable": false,
      "stateMutability": "view",
      "type": "function"
    },
    {
      "constant": true,
      "inputs": [],
      "name": "getHash",
      "outputs": [
        {
          "name": "",
          "type": "string"
        }
      ],
      "payable": false,
      "stateMutability": "view",
      "type": "function"
    },
    {
      "constant": true,
      "inputs": [],
      "name": "getAppID",
      "outputs": [
        {
          "name": "appId",
          "type": "uint256"
        }
      ],
      "payable": false,
      "stateMutability": "view",
      "type": "function"
    },
    {
      "constant": false,
      "inputs": [],
      "name": "apply",
      "outputs": [
        {
          "name": "addId",
          "type": "uint256"
        }
      ],
      "payable": false,
      "stateMutability": "nonpayable",
      "type": "function"
    },
    {
      "constant": false,
      "inputs": [],
      "name": "join",
      "outputs": [
        {
          "name": "crowdsuranceId",
          "type": "uint256"
        }
      ],
      "payable": true,
      "stateMutability": "payable",
      "type": "function"
    },
    {
      "constant": false,
      "inputs": [
        {
          "name": "_id",
          "type": "uint256"
        },
        {
          "name": "_hash",
          "type": "string"
        }
      ],
      "name": "activate",
      "outputs": [],
      "payable": false,
      "stateMutability": "nonpayable",
      "type": "function"
    },
    {
      "constant": false,
      "inputs": [
        {
          "name": "_id",
          "type": "uint256"
        },
        {
          "name": "_claim",
          "type": "uint256"
        }
      ],
      "name": "claim",
      "outputs": [
        {
          "name": "",
          "type": "bool"
        }
      ],
      "payable": false,
      "stateMutability": "nonpayable",
      "type": "function"
    },
    {
      "constant": true,
      "inputs": [],
      "name": "getNumberOfClaims",
      "outputs": [
        {
          "name": "",
          "type": "uint256"
        }
      ],
      "payable": false,
      "stateMutability": "view",
      "type": "function"
    },
    {
      "constant": false,
      "inputs": [
        {
          "name": "_jury",
          "type": "address"
        }
      ],
      "name": "addVoter",
      "outputs": [],
      "payable": false,
      "stateMutability": "nonpayable",
      "type": "function"
    },
    {
      "constant": false,
      "inputs": [
        {
          "name": "_id",
          "type": "uint256"
        },
        {
          "name": "_positive",
          "type": "bool"
        }
      ],
      "name": "vote",
      "outputs": [],
      "payable": false,
      "stateMutability": "nonpayable",
      "type": "function"
    },
    {
      "constant": true,
      "inputs": [],
      "name": "getCurrentTokenId",
      "outputs": [
        {
          "name": "currentId",
          "type": "uint256"
        }
      ],
      "payable": false,
      "stateMutability": "view",
      "type": "function"
    },
    {
      "constant": false,
      "inputs": [
        {
          "name": "_hash",
          "type": "string"
        }
      ],
      "name": "activateCurrent",
      "outputs": [],
      "payable": false,
      "stateMutability": "nonpayable",
      "type": "function"
    },
    {
      "constant": false,
      "inputs": [],
      "name": "claimCurrent",
      "outputs": [
        {
          "name": "",
          "type": "bool"
        }
      ],
      "payable": false,
      "stateMutability": "nonpayable",
      "type": "function"
    },
    {
      "constant": false,
      "inputs": [],
      "name": "paymentCurrent",
      "outputs": [],
      "payable": false,
      "stateMutability": "nonpayable",
      "type": "function"
    },
    {
      "constant": false,
      "inputs": [],
      "name": "castPositiveSelected",
      "outputs": [],
      "payable": false,
      "stateMutability": "nonpayable",
      "type": "function"
    },
    {
      "constant": false,
      "inputs": [],
      "name": "castNegativeSelected",
      "outputs": [],
      "payable": false,
      "stateMutability": "nonpayable",
      "type": "function"
    },
    {
      "constant": true,
      "inputs": [],
      "name": "getCurrentVotingStatus",
      "outputs": [
        {
          "name": "status",
          "type": "uint8"
        }
      ],
      "payable": false,
      "stateMutability": "view",
      "type": "function"
    },
    {
      "constant": false,
      "inputs": [
        {
          "name": "_id",
          "type": "uint256"
        }
      ],
      "name": "payment",
      "outputs": [],
      "payable": false,
      "stateMutability": "nonpayable",
      "type": "function"
    },
    {
      "constant": true,
      "inputs": [
        {
          "name": "_member",
          "type": "address"
        },
        {
          "name": "_status",
          "type": "uint8"
        }
      ],
      "name": "statusCount",
      "outputs": [
        {
          "name": "count",
          "type": "uint256"
        }
      ],
      "payable": false,
      "stateMutability": "view",
      "type": "function"
    }
  ],
  "bytecode": "0x608060405234801561001057600080fd5b50604051602080614a0e83398101806040528101908080519060200190929190505050336000806101000a81548173ffffffffffffffffffffffffffffffffffffffff021916908373ffffffffffffffffffffffffffffffffffffffff160217905550668700cc7577000060036000018190555062ed4e00600360010181905550673782dace9d90000060036002018190555060038060030160006101000a81548160ff021916908360ff16021790555060646003800160016101000a81548160ff021916908360ff160217905550678ac7230489e8000060036004018190555060038060050160006101000a81548160ff021916908360ff1602179055506202a3006003600601819055506005600360070160006101000a81548160ff021916908360ff160217905550600a6003600801819055506064600360090181905550673782dace9d9000006003600a01819055506000601581905550600060178190555080601860006101000a81548173ffffffffffffffffffffffffffffffffffffffff021916908373ffffffffffffffffffffffffffffffffffffffff1602179055505061484a806101c46000396000f3006080604052600436106101ed576000357c0100000000000000000000000000000000000000000000000000000000900463ffffffff1680620f987f146101ef5780630e53aae91461022057806316f0115b146102a357806319aa7625146102fa5780631aff0596146103115780632b47f5ce1461033c5780632dcfcd5f146103a55780633c7e7d28146103bc5780633c8deaca146104135780634fe89efe1461042a57806356189236146104885780635690d0d9146104b3578063604919ea14610526578063718da7ee1461055557806379ba50971461059857806381d12c58146105af57806389035730146106255780638b3c99e3146106b55780638da5cb5b146106e25780639d26d1ca14610739578063a01177cd14610764578063a3ec138d1461077b578063a888c2cd146107d2578063b688a36314610813578063be1d68ad14610831578063c0521d7614610888578063c3490263146108ec578063c52380e91461093b578063c9d27afe14610992578063ced32b0c146109cb578063cf7c436714610a0e578063d13319c414610a65578063d4ee1d9014610af5578063db595b3b14610b4c578063db85d59c14610b77578063dd52c33814610bf5578063deb8386a14610c20578063dfefadff14610c4b578063f2fde38b14610ce4578063f4ab9adf14610d27575b005b3480156101fb57600080fd5b50610204610d6a565b604051808260ff1660ff16815260200191505060405180910390f35b34801561022c57600080fd5b50610261600480360381019080803573ffffffffffffffffffffffffffffffffffffffff169060200190929190505050611085565b604051808273ffffffffffffffffffffffffffffffffffffffff1673ffffffffffffffffffffffffffffffffffffffff16815260200191505060405180910390f35b3480156102af57600080fd5b506102b86110b8565b604051808273ffffffffffffffffffffffffffffffffffffffff1673ffffffffffffffffffffffffffffffffffffffff16815260200191505060405180910390f35b34801561030657600080fd5b5061030f6110de565b005b34801561031d57600080fd5b506103266110f0565b6040518082815260200191505060405180910390f35b34801561034857600080fd5b506103a3600480360381019080803590602001908201803590602001908080601f0160208091040260200160405190810160405280939291908181526020018383808284378201915050505050509192919290505050611137565b005b3480156103b157600080fd5b506103ba61114b565b005b3480156103c857600080fd5b506103fd600480360381019080803573ffffffffffffffffffffffffffffffffffffffff169060200190929190505050611197565b6040518082815260200191505060405180910390f35b34801561041f57600080fd5b506104286111af565b005b34801561043657600080fd5b5061043f6111fb565b604051808373ffffffffffffffffffffffffffffffffffffffff1673ffffffffffffffffffffffffffffffffffffffff1681526020018281526020019250505060405180910390f35b34801561049457600080fd5b5061049d6112bb565b6040518082815260200191505060405180910390f35b3480156104bf57600080fd5b5061052460048036038101908080359060200190929190803590602001908201803590602001908080601f01602080910402602001604051908101604052809392919081815260200183838082843782019150505050505091929192905050506114a1565b005b34801561053257600080fd5b5061053b6118b2565b604051808215151515815260200191505060405180910390f35b34801561056157600080fd5b50610596600480360381019080803573ffffffffffffffffffffffffffffffffffffffff1690602001909291905050506118cf565b005b3480156105a457600080fd5b506105ad611a3f565b005b3480156105bb57600080fd5b506105da60048036038101908080359060200190929190505050611bde565b604051808781526020018681526020018581526020018460ff1660ff1681526020018360ff1660ff1681526020018260ff1660ff168152602001965050505050505060405180910390f35b34801561063157600080fd5b5061063a611c41565b604051808d81526020018c81526020018b81526020018a60ff1660ff1681526020018960ff1660ff1681526020018881526020018760ff1660ff1681526020018681526020018560ff1660ff1681526020018481526020018381526020018281526020019c5050505050505050505050505060405180910390f35b3480156106c157600080fd5b506106e060048036038101908080359060200190929190505050611cc3565b005b3480156106ee57600080fd5b506106f76127d6565b604051808273ffffffffffffffffffffffffffffffffffffffff1673ffffffffffffffffffffffffffffffffffffffff16815260200191505060405180910390f35b34801561074557600080fd5b5061074e6127fb565b6040518082815260200191505060405180910390f35b34801561077057600080fd5b50610779612842565b005b34801561078757600080fd5b506107bc600480360381019080803573ffffffffffffffffffffffffffffffffffffffff169060200190929190505050612975565b6040518082815260200191505060405180910390f35b3480156107de57600080fd5b506107fd6004803603810190808035906020019092919050505061298d565b6040518082815260200191505060405180910390f35b61081b6129b0565b6040518082815260200191505060405180910390f35b34801561083d57600080fd5b50610872600480360381019080803573ffffffffffffffffffffffffffffffffffffffff169060200190929190505050612a8f565b6040518082815260200191505060405180910390f35b34801561089457600080fd5b506108d6600480360381019080803573ffffffffffffffffffffffffffffffffffffffff169060200190929190803560ff169060200190929190505050612aa7565b6040518082815260200191505060405180910390f35b3480156108f857600080fd5b506109216004803603810190808035906020019092919080359060200190929190505050612c75565b604051808215151515815260200191505060405180910390f35b34801561094757600080fd5b5061097c600480360381019080803573ffffffffffffffffffffffffffffffffffffffff1690602001909291905050506131e2565b6040518082815260200191505060405180910390f35b34801561099e57600080fd5b506109c9600480360381019080803590602001909291908035151590602001909291905050506131fa565b005b3480156109d757600080fd5b50610a0c600480360381019080803573ffffffffffffffffffffffffffffffffffffffff169060200190929190505050613402565b005b348015610a1a57600080fd5b50610a63600480360381019080803573ffffffffffffffffffffffffffffffffffffffff1690602001909291908035906020019092919080359060200190929190505050613572565b005b348015610a7157600080fd5b50610a7a613840565b6040518080602001828103825283818151815260200191508051906020019080838360005b83811015610aba578082015181840152602081019050610a9f565b50505050905090810190601f168015610ae75780820380516001836020036101000a031916815260200191505b509250505060405180910390f35b348015610b0157600080fd5b50610b0a6139a8565b604051808273ffffffffffffffffffffffffffffffffffffffff1673ffffffffffffffffffffffffffffffffffffffff16815260200191505060405180910390f35b348015610b5857600080fd5b50610b616139ce565b6040518082815260200191505060405180910390f35b348015610b8357600080fd5b50610ba260048036038101908080359060200190929190505050613d34565b604051808981526020018881526020018781526020018681526020018581526020018481526020018360ff1660ff1681526020018260ff1660ff1681526020019850505050505050505060405180910390f35b348015610c0157600080fd5b50610c0a613d96565b6040518082815260200191505060405180910390f35b348015610c2c57600080fd5b50610c35613da7565b6040518082815260200191505060405180910390f35b348015610c5757600080fd5b50610c7660048036038101908080359060200190929190505050613dad565b604051808681526020018573ffffffffffffffffffffffffffffffffffffffff1673ffffffffffffffffffffffffffffffffffffffff1681526020018460ff1660ff1681526020018360ff1660ff168152602001821515151581526020019550505050505060405180910390f35b348015610cf057600080fd5b50610d25600480360381019080803573ffffffffffffffffffffffffffffffffffffffff169060200190929190505050613e39565b005b348015610d3357600080fd5b50610d68600480360381019080803573ffffffffffffffffffffffffffffffffffffffff169060200190929190505050613f31565b005b6000806000806000806000806000806000610d836112bb565b995060008a14151515610d9557600080fd5b601860009054906101000a900473ffffffffffffffffffffffffffffffffffffffff1673ffffffffffffffffffffffffffffffffffffffff1663cc933f9d338c6040518363ffffffff167c0100000000000000000000000000000000000000000000000000000000028152600401808373ffffffffffffffffffffffffffffffffffffffff1673ffffffffffffffffffffffffffffffffffffffff16815260200182815260200192505050602060405180830381600087803b158015610e5a57600080fd5b505af1158015610e6e573d6000803e3d6000fd5b505050506040513d6020811015610e8457600080fd5b81019080805190602001909291905050501515610ea057600080fd5b60026005811115610ead57fe5b601060008c815260200190815260200160002060060160019054906101000a900460ff1660ff16141515610ee057600080fd5b601260008b81526020019081526020016000209850601060008b81526020019081526020016000206003015497508860030160009054906101000a900460ff1696508860030160019054906101000a900460ff1695506000945060646003800160019054906101000a900460ff1660ff168a6000015402811515610f6057fe5b0493503073ffffffffffffffffffffffffffffffffffffffff163192504289600201548a6001015401109150600360070160009054906101000a900460ff1660ff168960030160019054906101000a900460ff168a60030160009054906101000a900460ff160160ff161490508115610fdc5760029450610fe8565b8015610fe757600194505b5b60009a50600280811115610ff857fe5b85600281111561100457fe5b148061102657506001600281111561101857fe5b85600281111561102457fe5b145b15611078578560ff168760ff161180156110405750828411155b1561104e5760019a50611077565b8560ff168760ff161480156110635750828811155b156110715760029a50611076565b60039a505b5b5b5050505050505050505090565b60026020528060005260406000206000915054906101000a900473ffffffffffffffffffffffffffffffffffffffff1681565b601860009054906101000a900473ffffffffffffffffffffffffffffffffffffffff1681565b6110ee6110e96112bb565b611cc3565b565b6000601360003373ffffffffffffffffffffffffffffffffffffffff1673ffffffffffffffffffffffffffffffffffffffff16815260200190815260200160002054905090565b6111486111426112bb565b826114a1565b50565b611195601160003373ffffffffffffffffffffffffffffffffffffffff1673ffffffffffffffffffffffffffffffffffffffff1681526020019081526020016000205460006131fa565b565b600e6020528060005260406000206000915090505481565b6111f9601160003373ffffffffffffffffffffffffffffffffffffffff1673ffffffffffffffffffffffffffffffffffffffff1681526020019081526020016000205460016131fa565b565b60008060008092506000915060006015541415611217576112b6565b600190505b6014805490508110156112b55760148181548110151561123857fe5b906000526020600020906002020160010160169054906101000a900460ff1615156112a85760148181548110151561126c57fe5b906000526020600020906002020160010160009054906101000a900473ffffffffffffffffffffffffffffffffffffffff1692508091506112b6565b808060010191505061121c565b5b509091565b600060606000809054906101000a900473ffffffffffffffffffffffffffffffffffffffff1673ffffffffffffffffffffffffffffffffffffffff163373ffffffffffffffffffffffffffffffffffffffff16141561131d576000915061149d565b601860009054906101000a900473ffffffffffffffffffffffffffffffffffffffff1673ffffffffffffffffffffffffffffffffffffffff1663a780b22e336040518263ffffffff167c0100000000000000000000000000000000000000000000000000000000028152600401808273ffffffffffffffffffffffffffffffffffffffff1673ffffffffffffffffffffffffffffffffffffffff168152602001915050600060405180830381600087803b1580156113da57600080fd5b505af11580156113ee573d6000803e3d6000fd5b505050506040513d6000823e3d601f19601f82011682018060405250602081101561141857600080fd5b81019080805164010000000081111561143057600080fd5b8281019050602081018481111561144657600080fd5b815185602082028301116401000000008211171561146357600080fd5b50509291905050509050600081511161147d57600061149a565b80600182510381518110151561148f57fe5b906020019060200201515b91505b5090565b600082141515156114b157600080fd5b601860009054906101000a900473ffffffffffffffffffffffffffffffffffffffff1673ffffffffffffffffffffffffffffffffffffffff1663cc933f9d33846040518363ffffffff167c0100000000000000000000000000000000000000000000000000000000028152600401808373ffffffffffffffffffffffffffffffffffffffff1673ffffffffffffffffffffffffffffffffffffffff16815260200182815260200192505050602060405180830381600087803b15801561157657600080fd5b505af115801561158a573d6000803e3d6000fd5b505050506040513d60208110156115a057600080fd5b810190808051906020019092919050505015156115bc57600080fd5b60006010600084815260200190815260200160002060030154141515156115e257600080fd5b600160058111156115ef57fe5b60ff166010600084815260200190815260200160002060060160019054906101000a900460ff1660ff161415151561162657600080fd5b601860009054906101000a900473ffffffffffffffffffffffffffffffffffffffff1673ffffffffffffffffffffffffffffffffffffffff1663dda0d1db836040518263ffffffff167c010000000000000000000000000000000000000000000000000000000002815260040180828152602001915050600060405180830381600087803b1580156116b757600080fd5b505af11580156116cb573d6000803e3d6000fd5b50505050600160058111156116dc57fe5b6010600084815260200190815260200160002060060160016101000a81548160ff021916908360ff160217905550426010600084815260200190815260200160002060010181905550601860009054906101000a900473ffffffffffffffffffffffffffffffffffffffff1673ffffffffffffffffffffffffffffffffffffffff16634908a55483836040518363ffffffff167c01000000000000000000000000000000000000000000000000000000000281526004018083815260200180602001828103825283818151815260200191508051906020019080838360005b838110156117d65780820151818401526020810190506117bb565b50505050905090810190601f1680156118035780820380516001836020036101000a031916815260200191505b509350505050600060405180830381600087803b15801561182357600080fd5b505af1158015611837573d6000803e3d6000fd5b505050507ff5d2d36fd2c60192fd8f874c962737f1858ff797bf9865d071ade33eeee00701826010600085815260200190815260200160002060030154601060008681526020019081526020016000206005015460405180848152602001838152602001828152602001935050505060405180910390a15050565b60006118ca6118bf6112bb565b6003600a0154612c75565b905090565b6000809054906101000a900473ffffffffffffffffffffffffffffffffffffffff1673ffffffffffffffffffffffffffffffffffffffff163373ffffffffffffffffffffffffffffffffffffffff1614151561192757fe5b80600260003073ffffffffffffffffffffffffffffffffffffffff1673ffffffffffffffffffffffffffffffffffffffff16815260200190815260200160002060006101000a81548173ffffffffffffffffffffffffffffffffffffffff021916908373ffffffffffffffffffffffffffffffffffffffff1602179055507f88477ef2e6ee708c15e490fc6b373fe9ca955c32fc8679cd5b820323f20e2b9f3082604051808373ffffffffffffffffffffffffffffffffffffffff1673ffffffffffffffffffffffffffffffffffffffff1681526020018273ffffffffffffffffffffffffffffffffffffffff1673ffffffffffffffffffffffffffffffffffffffff1681526020019250505060405180910390a150565b600160009054906101000a900473ffffffffffffffffffffffffffffffffffffffff1673ffffffffffffffffffffffffffffffffffffffff163373ffffffffffffffffffffffffffffffffffffffff16141515611a9b57600080fd5b600160009054906101000a900473ffffffffffffffffffffffffffffffffffffffff1673ffffffffffffffffffffffffffffffffffffffff166000809054906101000a900473ffffffffffffffffffffffffffffffffffffffff1673ffffffffffffffffffffffffffffffffffffffff167f343765429aea5a34b3ff6a3785a98a5abb2597aca87bfbb58632c173d585373a60405160405180910390a3600160009054906101000a900473ffffffffffffffffffffffffffffffffffffffff166000806101000a81548173ffffffffffffffffffffffffffffffffffffffff021916908373ffffffffffffffffffffffffffffffffffffffff1602179055506000600160006101000a81548173ffffffffffffffffffffffffffffffffffffffff021916908373ffffffffffffffffffffffffffffffffffffffff160217905550565b60126020528060005260406000206000915090508060000154908060010154908060020154908060030160009054906101000a900460ff16908060030160019054906101000a900460ff16908060030160029054906101000a900460ff16905086565b60038060000154908060010154908060020154908060030160009054906101000a900460ff16908060030160019054906101000a900460ff16908060040154908060050160009054906101000a900460ff16908060060154908060070160009054906101000a900460ff169080600801549080600901549080600a015490508c565b600080600080611cd16145cb565b6000808714151515611ce257600080fd5b601860009054906101000a900473ffffffffffffffffffffffffffffffffffffffff1673ffffffffffffffffffffffffffffffffffffffff1663cc933f9d33896040518363ffffffff167c0100000000000000000000000000000000000000000000000000000000028152600401808373ffffffffffffffffffffffffffffffffffffffff1673ffffffffffffffffffffffffffffffffffffffff16815260200182815260200192505050602060405180830381600087803b158015611da757600080fd5b505af1158015611dbb573d6000803e3d6000fd5b505050506040513d6020811015611dd157600080fd5b81019080805190602001909291905050501515611ded57600080fd5b60026005811115611dfa57fe5b6010600089815260200190815260200160002060060160019054906101000a900460ff1660ff16141515611e2d57600080fd5b601260008881526020019081526020016000209550428660020154876001015401109450600360070160009054906101000a900460ff1660ff168660030160019054906101000a900460ff168760030160009054906101000a900460ff160160ff161493508480611e9b5750835b1515611ea657600080fd5b60646003800160019054906101000a900460ff1660ff16876000015402811515611ecc57fe5b0492508560030160019054906101000a900460ff1660ff168660030160009054906101000a900460ff1660ff16118015611fd65750601860009054906101000a900473ffffffffffffffffffffffffffffffffffffffff1673ffffffffffffffffffffffffffffffffffffffff166329a40d6388856040518363ffffffff167c01000000000000000000000000000000000000000000000000000000000281526004018083815260200182815260200192505050602060405180830381600087803b158015611f9a57600080fd5b505af1158015611fae573d6000803e3d6000fd5b505050506040513d6020811015611fc457600080fd5b81019080805190602001909291905050505b156121fe573373ffffffffffffffffffffffffffffffffffffffff166108fc849081150290604051600060405180830381858888f19350505050158015612021573d6000803e3d6000fd5b506003600581111561202f57fe5b6010600089815260200190815260200160002060060160016101000a81548160ff021916908360ff160217905550826010600089815260200190815260200160002060040154016010600089815260200190815260200160002060040181905550601860009054906101000a900473ffffffffffffffffffffffffffffffffffffffff1673ffffffffffffffffffffffffffffffffffffffff1663c17e19af88856040518363ffffffff167c01000000000000000000000000000000000000000000000000000000000281526004018083815260200182815260200192505050608060405180830381600087803b15801561212957600080fd5b505af115801561213d573d6000803e3d6000fd5b505050506040513d601f19601f82011682018060405250608081101561216257600080fd5b810190809190505091507f261826fbdc11ee0da48a5356542bcb46786deaed4c215b871d3df7a03652262d3388856003600581111561219d57fe5b604051808573ffffffffffffffffffffffffffffffffffffffff1673ffffffffffffffffffffffffffffffffffffffff1681526020018481526020018381526020018260ff1660ff16815260200194505050505060405180910390a16126aa565b8560030160019054906101000a900460ff1660ff168660030160009054906101000a900460ff1660ff16148061226f5750600360050160009054906101000a900460ff1660ff168660030160019054906101000a900460ff168760030160009054906101000a900460ff160160ff16105b80156123615750601860009054906101000a900473ffffffffffffffffffffffffffffffffffffffff1673ffffffffffffffffffffffffffffffffffffffff166329a40d6388601060008b8152602001908152602001600020600301546040518363ffffffff167c01000000000000000000000000000000000000000000000000000000000281526004018083815260200182815260200192505050602060405180830381600087803b15801561232557600080fd5b505af1158015612339573d6000803e3d6000fd5b505050506040513d602081101561234f57600080fd5b81019080805190602001909291905050505b156125df573373ffffffffffffffffffffffffffffffffffffffff166108fc601060008a8152602001908152602001600020600301549081150290604051600060405180830381858888f193505050501580156123c2573d6000803e3d6000fd5b506005808111156123cf57fe5b6010600089815260200190815260200160002060060160016101000a81548160ff021916908360ff16021790555060106000888152602001908152602001600020600301546010600089815260200190815260200160002060040154016010600089815260200190815260200160002060040181905550601860009054906101000a900473ffffffffffffffffffffffffffffffffffffffff1673ffffffffffffffffffffffffffffffffffffffff1663c17e19af88601060008b8152602001908152602001600020600301546040518363ffffffff167c01000000000000000000000000000000000000000000000000000000000281526004018083815260200182815260200192505050608060405180830381600087803b1580156124f557600080fd5b505af1158015612509573d6000803e3d6000fd5b505050506040513d601f19601f82011682018060405250608081101561252e57600080fd5b810190809190505091507f261826fbdc11ee0da48a5356542bcb46786deaed4c215b871d3df7a03652262d3388601060008b81526020019081526020016000206003015460058081111561257e57fe5b604051808573ffffffffffffffffffffffffffffffffffffffff1673ffffffffffffffffffffffffffffffffffffffff1681526020018481526020018381526020018260ff1660ff16815260200194505050505060405180910390a16126a9565b600460058111156125ec57fe5b6010600089815260200190815260200160002060060160016101000a81548160ff021916908360ff1602179055507f261826fbdc11ee0da48a5356542bcb46786deaed4c215b871d3df7a03652262d338860006004600581111561264c57fe5b604051808573ffffffffffffffffffffffffffffffffffffffff1673ffffffffffffffffffffffffffffffffffffffff1681526020018481526020018381526020018260ff1660ff16815260200194505050505060405180910390a15b5b5b8560030160029054906101000a900460ff1660ff16811015612749576011600087600401836005811015156126dc57fe5b0160009054906101000a900473ffffffffffffffffffffffffffffffffffffffff1673ffffffffffffffffffffffffffffffffffffffff1673ffffffffffffffffffffffffffffffffffffffff1681526020019081526020016000206000905580806001019150506126ab565b60126000888152602001908152602001600020600080820160009055600182016000905560028201600090556003820160006101000a81549060ff02191690556003820160016101000a81549060ff02191690556003820160026101000a81549060ff02191690556004820160006127c191906145ee565b50506127cb6145cb565b915050505050505050565b6000809054906101000a900473ffffffffffffffffffffffffffffffffffffffff1681565b6000600e60003373ffffffffffffffffffffffffffffffffffffffff1673ffffffffffffffffffffffffffffffffffffffff16815260200190815260200160002054905090565b6000806000809054906101000a900473ffffffffffffffffffffffffffffffffffffffff1673ffffffffffffffffffffffffffffffffffffffff163373ffffffffffffffffffffffffffffffffffffffff1614151561289d57fe5b6128a56111fb565b8092508193505050600073ffffffffffffffffffffffffffffffffffffffff168273ffffffffffffffffffffffffffffffffffffffff16141580156128eb575060008114155b156129715761290582600360090154600360000154613572565b7fa2b47dc564bd9b8719fa8435590eb01665bade49e1fa4890022587a074d9e4268282604051808373ffffffffffffffffffffffffffffffffffffffff1673ffffffffffffffffffffffffffffffffffffffff1681526020018281526020019250505060405180910390a15b5050565b60116020528060005260406000206000915090505481565b60168181548110151561299c57fe5b906000526020600020016000915090505481565b600080600080349250339150600f60008373ffffffffffffffffffffffffffffffffffffffff1673ffffffffffffffffffffffffffffffffffffffff16815260200190815260200160002054905060008314158015612a1457506003600001548310155b1515612a1f57600080fd5b60008114151515612a2f57600080fd5b600e60008373ffffffffffffffffffffffffffffffffffffffff1673ffffffffffffffffffffffffffffffffffffffff1681526020019081526020016000205483141515612a7c57600080fd5b612a8782828561420c565b935050505090565b60136020528060005260406000206000915090505481565b600060606000601860009054906101000a900473ffffffffffffffffffffffffffffffffffffffff1673ffffffffffffffffffffffffffffffffffffffff1663a780b22e866040518263ffffffff167c0100000000000000000000000000000000000000000000000000000000028152600401808273ffffffffffffffffffffffffffffffffffffffff1673ffffffffffffffffffffffffffffffffffffffff168152602001915050600060405180830381600087803b158015612b6a57600080fd5b505af1158015612b7e573d6000803e3d6000fd5b505050506040513d6000823e3d601f19601f820116820180604052506020811015612ba857600080fd5b810190808051640100000000811115612bc057600080fd5b82810190506020810184811115612bd657600080fd5b8151856020820283011164010000000082111715612bf357600080fd5b5050929190505050915060009250600090505b8151811015612c6d578360ff16601060008484815181101515612c2557fe5b90602001906020020151815260200190815260200160002060060160019054906101000a900460ff1660ff161415612c605782806001019350505b8080600101915050612c06565b505092915050565b6000806000808514151515612c8957600080fd5b601860009054906101000a900473ffffffffffffffffffffffffffffffffffffffff1673ffffffffffffffffffffffffffffffffffffffff1663cc933f9d33876040518363ffffffff167c0100000000000000000000000000000000000000000000000000000000028152600401808373ffffffffffffffffffffffffffffffffffffffff1673ffffffffffffffffffffffffffffffffffffffff16815260200182815260200192505050602060405180830381600087803b158015612d4e57600080fd5b505af1158015612d62573d6000803e3d6000fd5b505050506040513d6020811015612d7857600080fd5b81019080805190602001909291905050501515612d9457600080fd5b60008414151515612da457600080fd5b60016005811115612db157fe5b6010600087815260200190815260200160002060060160019054906101000a900460ff1660ff16141515612de457600080fd5b6003800160009054906101000a900460ff1660ff166010600087815260200190815260200160002060060160009054906101000a900460ff1660ff16101515612e2c57600080fd5b60646003800160019054906101000a900460ff1660ff168502811515612e4e57fe5b0491506003600401548260106000888152602001908152602001600020600401540111151515612e7d57600080fd5b60106000868152602001908152602001600020600201546010600087815260200190815260200160002060010154019050428110151515612ebd57600080fd5b60e0604051908101604052808581526020014281526020016003600601548152602001600060ff168152602001600060ff168152602001600060ff16815260200160a060405190810160405280600073ffffffffffffffffffffffffffffffffffffffff1673ffffffffffffffffffffffffffffffffffffffff168152602001600073ffffffffffffffffffffffffffffffffffffffff1673ffffffffffffffffffffffffffffffffffffffff168152602001600073ffffffffffffffffffffffffffffffffffffffff1673ffffffffffffffffffffffffffffffffffffffff168152602001600073ffffffffffffffffffffffffffffffffffffffff1673ffffffffffffffffffffffffffffffffffffffff168152602001600073ffffffffffffffffffffffffffffffffffffffff1673ffffffffffffffffffffffffffffffffffffffff168152508152506012600087815260200190815260200160002060008201518160000155602082015181600101556040820151816002015560608201518160030160006101000a81548160ff021916908360ff16021790555060808201518160030160016101000a81548160ff021916908360ff16021790555060a08201518160030160026101000a81548160ff021916908360ff16021790555060c0820151816004019060056130b5929190614611565b5090505060106000868152602001908152602001600020600601600081819054906101000a900460ff168092919060010191906101000a81548160ff021916908360ff160217905550506002600581111561310c57fe5b6010600087815260200190815260200160002060060160016101000a81548160ff021916908360ff16021790555060168590806001815401808255809150509060018203906000526020600020016000909192909190915055507fb3ef0c14cd9ed6533151b9a921ddb33f8716dd3593254ffc741ae770313e3bea85856010600089815260200190815260200160002060060160009054906101000a900460ff16604051808481526020018381526020018260ff1660ff168152602001935050505060405180910390a160019250505092915050565b600f6020528060005260406000206000915090505481565b6000806000841415151561320d57600080fd5b601160003373ffffffffffffffffffffffffffffffffffffffff1673ffffffffffffffffffffffffffffffffffffffff168152602001908152602001600020548414151561325a57600080fd5b6002600581111561326757fe5b60ff166010600086815260200190815260200160002060060160019054906101000a900460ff1660ff1614151561329d57600080fd5b601260008581526020019081526020016000209150816002015482600101540190504281101515156132ce57600080fd5b821561330d5781600301600081819054906101000a900460ff168092919060010191906101000a81548160ff021916908360ff16021790555050613342565b81600301600181819054906101000a900460ff168092919060010191906101000a81548160ff021916908360ff160217905550505b601160003373ffffffffffffffffffffffffffffffffffffffff1673ffffffffffffffffffffffffffffffffffffffff168152602001908152602001600020600090557f8d85a70fd2c5d140a4a01143492d27ff82cfad4cead313e66c53f39b0feb5e0f338585604051808473ffffffffffffffffffffffffffffffffffffffff1673ffffffffffffffffffffffffffffffffffffffff16815260200183815260200182151515158152602001935050505060405180910390a150505050565b6000809054906101000a900473ffffffffffffffffffffffffffffffffffffffff1673ffffffffffffffffffffffffffffffffffffffff163373ffffffffffffffffffffffffffffffffffffffff1614151561345a57fe5b30600260008373ffffffffffffffffffffffffffffffffffffffff1673ffffffffffffffffffffffffffffffffffffffff16815260200190815260200160002060006101000a81548173ffffffffffffffffffffffffffffffffffffffff021916908373ffffffffffffffffffffffffffffffffffffffff1602179055507f25245aeb6dcc1afb9053581af7e6b984f2191e80b27c263b11c45d821a566a538130604051808373ffffffffffffffffffffffffffffffffffffffff1673ffffffffffffffffffffffffffffffffffffffff1681526020018273ffffffffffffffffffffffffffffffffffffffff1673ffffffffffffffffffffffffffffffffffffffff1681526020019250505060405180910390a150565b60008060009054906101000a900473ffffffffffffffffffffffffffffffffffffffff1673ffffffffffffffffffffffffffffffffffffffff163373ffffffffffffffffffffffffffffffffffffffff161415156135cc57fe5b600073ffffffffffffffffffffffffffffffffffffffff168473ffffffffffffffffffffffffffffffffffffffff161415151561360857600080fd5b6000831415151561361857600080fd5b6000821415801561362e57506003600001548210155b151561363957600080fd5b81600e60008673ffffffffffffffffffffffffffffffffffffffff1673ffffffffffffffffffffffffffffffffffffffff1681526020019081526020016000208190555082600f60008673ffffffffffffffffffffffffffffffffffffffff1673ffffffffffffffffffffffffffffffffffffffff16815260200190815260200160002081905550601360008573ffffffffffffffffffffffffffffffffffffffff1673ffffffffffffffffffffffffffffffffffffffff16815260200190815260200160002054905060008114158015613718575060148054905081105b156137c757600160148281548110151561372e57fe5b906000526020600020906002020160010160166101000a81548160ff021916908315150217905550601360008573ffffffffffffffffffffffffffffffffffffffff1673ffffffffffffffffffffffffffffffffffffffff1681526020019081526020016000206000905560156000815480929190600190039190505550600060155414156137c657601460006137c5919061468e565b5b5b7f21619a95128e7e5c5367774b6479b6edbc059210239e39bbd50dbae00cfe0972848484604051808473ffffffffffffffffffffffffffffffffffffffff1673ffffffffffffffffffffffffffffffffffffffff168152602001838152602001828152602001935050505060405180910390a150505050565b6060601860009054906101000a900473ffffffffffffffffffffffffffffffffffffffff1673ffffffffffffffffffffffffffffffffffffffff1663c97dcba9601160003373ffffffffffffffffffffffffffffffffffffffff1673ffffffffffffffffffffffffffffffffffffffff168152602001908152602001600020546040518263ffffffff167c010000000000000000000000000000000000000000000000000000000002815260040180828152602001915050600060405180830381600087803b15801561391257600080fd5b505af1158015613926573d6000803e3d6000fd5b505050506040513d6000823e3d601f19601f82011682018060405250602081101561395057600080fd5b81019080805164010000000081111561396857600080fd5b8281019050602081018481111561397e57600080fd5b815185600182028301116401000000008211171561399b57600080fd5b5050929190505050905090565b600160009054906101000a900473ffffffffffffffffffffffffffffffffffffffff1681565b60006139d86146b2565b601360003373ffffffffffffffffffffffffffffffffffffffff1673ffffffffffffffffffffffffffffffffffffffff168152602001908152602001600020549150600082148015613a305750600360080154601554105b15613d305760a0604051908101604052804281526020013373ffffffffffffffffffffffffffffffffffffffff168152602001600160ff168152602001600060ff1681526020016000151581525090506001601482908060018154018082558091505090600182039060005260206000209060020201600090919290919091506000820151816000015560208201518160010160006101000a81548173ffffffffffffffffffffffffffffffffffffffff021916908373ffffffffffffffffffffffffffffffffffffffff16021790555060408201518160010160146101000a81548160ff021916908360ff16021790555060608201518160010160156101000a81548160ff021916908360ff16021790555060808201518160010160166101000a81548160ff02191690831515021790555050500391506000821415613c5a576001601482908060018154018082558091505090600182039060005260206000209060020201600090919290919091506000820151816000015560208201518160010160006101000a81548173ffffffffffffffffffffffffffffffffffffffff021916908373ffffffffffffffffffffffffffffffffffffffff16021790555060408201518160010160146101000a81548160ff021916908360ff16021790555060608201518160010160156101000a81548160ff021916908360ff16021790555060808201518160010160166101000a81548160ff02191690831515021790555050500391505b8163ffffffff1682141515613c6e57600080fd5b81601360003373ffffffffffffffffffffffffffffffffffffffff1673ffffffffffffffffffffffffffffffffffffffff168152602001908152602001600020819055506015600081548092919060010191905055507f59470163a7d3423114f115af31707633dd4930abac0f3662fc3c4ef323f39a863383604051808373ffffffffffffffffffffffffffffffffffffffff1673ffffffffffffffffffffffffffffffffffffffff1681526020018281526020019250505060405180910390a15b5090565b60106020528060005260406000206000915090508060000154908060010154908060020154908060030154908060040154908060050154908060060160009054906101000a900460ff16908060060160019054906101000a900460ff16905088565b600060175460168054905003905090565b60155481565b601481815481101515613dbc57fe5b90600052602060002090600202016000915090508060000154908060010160009054906101000a900473ffffffffffffffffffffffffffffffffffffffff16908060010160149054906101000a900460ff16908060010160159054906101000a900460ff16908060010160169054906101000a900460ff16905085565b6000809054906101000a900473ffffffffffffffffffffffffffffffffffffffff1673ffffffffffffffffffffffffffffffffffffffff163373ffffffffffffffffffffffffffffffffffffffff16141515613e9157fe5b6000809054906101000a900473ffffffffffffffffffffffffffffffffffffffff1673ffffffffffffffffffffffffffffffffffffffff168173ffffffffffffffffffffffffffffffffffffffff1614151515613eed57600080fd5b80600160006101000a81548173ffffffffffffffffffffffffffffffffffffffff021916908373ffffffffffffffffffffffffffffffffffffffff16021790555050565b6000806000806000809054906101000a900473ffffffffffffffffffffffffffffffffffffffff1673ffffffffffffffffffffffffffffffffffffffff163373ffffffffffffffffffffffffffffffffffffffff16141515613f8f57fe5b601680549050601754101515613fa457600080fd5b6016601754815481101515613fb557fe5b90600052602060002001549350600073ffffffffffffffffffffffffffffffffffffffff168573ffffffffffffffffffffffffffffffffffffffff1614151515613ffe57600080fd5b6000841415151561400e57600080fd5b6002600581111561401b57fe5b6010600086815260200190815260200160002060060160019054906101000a900460ff1660ff1614151561404e57600080fd5b601260008581526020019081526020016000209250600083600001541415151561407757600080fd5b8260020154836001015401915042821015151561409357600080fd5b8260030160029054906101000a900460ff169050600360070160009054906101000a900460ff1660ff168160ff161015156140cd57600080fd5b84836004018260ff166005811015156140e257fe5b0160006101000a81548173ffffffffffffffffffffffffffffffffffffffff021916908373ffffffffffffffffffffffffffffffffffffffff16021790555082600301600281819054906101000a900460ff168092919060010191906101000a81548160ff021916908360ff1602179055505083601160008773ffffffffffffffffffffffffffffffffffffffff1673ffffffffffffffffffffffffffffffffffffffff16815260200190815260200160002081905550600360070160009054906101000a900460ff1660ff168360030160029054906101000a900460ff1660ff16141561420557601760008154809291906001019190505550601680549050601754141561420457600060178190555060006016816142029190614700565b505b5b5050505050565b600080601860009054906101000a900473ffffffffffffffffffffffffffffffffffffffff1673ffffffffffffffffffffffffffffffffffffffff1663ea81d62084876040518363ffffffff167c0100000000000000000000000000000000000000000000000000000000028152600401808381526020018273ffffffffffffffffffffffffffffffffffffffff1673ffffffffffffffffffffffffffffffffffffffff16815260200192505050602060405180830381600087803b1580156142d457600080fd5b505af11580156142e8573d6000803e3d6000fd5b505050506040513d60208110156142fe57600080fd5b810190808051906020019092919050505090506101006040519081016040528042815260200160008152602001600360010154815260200184815260200160008152602001858152602001600060ff1681526020016000600581111561436057fe5b60ff1681525060106000838152602001908152602001600020600082015181600001556020820151816001015560408201518160020155606082015181600301556080820151816004015560a0820151816005015560c08201518160060160006101000a81548160ff021916908360ff16021790555060e08201518160060160016101000a81548160ff021916908360ff160217905550905050601860009054906101000a900473ffffffffffffffffffffffffffffffffffffffff1673ffffffffffffffffffffffffffffffffffffffff1663daa8d4f0826040518263ffffffff167c010000000000000000000000000000000000000000000000000000000002815260040180828152602001915050602060405180830381600087803b15801561448b57600080fd5b505af115801561449f573d6000803e3d6000fd5b505050506040513d60208110156144b557600080fd5b8101908080519060200190929190505050507fbca387acb0ba7d06e329c4372885bb664f19a98153ccf3e74e56c136bf0e88c4858285604051808473ffffffffffffffffffffffffffffffffffffffff1673ffffffffffffffffffffffffffffffffffffffff168152602001838152602001828152602001935050505060405180910390a1600e60008673ffffffffffffffffffffffffffffffffffffffff1673ffffffffffffffffffffffffffffffffffffffff16815260200190815260200160002060009055600f60008673ffffffffffffffffffffffffffffffffffffffff1673ffffffffffffffffffffffffffffffffffffffff16815260200190815260200160002060009055809150509392505050565b608060405190810160405280600490602082028038833980820191505090505090565b506000815560010160008155600101600081556001016000815560010160009055565b826005810192821561467d579160200282015b8281111561467c5782518260006101000a81548173ffffffffffffffffffffffffffffffffffffffff021916908373ffffffffffffffffffffffffffffffffffffffff16021790555091602001919060010190614624565b5b50905061468a919061472c565b5090565b50805460008255600202906000526020600020908101906146af919061476f565b50565b60a06040519081016040528060008152602001600073ffffffffffffffffffffffffffffffffffffffff168152602001600060ff168152602001600060ff1681526020016000151581525090565b8154818355818111156147275781836000526020600020918201910161472691906147f9565b5b505050565b61476c91905b8082111561476857600081816101000a81549073ffffffffffffffffffffffffffffffffffffffff021916905550600101614732565b5090565b90565b6147f691905b808211156147f2576000808201600090556001820160006101000a81549073ffffffffffffffffffffffffffffffffffffffff02191690556001820160146101000a81549060ff02191690556001820160156101000a81549060ff02191690556001820160166101000a81549060ff021916905550600201614775565b5090565b90565b61481b91905b808211156148175760008160009055506001016147ff565b5090565b905600a165627a7a72305820e060646664e49e5eca90de6f10dd66e1cb0c6c1139d3a33b76e420132e885a990029",
  "source": "// \n// MIT License\n// \n// Copyright (c) 2018 REGA Risk Sharing\n//   \n// Permission is hereby granted, free of charge, to any person obtaining a copy\n// of this software and associated documentation files (the \"Software\"), to deal\n// in the Software without restriction, including without limitation the rights\n// to use, copy, modify, merge, publish, distribute, sublicense, and/or sell\n// copies of the Software, and to permit persons to whom the Software is\n// furnished to do so, subject to the following conditions:\n// \n// The above copyright notice and this permission notice shall be included in all\n// copies or substantial portions of the Software.\n// \n// THE SOFTWARE IS PROVIDED \"AS IS\", WITHOUT WARRANTY OF ANY KIND, EXPRESS OR\n// IMPLIED, INCLUDING BUT NOT LIMITED TO THE WARRANTIES OF MERCHANTABILITY,\n// FITNESS FOR A PARTICULAR PURPOSE AND NONINFRINGEMENT. IN NO EVENT SHALL THE\n// AUTHORS OR COPYRIGHT HOLDERS BE LIABLE FOR ANY CLAIM, DAMAGES OR OTHER\n// LIABILITY, WHETHER IN AN ACTION OF CONTRACT, TORT OR OTHERWISE, ARISING FROM,\n// OUT OF OR IN CONNECTION WITH THE SOFTWARE OR THE USE OR OTHER DEALINGS IN THE\n// SOFTWARE.\n// \n// Author: Sergei Sevriugin\n// Version: 0.0.1\n//  \n\npragma solidity ^0.4.17;\n\nimport \"./interfaces/ITokenPool.sol\";\nimport \"./Owned.sol\";\n/// TokenCrowdsurance is ERC721SmartToken for crowdsurance products. \n/// Crowdsurance, meaning people unite in communities to provide a guarantee of compensation for unexpected loss. \n/// Using ERC721SmartToken crowdsurance product can be 'tokenized' and can be availible as ERC20 token.\ncontract TokenCrowdsurance is Owned {\n    /// Crowdsurance token ERC721 extention\n    /// @param timeStamp join time stemp\n    /// @param activated coverage activation time stamp\n    /// @param duration crowdsurance coverage duration\n    /// @param amount join amount\n    /// @param paid paid claim amount\n    /// @param score member score\n    /// @param claimNumber number of claims\n    /// @param status crowdsurance status\n    struct Crowdsurance {\n        uint        timeStamp;          // join time stamp\n        uint        activated;          // coverage activation time stamp\n        uint        duration;           // risk coverage duration\n        uint256     amount;             // join amount\n        uint256     paid;               // paid amount\n        uint256     score;              // score\n        uint8       claimNumber;        // number of claims\n        uint8       status;             // crowdsurance status\n    }\n    /// Crowdsurance claim\n    /// @param amount claim amount\n    /// @param timeStamp claim time stamp\n    /// @param duration voting period\n    /// @param positive votes to pay claims\n    /// @param negative votes not to pay\n    /// @param number member number\n    /// @param members\n    struct Request {\n        uint256     amount;             // claim amount\n        uint        timeStamp;          // claim time stamp\n        uint        duration;           // voting duration\n        uint8       positive;           // number of positive votes\n        uint8       negative;           // number of negative votes\n        uint8       number;             // juries number\n        address[5]  members;            // jury members \n    }\n    /// Crowdsurance parameters\n    /// @param joinAmount default join amount\n    /// @param coverageDuration default coverage duration\n    /// @param maxClaimAmount maximum claim amount\n    /// @param maxClaimNumber maximum number of claims\n    /// @param paymentRatio %% from claim to be paid\n    /// @param maxPaymentAmount maximum paid amount for all claims for the covarage\n    /// @param minJuriesNumber minimum number of juries to coint votes\n    /// @param votingDuration duration of jury voting process in sec\n    /// @param juriesNumber default juriesNumber - must correspond with Request members array lenght\n    struct Parameters {\n        uint256     joinAmount;         // default join amount\n        uint        coverageDuration;   // coverage duration\n        uint256     maxClaimAmount;     // max claim amount\n        uint8       maxClaimNumber;     // max claim number for the contract\n        uint8       paymentRatio;       // claim to payment patio\n        uint256     maxPaymentAmount;   // max payment amount for the contract\n        uint8       minJuriesNumber;    // min juries number to count voting \n        uint        votingDuration;     // juries voting duration\n        uint8       juriesNumber;       // number of juries\n        uint256     maxApplications;    // maximum number of unprocessed applications\n        uint256     averageScore;       // avarega score\n        uint256     defaultClaimAmount; // default claim amount\n    }\n    /// New member application\n    /// @param timeStamp application time stamp\n    /// @param member new member address \n    /// @param tokensToBuys number of tokens to buy\n    /// @param paymetMethod join payment method : 0 - ETH\n    /// @param processed application processing status\n    struct Application {\n        uint        timeStamp;          // application time stamp\n        address     member;             // new member address\n        uint8       tokensToBuy;        // number of tokens to buy\n        uint8       paymetMethod;       // payment method : 0 - ETH\n        bool        processed;          // processing status\n    }\n    /// Crowdsurance parameters\n    Parameters public parameters;\n    mapping (address => uint256) public addressToAmount;            // address to join amount mapping\n    mapping (address => uint256) public addressToScore;             // address to scoring mapping\n    mapping (uint256 => Crowdsurance) public extensions;            // crowdsurance extension mapping\n    mapping (address => uint256) public voters;                     // crowdsurance voting\n    mapping (uint256 => Request) public requests;                   // crowdsurance token Id to Claim\n    mapping (address => uint256) public addressToApplication;       // address to application mapping\n    Application[] public applications;                              // applications\n    uint256 public appNumber;                                       // number of applications to process\n    uint256[] public claims;\n    uint256 first;\n    ITokenPool public pool;\n    /// TokenCrowdsurance Apply event\n    /// @param member new member address\n    /// @param appId member appication id\n    event Apply(address member, uint256 appId);\n    /// TokenCrowdsurance Join event\n    /// @param member new member addrsss\n    /// @param id NFT token id for crowdsurance token\n    /// @param amount paid to join\n    event Join(address member, uint256 id, uint256 amount);\n    /// TokenCrowdsurance Scoring event\n    /// @param member new member addrsss\n    /// @param score member scoring\n    /// @param amount join amount\n    event Scoring(address member, uint256 score, uint256 amount);\n    /// TokenCrowdsurance Activate event\n    /// @param id NFT Id to activate\n    /// @param amount acowdsurance join amount\n    /// @param score member scoring\n    event Activate(uint256 id, uint256 amount, uint256 score);\n    /// TokenCrowdsurance Activate event\n    /// @param id NFT Id to activate\n    /// @param claim claim amount\n    /// @param number total claims number incuding this one\n    event Claim(uint256 id, uint256 claim, uint8 number);\n    /// TokenCrowdsurance vote event\n    /// @param jury voter\n    /// @param id NFT token id to vote\n    /// @param positive voting result\n    event Vote(address jury, uint256 id, bool positive);\n    /// TokenCrowdsurance payment event\n    /// @param reciever reciever of the p[ayment\n    /// @param id NFT id for crowdsurance token\n    /// @param amount mayment amount\n    /// @param status payment status (Approved, Rejected, Closed)\n    event Payment(address reciever, uint256 id, uint256 amount, uint8 status);\n    /// FSSF event\n    /// @param member member address\n    /// @param appId application ID\n    event FSSF(address member, uint256 appId);\n    /// TokenCrowdsurance Status\n    enum Status {Init, Active, Claim, Approved, Rejected, Closed}\n    enum VotingState {Progress, Voted, Timeout}\n    /// scoring function\n    /// @param _member address of the member to score\n    /// @param _score member scoroing result\n    /// @param _amount join amount calculated based on score\n    function scoring(address _member, uint256 _score, uint256 _amount) ownerOnly public {\n        require(_member != address(0));\n        require(_score != uint256(0));\n        require(_amount != uint256(0) && _amount >= parameters.joinAmount);\n        addressToAmount[_member] = _amount;\n        addressToScore[_member] = _score;\n        \n        // clear appication\n        uint256 addId = addressToApplication[_member];\n        if(addId != uint256(0) && addId < applications.length) {\n            applications[addId].processed = true;\n            delete addressToApplication[_member];\n            appNumber--;\n            // if no more applications to process then clear the app array\n            if (appNumber == uint256(0)) {\n                delete applications;\n            }\n        }\n\n        // emit scoring event\n        emit Scoring(_member, _score, _amount);\n    }\n    function fssf() ownerOnly public {\n        address member;\n        uint256 appId;\n\n        (member, appId) = getApplication();\n\n        if(member != address(0) && appId != uint256(0)) {\n            scoring(member, parameters.averageScore, parameters.joinAmount);\n            // emit FSSF event\n            emit FSSF(member, appId);\n        }\n    }\n    /// get next application to process\n    function getApplication() view public returns (address member, uint256 appId) {\n        member = address(0);\n        appId = uint256(0);\n\n        if(appNumber == uint256(0)) {\n            return;\n        }\n\n        for(uint256 i = 1; i < applications.length; i++) {\n            if(!applications[i].processed) {\n                member = applications[i].member;\n                appId = i;\n                return;\n            }\n        }\n    }\n    /// get join amount for sender\n    function getJoinAmount() view public returns (uint256 amount) {\n        amount = addressToAmount[msg.sender];\n    }\n    /// get score\n    function getHash() view public returns (string) {\n        return pool.connector_getMetadata(voters[msg.sender]);\n    }\n    /// get application ID\n    function getAppID() view public returns (uint256 appId) {\n        appId = addressToApplication[msg.sender];\n    }\n    /// apply function \n    /// @return application ID must be not zero if application is accepted \n    function apply() public returns(uint256 addId) {\n        addId = addressToApplication[msg.sender];\n\n        if (addId == uint256(0) && appNumber < parameters.maxApplications) {\n            // new application\n            Application memory app = Application({\n                timeStamp: now,\n                member: msg.sender,\n                tokensToBuy: uint8(1),\n                paymetMethod: uint8(0),\n                processed: false\n            });\n            \n            addId = applications.push(app) - 1;\n            if(addId == uint256(0)) {\n                // process the first one -- keep 0 index reserved\n                addId = applications.push(app) - 1;\n            }\n            require(addId == uint256(uint32(addId)));\n            addressToApplication[msg.sender] = addId;\n            appNumber++;\n\n            // emit Apply event\n            emit Apply(msg.sender, addId);\n        }\n    }\n    function _join(address _member, uint256 _score, uint256 _amount) internal returns(uint256) {\n        uint256 id = pool.connector_createNFT(_amount, _member);\n        // Create extension \n        extensions[id] = Crowdsurance ({\n            timeStamp: now,\n            activated: uint(0),\n            duration: parameters.coverageDuration,\n            amount: _amount,\n            paid: uint256(0),\n            score: _score,\n            claimNumber: uint8(0),\n            status: uint8(Status.Init)\n        });\n        // now insert in a subpool\n        pool.connector_addTokenToSubPool(id);\n        // emit event \n        emit Join(_member, id, _amount);\n        // clear mapping\n        delete addressToAmount[_member];\n        delete addressToScore[_member];\n        \n        // return NFT token ID\n        return id;\n    }\n    /// join function\n    /// @return cowdsuranceId NFT token ID for created crowdsurance\n    function join() public payable returns(uint256 crowdsuranceId) {\n        uint256 amount = msg.value;\n        address member = msg.sender;\n        uint256 score = addressToScore[member];\n        require(amount != uint256(0) && amount >= parameters.joinAmount);\n        require(score != uint256(0));\n        require(amount == addressToAmount[member]);\n        // call internal _join after all checkups \n        crowdsuranceId = _join(member, score, amount);\n    }\n    /// activate function \n    /// @param _id NFT token ID to activate\n    /// @param _hash activation hash\n    function activate(uint256 _id, string _hash) public {\n        require(_id != uint256(0));\n        require(pool.connector_owns(msg.sender, _id));\n        require(extensions[_id].amount != uint256(0));\n        require(extensions[_id].status != uint8(Status.Active));        // protect multiple activation that extend coverage\n\n        pool.connector_blocked(_id);\n        extensions[_id].status = uint8(Status.Active);\n        extensions[_id].activated = now;\n        pool.connector_setMetadata(_id, _hash);\n        // emit event\n        emit Activate(_id, extensions[_id].amount, extensions[_id].score);\n    }\n    /// claim function\n    /// @param _id NFT token ID to claim payment \n    /// @param _claim claim amount\n    function claim(uint256 _id, uint256 _claim) public returns(bool) {\n        // check all conditions before accept the claim\n        require(_id != uint256(0));\n        require(pool.connector_owns(msg.sender, _id));\n        require(_claim != uint256(0));\n        require(extensions[_id].status == uint(Status.Active));\n        require(extensions[_id].claimNumber < parameters.maxClaimNumber);\n        uint256 _payment = _claim * parameters.paymentRatio / 100;\n        require((extensions[_id].paid + _payment) <= parameters.maxPaymentAmount);\n        uint coverageEnd = extensions[_id].activated + extensions[_id].duration;\n        require(coverageEnd >= now);\n        // now ready to accept the claim request\n        // change status\n        requests[_id] = Request ({\n            amount: _claim,\n            timeStamp: now,\n            duration: parameters.votingDuration,\n            positive: uint8(0),\n            negative: uint8(0),\n            number: uint8(0),\n            members: [address(0), address(0), address(0), address(0), address(0)]\n        });\n        extensions[_id].claimNumber++;\n        extensions[_id].status = uint8(Status.Claim);\n        // add claim to the Queue\n        claims.push(_id);\n        // emit event\n        emit Claim(_id, _claim, extensions[_id].claimNumber);\n        return true;\n    }\n    function getNumberOfClaims() view public returns(uint256) {\n        return (claims.length - first);\n    }\n    /// add voter function\n    /// @param _jury voter address\n    function addVoter(address _jury) ownerOnly public {\n        require(first < claims.length);\n        uint256 _id = claims[first];\n        require(_jury != address(0));\n        require(_id != uint256(0));\n        require(extensions[_id].status == uint(Status.Claim));\n        Request storage _request = requests[_id];\n        require(_request.amount != uint256(0));\n        uint votingEnd = _request.timeStamp + _request.duration;\n        require(votingEnd >= now);\n        uint8 _number = _request.number;\n        require(_number < parameters.juriesNumber);\n\n        _request.members[_number] = _jury;\n        _request.number++;\n        voters[_jury] = _id;\n\n        if(_request.number == parameters.juriesNumber) {\n            first++;\n            if(first == claims.length) {\n                first = 0;\n                claims.length = 0;\n            }\n        }\n    }\n    /// vote function\n    /// @param _id NFT id for claim voting\n    /// @param _positive true if positive to pay claims\n    function vote(uint256 _id, bool _positive) public {\n        require(_id != uint256(0));\n        require(_id == voters[msg.sender]);\n        require(extensions[_id].status == uint8(Status.Claim));\n        Request storage _request = requests[_id];\n        uint votingEnd = _request.timeStamp + _request.duration;\n        require(votingEnd >= now);\n        \n        if(_positive) {\n            _request.positive++;\n        } else {\n            _request.negative++;\n        }\n        delete voters[msg.sender]; // deliting prevent the second time voting\n        // emit event\n        emit Vote(msg.sender, _id, _positive);\n    }\n    /// token ID helpers\n    function getCurrentTokenId() public view returns (uint256 currentId) {\n        if(msg.sender == owner) {\n            currentId = uint256(0);                         // return 0 for owner\n        }\n        else {\n            uint256[] memory tokenIds = pool.connector_tokensOfOwner(msg.sender);\n            currentId = tokenIds.length > 0 ? tokenIds[tokenIds.length-1] : uint256(0);\n        }\n    }\n    /// actions helpers for the current token ID\n    function activateCurrent(string _hash) public {\n        activate(getCurrentTokenId(), _hash);\n    }\n    function claimCurrent() public returns(bool) {\n        return claim(getCurrentTokenId(), parameters.defaultClaimAmount);\n    }\n    function paymentCurrent() public {\n        payment(getCurrentTokenId());\n    }\n    /// voting helpers\n    function castPositiveSelected() public {\n        vote(voters[msg.sender], true);\n    }\n    function castNegativeSelected() public {\n        vote(voters[msg.sender], false);\n    }\n    function getCurrentVotingStatus() view public returns(uint8 status) {\n        uint256 _id = getCurrentTokenId();\n        require(_id != uint256(0));\n        require(pool.connector_owns(msg.sender, _id));\n        require(extensions[_id].status == uint(Status.Claim));\n        Request storage _request = requests[_id];\n        uint256 amount = extensions[_id].amount;\n        uint8 positive = _request.positive;\n        uint8 negative = _request.negative;\n        VotingState state = VotingState.Progress;\n        uint256 payment = _request.amount * parameters.paymentRatio / 100;\n        uint256 balance = address(this).balance;\n        bool timeout = ( _request.timeStamp + _request.duration ) < now;\n        bool voted = ( _request.positive + _request.negative ) == parameters.juriesNumber;\n\n        if(timeout) {\n            state = VotingState.Timeout;\n        }\n        else if (voted) {\n            state = VotingState.Voted;\n        }\n\n        status = 0;\n        if(state == VotingState.Timeout || state == VotingState.Voted) {\n            if( positive > negative && payment <= balance ) {\n                status = 1;\n            }\n            else if ( positive == negative && amount <= balance ) {\n                status = 2;\n            }\n            else {\n                status = 3;\n            }\n        }\n    }\n    /// get payment function\n    /// @param _id NFT token to get payment\n    function payment(uint256 _id) public {\n        require(_id != uint256(0));\n        require(pool.connector_owns(msg.sender, _id));\n        require(extensions[_id].status == uint(Status.Claim));\n        Request storage _request = requests[_id];\n        bool timeout = ( _request.timeStamp + _request.duration ) < now;\n        bool voted = ( _request.positive + _request.negative ) == parameters.juriesNumber;\n        require(timeout || voted);\n        uint256 _payment = _request.amount * parameters.paymentRatio / 100;\n        uint256[4] memory distribution;\n        if((_request.positive > _request.negative) && pool.connector_checkPayment(_id, _payment)) {\n            // pay claims\n            msg.sender.transfer(_payment);\n            extensions[_id].status = uint8(Status.Approved);\n            extensions[_id].paid = extensions[_id].paid + _payment;\n            // update pools' balances\n            distribution = pool.connector_payValue(_id, _payment);\n            // emit event\n            emit Payment(msg.sender, _id, _payment, uint8(Status.Approved));\n        } else if   (((_request.positive == _request.negative) || \n                    ((_request.positive + _request.negative) < parameters.minJuriesNumber)) && pool.connector_checkPayment(_id, extensions[_id].amount)) {\n            // pay back join amount\n            msg.sender.transfer(extensions[_id].amount);\n            extensions[_id].status = uint8(Status.Closed);\n            extensions[_id].paid = extensions[_id].paid + extensions[_id].amount;\n             // update pools' balances\n            distribution = pool.connector_payValue(_id, extensions[_id].amount);\n            // emit event\n            emit Payment(msg.sender, _id, extensions[_id].amount, uint8(Status.Closed));\n        } else {\n            // no payment\n            extensions[_id].status = uint8(Status.Rejected);\n            // emit event\n            emit Payment(msg.sender, _id, uint256(0), uint8(Status.Rejected));\n        }\n        // now time to clean voting enviroment\n        for(uint i; i < _request.number; i++) {\n            delete voters[_request.members[i]];\n        }\n    \n        delete requests[_id];\n        delete distribution;\n    }\n\n    /// status count function\n    /// @param _member address of token owner\n    /// @param _status status to check\n    function statusCount(address _member, uint8 _status) view public returns (uint256 count) {\n        uint256[] memory tokenIds = pool.connector_tokensOfOwner(_member);\n        count = uint256(0);\n\n        for (uint256 i = 0; i < tokenIds.length; i++) {\n            if (extensions[tokenIds[i]].status == _status) {\n                count++;\n            }\n        }\n    }\n    constructor(address _pool) public {\n        // setup default crowdsurance product parameters\n        parameters.joinAmount = 0.038 ether;                // default join amount\n        parameters.coverageDuration = 180 days;             // coverage duration in sec\n        parameters.maxClaimAmount = 4 ether;                // max claim amount\n        parameters.maxClaimNumber = 3;                      // max claim number for the contract\n        parameters.paymentRatio = 100;                      // claim to payment patio\n        parameters.maxPaymentAmount = 10 ether;             // max payment amount for the contract\n        parameters.minJuriesNumber = 3;                     // min juries number to count voting \n        parameters.votingDuration = 2 days;                 // juries voting duration in sec\n        parameters.juriesNumber = 5;                        // juries number -- not more than 5\n        parameters.maxApplications = 10;                    // max number of unprocessed applications\n        parameters.averageScore = 100;                      // average score value\n        parameters.defaultClaimAmount = 4 ether;            // default claim amount\n\n        appNumber = 0;                                      // initial value for applications\n        first = 0;\n        pool = ITokenPool(_pool);\n    }\n    function() public payable { }                           //  fallback function to get Ether on contract account\n}",
  "sourcePath": "/Users/sergei/SimpleExchange/contracts/TokenCrowdsurance.sol",
  "compiler": {
    "name": "solc",
    "version": "0.4.24+commit.e67f0147.Emscripten.clang"
  },
  "schemaVersion": "2.0.1",
  "updatedAt": "2018-09-10T17:01:15.163Z"
}